:020000040800F2
:10000000604B00209D0100083D1D000813190008E9
:10001000391D00084D0200088D2300080000000073
:1000200000000000000000000000000005010008C2
:10003000510200080000000049010008A91E000844
:10004000B7010008B7010008B7010008B7010008B0
:10005000B7010008B7010008B7010008B7010008A0
:10006000B7010008B7010008B7010008B701000890
:10007000B7010008B7010008B7010008B701000880
:10008000B7010008B7010008B7010008B701000870
:10009000B7010008B7010008B7010008B701000860
:1000A000B7010008B7010008B7010008B701000850
:1000B000B7010008B7010008B7010008B701000840
:1000C000B7010008B7010008B7010008B701000830
:1000D000B7010008B7010008B7010008B701000820
:1000E000B7010008B7010008B7010008DFF810D019
:1000F00000F09AF800480047F92A0008AFF30080A2
:10010000604B0020224B19680868B0E8F00F80F3BC
:100110000988BFF36F8F4FF0000080F311884EF015
:100120000D0E70470000000006480068006880F36C
:10013000088862B661B6BFF34F8FBFF36F8F00DFE1
:1001400000BF00BF08ED00E0EFF30980BFF36F8F41
:100150000F4B1A6820E9F00F106008B54FF0BF0090
:1001600080F31188BFF34F8FBFF36F8F03F00AF94D
:100170004FF0000080F31188BDE808401968086856
:10018000B0E8F00F80F30988BFF36F8F704700BFAE
:1001900010000020EFF305807047000006488047FC
:1001A00006480047FEE7FEE7FEE7FEE7FEE7FEE75C
:1001B000FEE7FEE7FEE7FEE7231F0008ED0000086C
:1001C000D2B201E000F8012B491EFBD27047002299
:1001D000F6E710B513460A4604461946FFF7F0FF46
:1001E000204610BD0022CBB20178994200D10246D0
:1001F000401C0029F8D11046704730B50B46014627
:1002000000202022012409E021FA02F59D4205D3B5
:1002100003FA02F5491B04FA02F52844151EA2F15F
:100220000102F1DC30BD0000064C074D06E0E0683D
:1002300040F0010394E8070098471034AC42F6D32D
:10024000FFF758FF6C3800088C38000800BFFEE745
:10025000704772B600BFFEE770B5044600F0B0F913
:1002600006462546681C10B104480078054400BFC6
:1002700000F0A6F9801BA842FAD370BD0800002048
:100280002DE9F8470346002294466EE14FF001083D
:1002900008FA02F4D1F8008008EA0400A0427DD1F7
:1002A000DFF8DCA2D1F80480A8EB0A09D0453AD0E7
:1002B00014DCB8F1030F50D009DCB8F1000F31D0D5
:1002C000B8F1010F1CD0B8F1020F49D120E0B8F10C
:1002D000110F18D0B8F1120F42D11EE0B9F5881FE6
:1002E00025D006DCB9F5803F20D0B9F5801F37D185
:1002F0001AE0B9F5001F18D0B9F5041F30D117E086
:10030000D1F80CC02DE0D1F80C8008F1040C28E0E5
:10031000D1F80C8008F1080C23E0D1F80C8008F12A
:100320000C0C1EE000BF00BF00BF00BF00BF00BF3D
:10033000D1F80880B8F1000F02D14FF0040C0BE0A7
:10034000D1F80880B8F1010F03D14FF0080C1C61FF
:1003500002E04FF0080C5C6103E04FF0000C00E09D
:1003600000BF00BFFF2801D8984601E003F1040850
:100370004646FF2802D84FEA820803E0A2F10808A7
:100380004FEA88084746D6F800804FF00F0909FA6F
:1003900007F928EA09080CFA07F900E088E048EABA
:1003A0000908C6F80080D1F8048008F08058B8F138
:1003B000805F7DD100BFDFF8CC81D8F8188048F08D
:1003C0000108DFF8C091C9F81880C846D8F818802D
:1003D00008F00108CDF8008000BF00BF4FEAB9382F
:1003E0004FEA920958F829504FEA82784FEA187973
:1003F0004FF00F0808FA09F825EA0805DFF88881A8
:10040000434502D14FF0000816E0DFF880814345F4
:1004100002D14FF001080FE0DFF87481434502D1AB
:100420004FF0020808E0DFF86C81434502D14FF03D
:10043000030801E04FF004084FEA82794FEA197986
:1004400008FA09F848EA0505DFF84C814FEA9209F5
:1004500048F82950D1F8048008F48018B8F5801FB6
:100460000AD1DFF83881D8F8008048EA0008DFF8C0
:100470002C91C9F8008009E0DFF82081D8F80080CD
:1004800028EA0008DFF81491C9F80080D1F8048048
:1004900008F40018B8F5001F10D1DFF8008108F14A
:1004A0000408D8F8008048EA0008DFF8F09000E07F
:1004B0005AE009F10409C9F800800DE0DFF8DC809A
:1004C00008F10408D8F8008028EA0008DFF8CC908A
:1004D00009F10409C9F80080D1F8048008F4003853
:1004E000B8F5003F0ED1DFF8B480A8F10408D8F8C1
:1004F000008048EA0008DFF8A490A9F10409C9F8CF
:1005000000800DE0DFF89480A8F10408D8F800809E
:1005100028EA0008DFF88490A9F10409C9F80080EE
:10052000D1F8048008F48038B8F5803F0ED1DFF8A8
:100530006C80A8F10808D8F8008048EA0008DFF8C5
:100540005C90A9F10809C9F800800DE0DFF84C8043
:10055000A8F10808D8F8008028EA0008DFF83C90E5
:10056000A9F10809C9F80080521CD1F8008028FAC6
:1005700002F8B8F1000F7FF489AEBDE8F8870000FB
:10058000000011100010024000080140000C014062
:10059000001001400014014008000140080401401F
:1005A00010B5C26821EA020302EA010443EA0443E7
:1005B000036110BD0AB1016101E00B0403617047E2
:1005C00001480068704700000000002003480068F0
:1005D0000349097808440149086070470000002079
:1005E0000800002010B50848006840F010000649D7
:1005F0000860032000F098F80F2000F007F800F0E2
:100600002BF8002010BD00000020024070B5044609
:100610000E4800784FF47A71B1FBF0F00C4909688C
:10062000B1FBF0F5284600F0AFFD08B1012070BD28
:10063000102C07D200222146501E00F037F8054842
:10064000046001E00120F2E70020F0E7080000204C
:100650000C0000200400002008B500BF114880698C
:1006600040F001000F4988610846806900F00100F0
:10067000009000BF00BF00BF0846C06940F0805036
:10068000C8610846C06900F08050009000BF00BFFC
:1006900000BF0549486820F0E06040F00070486005
:1006A00000BF08BD00100240000001402DE9F05FCE
:1006B00080460D461646002701F07AFE0746394669
:1006C0002A46334601F00700C0F1070ABAF1040FC9
:1006D00002D94FF0040A01E0C0F1070AD14600F147
:1006E000040ABAF1070F02D24FF0000A01E0A0F1AC
:1006F000030AD4464FF0010A0AFA09FAAAF1010ADC
:100700000AEA020A0AFA0CFA4FF0010B0BFA0CFB88
:10071000ABF1010B0BEA030B4AEA0B0421464046FE
:1007200001F04EFEBDE8F09F00BF00F00702064B4F
:1007300019684FF6FF031940044B0B4343EA0221AB
:10074000014B196000BF70470CED00E00000FA0596
:1007500070B504460D460CB9012070BD5A480068BA
:1007600000F00700A8420ED25748006820F00700AA
:100770002843554908600846006800F00700A84271
:1007800001D00120E9E7207800F0020002281DD105
:10079000207800F00400042805D14C48406840F45B
:1007A000E0604A494860207800F00800082805D138
:1007B0004648406840F460504449486043484068B7
:1007C00020F0F000A168084340494860207800F01C
:1007D000010078B36068012806D13C48006800F445
:1007E000003090B90120B8E76068022806D1374888
:1007F000006800F0007040B90120AEE7334800689F
:1008000000F0020008B90120A7E73048406820F056
:100810000300616808432D494860FFF7D1FE064692
:1008200009E0FFF7CDFE801B41F28831884202D9F2
:10083000032092E707E02548406800F00C0061685B
:10084000B0EB810FEDD12048006800F00700A8420E
:100850000ED91D48006820F0070028431A49086097
:100860000846006800F00700A84201D0012074E7A4
:10087000207800F00400042807D11448406820F4D0
:10088000E060E168084311494860207800F0080002
:10089000082808D10D48406820F46050216940EADA
:1008A000C1000A49486000F03FF808494968C1F3AF
:1008B0000311074A515CC8400649086006480068B1
:1008C000FFF7A4FE002048E700200240001002408D
:1008D000523800080C000020040000200148006885
:1008E000704700000C00002000B5FFF7F7FF044937
:1008F0004968C1F30221034A515CC84000BD0000B1
:10090000001002406238000800B5FFF7E7FF044915
:100910004968C1F3C221034A515CC84000BD0000D0
:10092000001002406238000870B500210022002447
:1009300000230020134D696801F00C05F5B1042D6A
:1009400002D0082D19D101E00F4819E00F4DC1F375
:100950008346AB5D01F4803555B10A4D6D68C5F332
:1009600040450B4E725D084D5D43B5FBF2F402E06D
:10097000084D03FB05F4204602E000BF024800BF1B
:1009800000BF70BD0010024000127A00403800081D
:100990005038000800093D00F8B504460CB90120A4
:1009A000F8BD207800F00100002878D0F8484068B1
:1009B00000F00C0004280CD0F548406800F00C0052
:1009C000082811D1F248406800F48030B0F5803F2B
:1009D0000AD1EF48006800F4003000285FD060685A
:1009E00000285CD10120DBE700BF6068B0F5803FE4
:1009F00006D1E748006840F48030E549086028E007
:100A0000606858B9E248006820F48030E049086026
:100A10000846006820F4802008601AE06068B0F59D
:100A2000A02F0BD1DA48006840F48020D849086034
:100A30000846006840F4803008600AE0D448006846
:100A400020F48030D24908600846006820F48020F5
:100A5000086000BF606888B1FFF7B2FD054606E098
:100A6000FFF7AEFD401B642801D9032098E7C84872
:100A7000006800F400300028F2D010E0FFF7A0FD7D
:100A8000054606E0FFF79CFD401B642801D90320C2
:100A900086E7BF48006800F400300028F2D12078D3
:100AA00000F00200022857D1B948406800F00C005D
:100AB00050B1B748406800F00C00082818D1B4487D
:100AC000406800F4803098B9B148006800F0020036
:100AD00020B12069012801D0012061E7AC480068FD
:100AE00020F0F800616940EAC100A949086033E0DC
:100AF0002069E8B10120A7490860FFF761FD0546BC
:100B000006E0FFF75DFD401B022801D9032047E7FF
:100B10009F48006800F002000028F2D09C4800685E
:100B200020F0F800616940EAC1009949086013E0CB
:100B3000002098490860FFF743FD054606E0FFF7EF
:100B40003FFD401B022801D9032029E79048006897
:100B500000F002000028F2D1207800F008000828F8
:100B60002DD1A069B8B101208B490860FFF728FD9D
:100B7000054606E0FFF724FD401B022801D90320AB
:100B80000EE78348406A00F002000028F2D00120FE
:100B900001F0D6F813E000207F490860FFF710FD50
:100BA000054606E0FFF70CFD401B022801D9032093
:100BB000F6E67748406A00F002000028F2D120787B
:100BC00000F00400042873D100277148C06900F0C8
:100BD000805070B900BF6E48C06940F080506C49C9
:100BE000C8610846C06900F08050009000BF00BF97
:100BF00001276A48006800F48070B0B9674800684F
:100C000040F4807065490860FFF7DAFC054606E0AD
:100C1000FFF7D6FC401B642801D90320C0E65F48DB
:100C2000006800F480700028F2D000BFE06801285E
:100C300006D15748006A40F001005549086227E094
:100C4000E06858B95248006A20F001005049086233
:100C50000846006A20F00400086219E0E0680528F0
:100C60000BD14B48006A40F004004949086208462D
:100C7000006A40F0010008620AE04548006A20F07E
:100C80000100434908620846006A20F00400086237
:100C900000BFE068A0B1FFF793FC054609E0FFF74D
:100CA0008FFC401B41F28831884202D9032077E64D
:100CB00022E03748006A00F002000028EFD012E07E
:100CC000FFF77EFC054608E0FFF77AFC401B41F287
:100CD0008831884201D9032062E62D48006A00F07D
:100CE00002000028F0D1012F05D12948C06920F069
:100CF00080502749C86100BFE069C8B324484068F4
:100D000000F00C00082860D0E069022848D10020DB
:100D100020490866FFF754FC054606E0FFF750FC43
:100D2000401B022801D903203AE61948006800F068
:100D300000700028F2D1206AB0F5803F07D1144836
:100D4000406820F40030A168084311494860D4E9A4
:100D5000080108430E49496821F4741108430C49FD
:100D6000486001200B490866FFF72AFC054607E0AA
:100D70003DE0FFF725FC401B022801D903200FE6C8
:100D80000348006800F000700028F2D02FE0000057
:100D900000100240000042428004424200700040C5
:100DA000002014490866FFF70BFC054606E0FFF734
:100DB00007FC401B022801D90320F1E50E4800681A
:100DC00000F000700028F2D111E0E069012800D1A4
:100DD000E6E50948466806F48031206A814204D17C
:100DE00006F47011606A814201D00120D8E500202C
:100DF000D6E50000000042420010024010B5044653
:100E00000CB9012010BD606A38B96068B0F5827F06
:100E100000D105E00021E16102E000212161616172
:100E20000021A16294F8510028B9002084F85000F4
:100E3000204600F043F8022084F851002068006842
:100E400020F0400021680860A08800F482702189A9
:100E500001F404410843A18901F400610843217CA5
:100E600001F002010843217D01F001010843218BBB
:100E700001F400710843217F01F03801084320216B
:100E8000095D01F080010843218D01F40051084300
:100E9000216808600421A06901EA104021684860C7
:100EA0002068C06920F400602168C8610020606586
:100EB000012084F851000020A4E7000010B586B09E
:100EC0000446002002900390049005901949206880
:100ED00088422DD100BF1848806940F480501649DF
:100EE00088610846806900F48050019000BF00BF0F
:100EF00000BF0846806940F00400886108468069A8
:100F000000F00400019000BF00BFA020029002206A
:100F100003900320059002A90848FFF7B1F940208B
:100F2000029000200390049002A90448FFF7A8F95A
:100F300006B010BD00300140001002400008014022
:100F40002DE9FE4F04460F4690461D460C9E01209B
:100F50000190FFF735FB814694F851B0606802902C
:100F6000AA46BBF1010F0BD00298B0F5827F04D1E5
:100F7000A06810B9BBF1040F02D00220BDE8FE8FBB
:100F80001FB1B8F1000F00D00DB90120F6E700BF86
:100F900094F85000012801D10220EFE7012084F8E5
:100FA000500000BF94F85100042802D0052084F8B6
:100FB000510000206065C4F83880E587A587276365
:100FC000E586A586206460642068006800F0400023
:100FD000402805D02068006840F040002168086083
:100FE000E068B0F5006F52D1606810B1BAF1010F3E
:100FF00009D1206B00882168C860206B801C2063A9
:10100000E08E401EE0863BE02068806800F0020031
:10101000022810D1E08E70B1019801280BD1206B0D
:1010200000882168C860206B801C2063E08E401E11
:10103000E086002001902068806800F0010068B11F
:10104000E08F58B12068C068A16B0880A06B801C3D
:10105000A063E08F401EE08701200190FFF7B0FA07
:10106000A0EB0900B0420BD3701C48B1012084F8FA
:10107000510000BF002084F8500000BF03207DE72E
:10108000E08E0028C0D1E08F0028BDD152E060681A
:1010900010B1BAF1010F09D1206B007821680873F3
:1010A000206B401C2063E08E401EE0863CE0206800
:1010B000806800F00200022810D1E08E70B1019823
:1010C00001280BD1206B007821680873206B401C2D
:1010D0002063E08E401EE08600200190206880683A
:1010E00000F0010068B1E08F58B12068C068A16BC2
:1010F0000870A06B401CA063E08F401EE0870120B9
:101100000190FFF75DFAA0EB0900B04201D3701C1B
:1011100000B94EB9012084F8510000BF002084F8C6
:10112000500000BF032029E7E08E0028BFD1E08FE8
:101130000028BCD14A463146204600F015FE40B199
:101140002020606500BF002084F8500000BF01200F
:1011500014E7A06850B900BF002000902068C06864
:10116000009020688068009000BF00BF012084F8D4
:10117000510000BF002084F8500000BF606D08B12E
:101180000120FBE60020F9E670B504462546681EFE
:10119000B0F1807F01D301200FE0681E4FF0E02105
:1011A00048610F214FF0FF3001F00AF900204FF0A5
:1011B000E021886107200861002070BD10B503465A
:1011C000002200BF93F83C00012801D1022010BD8D
:1011D000012083F83C0000BF22F0FF00CC6840EA09
:1011E000040222F440708C6840EA040222F4806019
:1011F0004C6840EA040222F400600C6840EA0402F1
:1012000022F480500C6940EA040222F400504C6938
:1012100040EA040222F48040CC6940EA04021868E3
:10122000426400BF002083F83C0000BF00BFCEE74F
:1012300030B502460B4600BF92F83C00012801D1B0
:10124000022030BD012082F83C0000BF022082F85D
:101250003D00106844681068816824F070041868C4
:10126000044310684460104D1068A8420BD0106809
:10127000B0F1804F07D00D4D1068A84203D00C4D3F
:101280001068A84205D121F0800158680143106818
:101290008160012082F83D0000BF002082F83C0000
:1012A00000BF00BFCDE70000002C0140000400405B
:1012B0000008004010B504460CB9012010BD94F898
:1012C0003D0028B9002084F83C00204600F026F8B4
:1012D000022084F83D00211D206800F023FE01203B
:1012E00084F8460000BF84F83E0001213F200155EC
:1012F000402001554120015500BF00BF012084F866
:10130000420043200155442001554520015500BFAE
:10131000012084F83D000020D0E7000008B5244AF1
:10132000016891420DD100BF2249896941F40061F1
:10133000204A91611146896901F40061009100BF62
:1013400035E00168B1F1804F0DD100BF1949C9697D
:1013500041F00101174AD1611146C96901F001014B
:10136000009100BF23E0144A016891420DD100BFF3
:101370001049C96941F002010E4AD1611146C9699B
:1013800001F00201009100BF11E00C4A0168914296
:101390000DD100BF0749C96941F00401054AD16177
:1013A0001146C96901F00401009100BF00BF08BDEA
:1013B000002C0140001002400004004000080040E2
:1013C0002DE9F04104460D46002700BF94F83C008B
:1013D000012802D10220BDE8F081012084F83C0000
:1013E00000BF022084F83D002068866826F077065A
:1013F00026F47F46206886602868502833D00CDCAD
:10140000202850D004DC00284BD0102851D149E0CE
:10141000302849D040284CD139E060282DD07028A0
:1014200007D0B0F5805F03D0B0F5005F41D10DE08B
:1014300041E0D5E902136A68206800F0B5FD206834
:10144000866846F077062068866034E0D5E90213A6
:101450006A68206800F0A8FD2068806840F4804039
:101460002168886027E0EA686968206800F06CFEFF
:101470005021206800F0A3FD1DE0EA68696820683B
:1014800000F075FE6021206800F099FD13E0EA6825
:101490006968206800F058FE4021206800F08FFD48
:1014A00009E000BF00BF00BF2968206800F087FD89
:1014B00001E0012700BF00BF012084F83D0000BF0C
:1014C000002084F83C0000BF384684E710B586B0A1
:1014D0000446002002900390049005903C49206847
:1014E000884217D100BF3B48806940F00400394969
:1014F00088610846806900F00400019000BF00BFC9
:101500000815029002200390059002A93248FEF7C8
:10151000B7FE5BE02068B0F1804F16D100BF2D48C8
:10152000806940F004002B4988610846806900F01A
:101530000400019000BF00BF0220029003900590BC
:1015400002A92548FEF79CFE40E024492068884215
:1015500021D100BF1F48806940F008001D49886103
:101560000846806900F00800019000BF00BF10200D
:10157000029002200390059002A91948FEF780FE10
:1015800000BF1849486820F4406040F0E06040F433
:10159000006048601AE014492068884216D100BFF4
:1015A0000C48806940F008000A4988610846806953
:1015B00000F00800019000BF00BF48150290022013
:1015C0000390059002A90648FEF75AFE06B010BD2A
:1015D000002C0140001002400008014000040040BF
:1015E000000C014000000140000800402DE9F041DE
:1015F00004460D461646002700BF94F83C0001281B
:1016000002D10220BDE8F081012084F83C0000BF37
:1016100036B1042E1BD0082E31D00C2E5ED145E001
:101620002946206800F0D4FC2068806940F008005A
:10163000216888612068806920F004002168886141
:1016400020688069296908432168886148E0294643
:10165000206800F0EDFC2068806940F4006021689B
:1016600088612068806920F4806021688861206832
:101670008069296940EA01202168886130E02946B3
:10168000206800F009FD2068C06940F0080021686A
:10169000C8612068C06920F004002168C861206822
:1016A000C069296908432168C86119E02946206892
:1016B00000F026FD2068C06940F400602168C86120
:1016C0002068C06920F480602168C8612068C06912
:1016D000296940EA01202168C86101E0012700BFB3
:1016E00000BF00BF002084F83C0000BF384689E7F7
:1016F00010B504460CB9012010BD94F83D0028B97E
:10170000002084F83C00204600F025F8022084F8F0
:101710003D00211D206800F005FC012084F84600F2
:1017200000BF84F83E0001213F20015540200155B3
:101730004120015500BF00BF012084F84200432032
:101740000155442001554520015500BF012084F872
:101750003D000020D0E7704710B504460CB90120C9
:1017600010BDA06900B100E000BF94F8410028B9A5
:10177000002084F84000204600F02AF8242084F855
:1017800041002068C06820F400502168C8602046ED
:1017900000F038FD2068006920F49040216808615D
:1017A0002068406920F02A00216848612068C068EC
:1017B00040F400502168C86000206064202084F854
:1017C000410084F842000020606300BFC8E70000C9
:1017D00010B586B004460020029003900490059056
:1017E0001949206888422DD100BF1848C06940F4CB
:1017F00000301649C8610846C06900F40030019005
:1018000000BF00BF00BF0846806940F00400886147
:101810000846806900F00400019000BF00BF04206A
:101820000290022003900320059002A90848FEF7C9
:1018300027FD0820029000200390049002A904488C
:10184000FEF71EFD06B010BD00440040001002402F
:10185000000801402DE9F84F04460E461746994608
:101860004FF0000A94F84100202850D106B117B972
:101870000120BDE8F88F00206064212084F8410039
:10188000FEF79EFE8246A784E784A068B0F5805FDD
:1018900004D1206910B90025B04602E035464FF06A
:1018A00000081EE05346002280212046CDF800901B
:1018B00000F026FD20B1202084F841000320D8E765
:1018C00045B9B8F80000C0F308002168486008F185
:1018D000020803E02878216848606D1CE08C401EF7
:1018E000E084E08C0028DDD15346002240212046D0
:1018F000CDF8009000F004FD20B1202084F84100D4
:101900000320B6E7202084F841000020B1E7022040
:10191000AFE700BFFEE7000000B585B000200190F2
:1019200002900390049000BF3048806940F010009E
:101930002E4988610846806900F01000009000BFC1
:1019400000BF00BF0846806940F02000886108465B
:10195000806900F02000009000BF00BF00BF084673
:10196000806940F0040088610846806900F0040046
:10197000009000BF00BF00BF0846806940F008002B
:1019800088610846806900F00800009000BF00BF31
:10199000012241F610011648FEF70CFE01224CF21E
:1019A00004011448FEF706FE00224FF4807110482F
:1019B000FEF700FE41F61010019001200290002079
:1019C00003900220049001A90948FEF759FC4CF24B
:1019D0000400019001200290002003900220049056
:1019E00001A90448FEF74CFC05B000BD0010024000
:1019F00000080140000C014010B50E480E49086077
:101A00004FF48270486000210B488160C160016121
:101A100041614FF4007181611021C16100210162B7
:101A2000416281620A21C162FFF7E8F908B1FEF75D
:101A300010FC10BD00300140D400002000B595B06E
:101A4000002011901290139014900F9010901C2170
:101A500008A8FEF7BCFB20216846FEF7B8FB2B4820
:101A60002B4908600320486000212948816040F22A
:101A7000E731C1600021016141618161FFF71AFC1A
:101A800008B1FEF7E6FB4FF48050119011A92048F1
:101A9000FFF796FC08B1FEF7DCFB1D48FFF728FEB8
:101AA00008B1FEF7D6FB00200F9010900FA9184840
:101AB000FFF7BEFB08B1FEF7CCFB60200890C82002
:101AC000099000200A900B900C900D900E90082227
:101AD00008A90F48FFF78AFD08B1FEF7BAFB0020FE
:101AE000009001900290039004904FF400500590F4
:101AF0000020079069460648FFF760FB08B1FEF733
:101B0000A8FB0348FFF7E2FC15B000BD002C014024
:101B10002C01002000B58DB0002009900A900B9098
:101B20000C90079008901C216846FEF750FB4FF080
:101B30008040204908600320486000211D488160E2
:101B400040F2E731C160002101618161FFF7B2FB22
:101B500008B1FEF77EFB4FF48050099009A91548A3
:101B6000FFF72EFC08B1FEF774FB1248FFF7C0FD2B
:101B700008B1FEF76EFB00200790089007A90D48FA
:101B8000FFF756FB08B1FEF764FB60200090C82009
:101B90000190002002900490042269460548FFF756
:101BA00025FD08B1FEF755FB0248FFF78FFC0DB08D
:101BB00000BD00007401002000B58DB00020099028
:101BC0000A900B900C90079008901C216846FEF735
:101BD000FEFA2048204908600320486000211E4882
:101BE000816040F2E731C160002101618161FFF74E
:101BF00061FB08B1FEF72DFB4FF48050099009A955
:101C00001548FFF7DDFB08B1FEF723FB1248FFF78D
:101C10006FFD08B1FEF71DFB00200790089007A993
:101C20000D48FFF705FB08B1FEF713FB602000909D
:101C3000C8200190002002900490002269460648C6
:101C4000FFF7D4FC08B1FEF704FB0348FFF73EFCA6
:101C50000DB000BD00040040BC01002000B58DB0F7
:101C6000002009900A900B900C90079008901C217E
:101C70006846FEF7ACFA2048204908600320486017
:101C800000211E48816040F2E731C16000210161FE
:101C90008161FFF70FFB08B1FEF7DBFA4FF48050CC
:101CA000099009A91548FFF78BFB08B1FEF7D1FA97
:101CB0001248FFF71DFD08B1FEF7CBFA0020079090
:101CC000089007A90D48FFF7B3FA08B1FEF7C1FA6B
:101CD00060200090C82001900020029004900C2207
:101CE00069460648FFF782FC08B1FEF7B2FA0348DE
:101CF000FFF7ECFB0DB000BD00080040040200201F
:101D000010B50B480B4908604FF4E13048600021E2
:101D100008488160C16001610C214161002181613D
:101D2000C161FFF719FD08B1FEF793FA10BD00007D
:101D3000004400404C02002000BFFEE700BFFEE769
:101D400008B508490968C9084FF47A72B1FBF2F185
:101D50004143009100BF00BF00994A1E0092002934
:101D6000F9D108BD0C000020F8B504460E46154612
:101D70003346012202212046009500F029F828B1BF
:101D8000606D40F0200060650320F8BD33460022FE
:101D900080212046009500F01BF828B1606D40F0CE
:101DA000200060650320F0E70020EEE701B582B077
:101DB000002001904FF47A70012301AA02A900903B
:101DC0000248FFF7BDF89DF804000EBDD4000020C6
:101DD0002DE9F84F04460D4690461E46DDF8289042
:101DE000FEF7EEFBA0EB0900371AFEF7E9FB82468F
:101DF0002C480068C0F3CB307843009045E0701C5D
:101E0000002842D0FEF7DCFBA0EB0A00B84200D26B
:101E1000A7BB2068406820F0E00021684860606847
:101E2000B0F5827F0DD1A068B0F5004F03D0A06857
:101E3000B0F5806F05D12068006820F0400021686F
:101E40000860A06AB0F5005F0DD100BF206800688F
:101E500020F40050216808602068006840F40050B9
:101E60002168086000BF012084F8510000BF0020F5
:101E700084F8500000BF0320BDE8F88FFFE700980A
:101E800000B900270098401E009020688068284014
:101E9000A84201D1012000E000204045AFD1002040
:101EA000EAE700000C00002010B501F03DFB01281E
:101EB00001D001F0B1FAFEF789FB10BD00B58FB07B
:101EC000282105A8FEF783F914216846FEF77FF95B
:101ED0000120059000040690002007900120099041
:101EE00002200C90C1030D914FF4E0110E9105A852
:101EF000FEF752FD08B1FEF7ACF90F20009002206A
:101F00000190002002904FF4806003900020049024
:101F100002216846FEF71CFC08B1FEF79AF90FB0E3
:101F200000BD704710B502681C4B984208D0B0F154
:101F3000804F05D01A4B984202D01A4B984203D1D9
:101F400022F070024B681A43144B984208D0B0F14B
:101F5000804F05D0124B984202D0124B984203D1C9
:101F600022F44072CB681A4322F080034C6943EAA2
:101F7000040202608B68C3620B688362074B98425D
:101F800001D10B69036301234361036903F001037A
:101F90001BB1036923F00103036110BD002C014054
:101FA000000400400008004030B50C46816821F470
:101FB0007F4142EA032525432943816030BD0A461B
:101FC000816821F0700142F0070319438160704776
:101FD00030B5026A056A25F0010505624368846927
:101FE00024F0700424F003040D682C4322F0020254
:101FF0008D682A430D4DA84206D100BF22F0080289
:10200000CD682A4322F00402084DA84207D123F4E8
:10201000807323F400734D692B438D692B43436018
:1020200084614D684563026230BD0000002C0140B0
:1020300030B5026A056A25F01005056243688469B7
:1020400024F4E04424F440740D6844EA052422F0AA
:1020500020028D6842EA05120E4DA84207D100BF4A
:1020600022F08002CD6842EA051222F04002094DBA
:10207000A84209D123F4806323F400634D6943EA45
:1020800085038D6943EA8503436084614D688563F8
:10209000026230BD002C014030B5026A056A25F4A9
:1020A000807505624368C46924F0700424F0030459
:1020B0000D682C4322F400728D6842EA05220F4D10
:1020C000A84207D100BF22F40062CD6842EA05228F
:1020D00022F48062094DA84209D123F4805323F4ED
:1020E00000534D6943EA05138D6943EA05134360C4
:1020F000C4614D68C563026230BD0000002C014020
:1021000030B5036A056A25F4805505624468C269E2
:1021100022F4E04222F440720D6842EA052223F4E0
:1021200000538D6843EA0533064DA84204D124F4D8
:1021300080444D6944EA85144460C2614D68056479
:10214000036230BD002C014030B50B461446026AD4
:10215000056A25F001050562816921F0F00141EA77
:10216000041122F00A021A438161026230BD30B5C7
:102170000B461446026A056A25F01005056281695E
:1021800021F4704141EA043122F0A00242EA031234
:102190008161026230BD00BF00BF02680C3252E8AC
:1021A000002F22F4907102680C3242E80013002BD9
:1021B000F3D100BF00BF00BF0268143252E8002F05
:1021C00022F001010268143242E80013002BF3D11F
:1021D00000BF016B01290ED100BF00BF02680C32A5
:1021E00052E8002F22F0100102680C3242E800137E
:1021F000002BF3D100BF202180F8421000210163A1
:102200007047000070B504462168096921F4405107
:10221000E2681143226811612269A1681143626971
:1022200041EA02052168C96841F20C6291432943E1
:102230002268D1602168496921F44071A269114383
:10224000226851612D4A2168914202D1FEF75CFB60
:1022500001E0FEF749FB00EBC00101EB00116268F1
:102260009200B1FBF2F100EBC00202EB00126368D6
:102270009B00B2FBF3F26423B2FBF3F202EBC20366
:1022800003EB0212A1EB8201322202EB0111642264
:10229000B1FBF2F101F0F00100EBC00202EB001221
:1022A00063689B00B2FBF3F26423B2FBF3F201EB31
:1022B000021200EBC00101EB001163689B00B1FB4F
:1022C000F3F100EBC00303EB00136668B600B3FB49
:1022D000F6F36426B3FBF6F303EBC30606EB031336
:1022E000A1EB8301322303EB01116423B1FBF3F172
:1022F00001F00F0111442268916070BD0038014067
:102300002DE9F84304460D4617469846089E31E0ED
:10231000701C70B3FEF754F9A0EB0800B04200D86F
:1023200016B90320BDE8F8832068C06800F00400F7
:10233000F8B1802D1ED0402D1CD020680068C0F35D
:10234000C000B0B100BF002000902068006800907D
:1023500020684068009000BF00BF2046FFF71BFFC9
:102360000820606400BF002084F8400000BF012006
:10237000D8E7FFE7206800682840A84201D1012083
:1023800000E00020B842C3D00020CBE700BFFEE74A
:102390000FB4054B10B503A9044A029800F034F8B5
:1023A00010BC5DF814FB000005270008D0000020D9
:1023B00002480068C0F30220704700000CED00E006
:1023C00010B5002804DB0A07130E054A135406E073
:1023D0000A07140E034A00F00F031B1FD45410BD4C
:1023E00000E400E018ED00E002E008C8121F08C198
:1023F000002AFAD170477047002001E001C1121F86
:10240000002AFBD1704700002DE9FF4F8BB09A46A0
:102410000F460546002606E025280BD052460D99AA
:1024200090476D1C761C28780028F5D10FB03046F7
:10243000BDE8F08F0024A0460122604900E004437B
:1024400015F8013F203B02FA03F00842F7D1287843
:102450002E2817D115F8010F44F004042A280ED0B5
:102460006FF02F022878A0F1300109290AD808EB73
:10247000880102EB410100EB01086D1CF2E757F8FF
:10248000048B6D1C287869283ED006DC0028CDD04E
:1024900063280BD0642804D136E0732810D0752847
:1024A0004BD052460D999047761C85E017F8040BE7
:1024B0008DF8000000208DF80100E946012003E0BE
:1024C00057F8049B4FF0FF3061074FF0000401D430
:1024D0000AE0641C44450DDA8442FADB19F8041062
:1024E0000029F6D106E0641C8442FCDB19F80410D4
:1024F0000029F8D1264404E019F8010B52460D9941
:102500009047641EF8D257E001CF4FF00A0B002825
:1025100002DA40422D2102E0210504D52B218DF85D
:102520002410012103E0E10705D02021F7E70DF198
:10253000200908910CE00021F9E701CF4FF00A0BC8
:10254000F9E75946FDF759FE01F1300209F8012D6E
:102550000028F6D1ADEB090000F1200B600701D493
:102560004FF00108D84502DDA8EB0B0000E0002089
:102570008046002406E009A85246005D0D99904768
:10258000641C761C08988442F5DB04E03020524637
:102590000D999047761CB8F10001A8F10108F5DC0F
:1025A00005E019F8010B52460D999047761CBBF1D6
:1025B0000001ABF1010BF4DC6D1C34E709280100CC
:1025C00038E02F211CA0FDF70DFE28B12F211AA005
:1025D000FDF708FE401C00E017A005465C21FDF752
:1025E00001FE88B12F2114A0FDF7FCFD28B12F2199
:1025F00011A0FDF7F7FD401C00E00FA005465C218F
:10260000FDF7F0FD401C0BE02F210BA0FDF7EAFDCC
:1026100028B12F2108A0FDF7E5FD401C00E006A031
:1026200004463F22214608A0FFF7B2FE4FF47A701D
:1026300000F050FEC5E700006170705C6170705F73
:102640007461736B2E6300005B25733A25645D2013
:102650006170705F7461736B0000000008B52F211A
:102660001FA0FDF7BFFD28B12F211DA0FDF7BAFD6A
:10267000401C00E01AA005465C21FDF7B3FD88B1BF
:102680002F2117A0FDF7AEFD28B12F2114A0FDF7D3
:10269000A9FD401C00E012A005465C21FDF7A2FD4B
:1026A000401C0BE02F210EA0FDF79CFD28B12F212F
:1026B0000BA0FDF797FD401C00E009A00446562240
:1026C00021460BA0FFF764FE00F03EFF009005E0FE
:1026D00000BF0621684600F0EDFE00BFF8E70000ED
:1026E0006170705C6170705F7461736B2E63000069
:1026F0005B25733A25645D20666C696768745F7456
:1027000061736B0013B50C464FF47A73012269466E
:102710000248FFF79FF800981CBD00004C02002003
:1027200010B5002204210648FDF744FF642000F0A4
:10273000D1FD012204210248FDF73CFF10BD00003D
:10274000000C014010B50446A18801222068FDF765
:1027500031FF10BD10B50446A18800222068FDF7A6
:1027600029FF10BD10B50446A1882068FDF718FFA9
:1027700010BD000010B505220E49102000F07EF8B3
:1027800005220D49302000F0CDF80522094910201E
:1027900000F074F8002109E00648405C064A525CEB
:1027A000904201D0012010BD481CC1B20529F3DBC5
:1027B0000020F8E7C9000020C400002070B5C82040
:1027C000FDF74AFD02E00A20FDF746FDFFF7D2FFC4
:1027D0000028F8D100F074F82F211AA0FDF702FDAF
:1027E00028B12F2117A0FDF7FDFC401C00E015A02B
:1027F00005465C21FDF7F6FC88B12F2111A0FDF7FD
:10280000F1FC28B12F210FA0FDF7ECFC401C00E0EB
:102810000CA005465C21FDF7E5FC401C0BE02F21D8
:1028200008A0FDF7DFFC28B12F2106A0FDF7DAFC98
:10283000401C00E003A00446E522214607A0FFF764
:10284000A7FD70BD696E746572666163655C696ED3
:10285000745F7369323472312E6300005B25733A02
:1028600025645D2053493234523120496E69742009
:10287000537563636573730A000000002DE9F0412E
:1028800007460D461646002210210C48FDF792FE21
:102890003846FFF78BFA8046002405E00020FFF75A
:1028A00085FA2855601CC4B2B442F7DB012210211E
:1028B0000248FDF77FFE4046BDE8F0810008014078
:1028C00010B500224FF480711448FDF773FE052205
:1028D00013492A2000F026F80121212000F044F8B5
:1028E0000121222000F040F82821252000F03CF8AA
:1028F0002021312000F038F80F21262000F034F894
:102900000F21202000F030F8FF21272000F02CF8C4
:10291000012211020148FDF74DFE10BD00080140E3
:10292000C40000202DE9F04107460C461546002260
:1029300010210C48FDF73EFE3846FFF737FA804677
:10294000002605E014F8010BFFF730FA701CC6B240
:10295000AE42F7DB012210210248FDF72BFE404674
:10296000BDE8F0810008014070B505460C46002224
:1029700010210848FDF71EFE2846FFF717FA064605
:102980002046FFF713FA012210210248FDF712FE3C
:10299000304670BD0008014008B52F2147A0FDF763
:1029A00021FC28B12F2145A0FDF71CFC401C00E0B4
:1029B00042A006465C21FDF715FC88B12F213FA0FF
:1029C000FDF710FC28B12F213CA0FDF70BFC401CAB
:1029D00000E03AA006465C21FDF704FC401C0BE039
:1029E0002F2136A0FDF7FEFB28B12F2133A0FDF7E4
:1029F000F9FB401C00E031A005466D22294633A0BA
:102A0000FFF7C6FC00F0A0FD0090002455E0601C1C
:102A1000C4B23348007830B93248FFF79BFE3248E1
:102A2000FFF798FE05E02F48FFF78CFE2E48FFF7D2
:102A300089FE2E48007830B1012811D002281DD01F
:102A4000032829D121E0052094FBF0F100FB11407F
:102A500028B92748FFF786FE2648FFF783FE22E0C5
:102A6000204604EBD0714910A4EB410129B920485C
:102A7000FFF778FE1F48FFF775FE14E01C48FFF7CC
:102A800069FE1C48FFF766FE0DE01948FFF75AFE85
:102A90001848FFF757FE06E01548FFF753FE1548A4
:102AA000FFF750FE00BF00BF0A2C00D100BF00BFDF
:102AB0006421684600F0FEFC00BFA8E76170705C0E
:102AC0006170705F7461736B2E6300005B25733AF5
:102AD00025645D206C65645F7461736B00000000A9
:102AE000B000002090000020A0000020B1000020D5
:102AF00098000020A8000020FDF774FDFFF7DEF924
:102B0000FEF70AFFFFF7FCF8FEF798FFFFF702F861
:102B1000FFF752F8FFF7A2F8FEF76EFFFFF74EFE41
:102B200000F0F2FA00BFFEE708B52F2120A0FDF764
:102B300059FB28B12F211EA0FDF754FB401C00E0DB
:102B40001BA005465C21FDF74DFB88B12F2118A085
:102B5000FDF748FB28B12F2115A0FDF743FB401CD2
:102B600000E013A005465C21FDF73CFB401C0BE098
:102B70002F210FA0FDF736FB28B12F210CA0FDF768
:102B800031FB401C00E00AA00446482221460CA06C
:102B9000FFF7FEFB00F0D8FC009008E000BF42F217
:102BA0001071684600F086FC00BFFFF7B9FDF5E73D
:102BB0006170705C6170705F7461736B2E63000094
:102BC0005B25733A25645D20706F7765725F746171
:102BD000736B00002DE9F04105460E462648076854
:102BE00026480068001D00F0E3FA50B92348006849
:102BF00090F82C1001208840214909688143204821
:102C00000160681CD8B9D6B11E4948681B490968DB
:102C100088601A4982680968CA6018490968091DEC
:102C20008268516015490968091D8160154A134978
:102C300009684A6111460968491C11601AE07C194B
:102C40000E4800684460BC4207D20C480168091D68
:102C50000D48006800F0D0FA0CE008480168091D32
:102C60000A48006800F0C8FA09480068844201D2A6
:102C700007480460BDE8F081240000201000002017
:102C80002800002048030020180000201400002025
:102C90004000002010B5044600F0C8FA2F48006834
:102CA000401C2E4908602E48006840B92C4804603A
:102CB0000846006801280DD100F016F90AE02948FD
:102CC000006838B926480068C06AE16A884201D8BD
:102CD0002348046024480068401C2349086094F895
:102CE0002C10012088402149096808431F490860C9
:102CF000E16A01EB81011E4A02EB81014868A06094
:102D00008268E260211D826851608160E16A01EBA6
:102D10008101174A02EB81026261E16A01EB8101E4
:102D2000134A52F82110491CE26A02EB8202104B4E
:102D300043F8221000F08CFA0A48006868B108488D
:102D40000068C06AE16A884207D24FF080500949A2
:102D50000860BFF34F8FBFF36F8F10BD20000020BE
:102D6000100000202C0000203C0000202800002043
:102D70009402002004ED00E010B516E000F056FAD1
:102D80000C48C068C468201D00F012FA0A480068A8
:102D9000401E0949086009480068401E074908604C
:102DA00000F056FA204600F00BF8044800680028AE
:102DB000E4D110BD34030020200000201C000020BE
:102DC00010B50446206B00F053FA204600F050FA8C
:102DD00010BD000030B54FF48843154800F00704DB
:102DE0002CB1C01D20F00700114C041B1B1B024618
:102DF000104C226000240F4D6C60D018083820F071
:102E000007000D4C206000240B4D2D686C600A4DAE
:102E10002D682C601146441A4C60074C24680C60E5
:102E2000064D4C682C60064D4C682C6030BD00008F
:102E30005C030020500000205800002060000020AB
:102E40005C00002000BFFFF797FF064800680128DC
:102E5000F9D94FF0805004490860BFF34F8FBFF39A
:102E60006F8FF0E79402002004ED00E02DE9FF5F92
:102E700080460E469146DDE90E7A109CA9F10100CC
:102E8000216B01EB800B2BF0070B7EB1002507E0D7
:102E9000715D04F134004155705D00B902E06D1CB4
:102EA000102DF5D300BF002143200155052F00D37D
:102EB0000427E762201D00F09CF904F1180000F0DF
:102EC00098F92461C7F10500A06164624146584643
:102ED000039A00F007F92060BAF1000F01D0CAF898
:102EE0000040BDE8FF9F000010B5002407E004EBA0
:102EF00084010F4A02EB810000F06EF9641C052C7E
:102F0000F5D30C4800F068F90B4800F065F90B4860
:102F100000F062F90A4800F05FF90A4800F05CF935
:102F200004480949086004480849086010BD0000C9
:102F300094020020F80200200C030020200300204F
:102F40003403002048030020140000201800002053
:102F500010B50146164800E0006803688B42FBD3B9
:102F60000246436813448B4204D143684C682344AF
:102F7000436001460A464B6813440468A34211D1DA
:102F80000C4C03682468A34208D04B68046864684A
:102F900023444B6003681B680B6005E0054B1B680E
:102FA0000B6001E003680B60884200D0016010BD37
:102FB000500000205800002009480068006808B947
:102FC000012000E0002020B14FF0FF3005490860EB
:102FD00005E003480068C06800680249086070475F
:102FE000140000204000002000BFBF2080F31188A3
:102FF000BFF34F8FBFF36F8F00BF00BFFEE700002E
:103000002DE9F04705464FF0000900F0B3F93048CC
:10301000006808B9FFF7DEFE75B105F00700C0F1E2
:103020001008C8F1FF30A84201D2012000E00020C2
:1030300008B9454400E00025012000EBE5700028B8
:1030400041D0002D3FD02348006885423BD8224E16
:103050003046046801E0264624686068A84202D22F
:1030600020680028F7D11A48006884422BD03068C5
:1030700000F10809206830606068401B102807D9FB
:1030800067196068401B786065603846FFF760FF2D
:10309000104960680968081A0E4908600846006807
:1030A0000E490968884203D20A4800680B49086043
:1030B000606840F0004060600020206008480068C0
:1030C000401C0749086000F00DFB4846BDE8F0874A
:1030D000580000205C00002050000020600000200C
:1030E00064000020001F4FF080730360001F21F078
:1030F00001030360001F034B036014380260203893
:1031000070470000E92F00081CB515480121002375
:103110008022CDE9001013A1154800F097F9154859
:10312000042100238022CDE9001013A1154800F0EE
:103130008DF91548032100238022CDE9001013A149
:10314000154800F083F91548012100238022CDE9BC
:10315000001013A1154800F079F900F0D5F81CBD56
:10316000B40000206170705F7461736B0000000038
:10317000C1250008B8000020706F7765725F746128
:10318000736B0000292B0008BC000020666C696787
:1031900068745F7461736B005D260008C0000020D6
:1031A0006C65645F7461736B00000000992900080E
:1031B00001460A69D1E901309860D1E901035860FC
:1031C0005068884201D1886850600020086110680A
:1031D000401E10601068704700F1080141604FF018
:1031E000FF31816000F10801C160016100210160CF
:1031F000704700210161704710B502460B685C1CE6
:103200000CB9106907E002F1080000E0406844686A
:1032100024689C42FAD944684C604C68A16088607C
:1032200041600A611468641C146010BD00BFBF20B7
:1032300080F31188BFF34F8FBFF36F8F00BF034838
:103240000068401C01490860704700006C000020C5
:1032500006480068401E054908600846006820B915
:10326000002080F3118800BF00BF70476C00002071
:1032700070B506463546E6B1083D2C466068C00F7D
:10328000B8B12068A8B9606820F00040606000F024
:1032900071F80849606809680844064908602046D2
:1032A000FFF756FE04480068401C0349086000F020
:1032B00019FA70BD5C0000206800002000204FF06B
:1032C000E021086188610248486107200861704771
:1032D0003F19010070B50446002544B100F04AF8DA
:1032E00000212046FFF776FC00F0FCF905463DB9C9
:1032F0004FF0805003490860BFF34F8FBFF36F8FCB
:1033000070BD000004ED00E01CB5124800210B4622
:103310008022CDE9001010A1114800F097F8044672
:10332000012C14D100BFBF2080F31188BFF34F8F51
:10333000BFF36F8F00BF4FF0FF300A4908600120D4
:103340000949086000200949086000F04BF8084866
:1033500000681CBD4400002049444C4500000000AA
:10336000452E0008400000202C00002024000020F2
:103370004800002002480068401C0149086070476E
:103380004C0000201248006818B101201149086063
:103390001DE000200F4908600F480068B0FA80F077
:1033A000C0F11F0101EB81020C4B03EB820042686C
:1033B0005268426000F108024368934202D14268B9
:1033C000526842604268D268054B1A6000BF70477D
:1033D0004C0000203400002028000020940200202F
:1033E0001000002010B50A48006840F47F0008492A
:1033F00008600846006840F07F400860FFF75EFF05
:10340000002004490860FCF78FFE002010BD00007A
:1034100020ED00E06C00002010B500BFBF2080F35D
:103420001188BFF34F8FBFF36F8F00BF00F092F88A
:1034300018B14FF080500449086000BF002080F3AD
:10344000118800BF10BD000004ED00E02DE9FF4F22
:1034500085B0804689461746DDE912ABB800FFF714
:10346000CFFD064676B14C20FFF7CAFD04462CB1CD
:103470004C212046FCF7ABFE266304E03046FFF704
:10348000F7FE00E000247CB10020CDE900ABCDE9DF
:1034900002403A4649464046089BFFF7E7FC204673
:1034A000FFF7F8FB012501E04FF0FF35284609B092
:1034B000BDE8F08F2DE9F047044688464FF000093B
:1034C000FFF758FF16480668206800EB08052068DB
:1034D000B04207D92068A8420BD9B54209D94FF0AC
:1034E000010906E02068A84201D8B54201D94FF091
:1034F00001092560B9F1000F03D0A81B0021FFF7D7
:1035000069FB00F0EFF807463FB94FF080500549DE
:103510000860BFF34F8FBFF36F8F4846BDE8F08759
:103520002400002004ED00E00549096809B90120E4
:1035300005E00449096809B9022000E0002070474D
:103540002C0000204C000020014908687047000052
:10355000240000202DE9F04100275748006800288A
:103560007ED156480068451C544805608DB95448C2
:10357000D0F8008053480068514908605148C0F8AD
:10358000008051480068401C4F490860FFF714FD57
:1035900000BF4E480068854276D300BF48480068A7
:1035A000006808B9012000E0002020B14FF0FF3092
:1035B0004649086067E042480068C068C4686668B9
:1035C000B54202D2414806605DE06069D4E902126A
:1035D0008A60D4E902214A60211D42688A4201D1F1
:1035E000E1684160002262610168491E0160A06AD1
:1035F00098B1A06AD4E907128A60D4E907214A6029
:1036000004F1180142688A4201D1216A4160002216
:10361000A2620168491E016000BF94F82C100120CD
:1036200088402B490968084329490860E16A01EB91
:103630008101284A02EB81014868A0608268E2604B
:10364000211D826851608160E16A01EB8101214A9C
:1036500002EB81026261E16A01EB81011D4A00E037
:1036600022E052F82110491CE26A02EB8202194B57
:1036700043F822101849E06A0968C96A88428DD95E
:1036800001278BE700E000BF13480068C06A00EB29
:103690008000104951F82000012800D901270F4867
:1036A000006800B1012704E00D480068401C0C4987
:1036B00008603846BDE8F0814C000020240000205E
:1036C00014000020180000203800002040000020D6
:1036D0002800002094020020100000203400002068
:1036E0003000002070B500240026FFF79FFD4B48F6
:1036F0000068401E494908600846006800287DD1DE
:1037000047480068002879D05BE04648C068C46834
:10371000A06AD4E907128A60D4E907214A6004F15B
:10372000180142688A4201D1216A41600022A262E6
:103730000168491E01606069D4E902128A60D4E917
:1037400002214A60211D42688A4201D1E16841603C
:10375000002262610168491E016094F82C1001206A
:1037600088403149096808432F490860E16A01EB44
:1037700081012E4A02EB81014868A0608268E26004
:10378000211D826851608160E16A01EB8101274A55
:1037900002EB81026261E16A01EB8101234A52F886
:1037A0002110491CE26A02EB8202204B43F82210EE
:1037B0001F49E06A0968C96A884202D301201D498D
:1037C00008601848006808B9012000E000200028BF
:1037D0009BD00CB1FFF7F0FB1748056865B100BF3F
:1037E000FFF7B8FE10B10120124908606D1E002DD0
:1037F000F6D10020104908600E4800E009E000689A
:1038000038B1012630070D490860BFF34F8FBFF371
:103810006F8FFFF71DFD304670BD00004C0000208B
:103820002000002020030020280000209402002017
:1038300010000020340000203000002004ED00E0E3
:1038400002030405060708090A0B0C0D0E0F1010E1
:10385000010200000000000000000102030406074E
:103860000809000000000102030400008C38000871
:1038700000000020D4000000E823000860390008A0
:10388000D40000208C4A0000F8230008000000004B
:10389000100000000100000000127A00000000008B
:1038A0000000000000000000000000000000000018
:1038B0000000000000000000000000000000000008
:1038C00000000000000000000000000000000000F8
:1038D00000000000040000000000000000000000E4
:1038E00000000000000000000000000000000000D8
:1038F0000000000000000000AAAAAAAABC01002043
:1039000000000000040200200C00000074010020F0
:10391000040000002C010020080000000008014005
:1039200000100000000C01400040000000080140B1
:1039300000080000000C01400080000000000000B2
:103940000000000000000000000000000000000077
:103950000A06030201000000000000000000000051
:04000005080000ED02
:00000001FF
