:020000040800F2
:10000000F84B00209D010008952A0008A320000855
:10001000912A0008BF020008E53000080000000037
:1000200000000000000000000000000005010008C2
:10003000C30200080000000049010008012C00086C
:10004000B7010008B7010008B7010008B7010008B0
:10005000B7010008B7010008B7010008B7010008A0
:10006000B7010008B7010008B7010008B701000890
:10007000B7010008B7010008B7010008B701000880
:10008000B7010008B7010008B7010008B701000870
:10009000B7010008B7010008B7010008B701000860
:1000A000B7010008B7010008B7010008B701000850
:1000B000B7010008B7010008B7010008B701000840
:1000C000B7010008B7010008B7010008B701000830
:1000D000B7010008B7010008B7010008B701000820
:1000E000B7010008B7010008B7010008DFF810D019
:1000F00000F0C4F800480047E9430008AFF300806F
:10010000F84B0020224B19680868B0E8F00F80F324
:100110000988BFF36F8F4FF0000080F311884EF015
:100120000D0E70470000000006480068006880F36C
:10013000088862B661B6BFF34F8FBFF36F8F00DFE1
:1001400000BF00BF08ED00E0EFF30980BFF36F8F41
:100150000F4B1A6820E9F00F106008B54FF0BF0090
:1001600080F31188BFF34F8FBFF36F8F04F0CEFD84
:100170004FF0000080F31188BDE808401968086856
:10018000B0E8F00F80F30988BFF36F8F704700BFAE
:1001900010000020EFF305807047000006488047FC
:1001A00006480047FEE7FEE7FEE7FEE7FEE7FEE75C
:1001B000FEE7FEE7FEE7FEE77B2C0008ED00000807
:1001C000202A04DB203A21FA02F00021704721FAAC
:1001D00002F3D040C2F12002914008431946704713
:1001E000D2B201E000F8012B491EFBD27047002279
:1001F000F6E710B513460A4604461946FFF7F0FF26
:10020000204610BD0022CBB20178994200D10246AF
:10021000401C0029F8D1104670472DE9F05F0546D3
:10022000002092469B4688460646814640241BE0B5
:100230002846414647462246FFF7C2FF53465A46E4
:10024000C01A914110D311461846224600F028F8F2
:100250002D1A67EB01084F4622460120002100F0CD
:100260001FF817EB00094E41201EA4F10104DFDC4A
:10027000484631462A464346BDE8F09F064C074DA6
:1002800006E0E06840F0010394E807009847103466
:10029000AC42F6D3FFF72EFF40530008605300082E
:1002A000202A04DB203A00FA02F100207047914036
:1002B000C2F1200320FA03F319439040704700BFB6
:1002C000FEE7704772B600BFFEE7000070B5044657
:1002D00000F0B0F906462546681C10B104480078C5
:1002E000054400BF00F0A6F9801BA842FAD370BDF8
:1002F000080000202DE9F8470346002294466EE1ED
:100300004FF0010808FA02F4D1F8008008EA04006E
:10031000A0427DD1DFF8DCA2D1F80480A8EB0A0965
:10032000D0453AD014DCB8F1030F50D009DCB8F155
:10033000000F31D0B8F1010F1CD0B8F1020F49D134
:1003400020E0B8F1110F18D0B8F1120F42D11EE021
:10035000B9F5881F25D006DCB9F5803F20D0B9F566
:10036000801F37D11AE0B9F5001F18D0B9F5041F66
:1003700030D117E0D1F80CC02DE0D1F80C8008F195
:10038000040C28E0D1F80C8008F1080C23E0D1F827
:100390000C8008F10C0C1EE000BF00BF00BF00BFC6
:1003A00000BF00BFD1F80880B8F1000F02D14FF0B4
:1003B000040C0BE0D1F80880B8F1010F03D14FF025
:1003C000080C1C6102E04FF0080C5C6103E04FF088
:1003D000000C00E000BF00BFFF2801D8984601E0F4
:1003E00003F104084646FF2802D84FEA820803E0DA
:1003F000A2F108084FEA88084746D6F800804FF077
:100400000F0909FA07F928EA09080CFA07F900E0C8
:1004100088E048EA0908C6F80080D1F8048008F0AE
:100420008058B8F1805F7DD100BFDFF8CC81D8F86B
:10043000188048F00108DFF8C091C9F81880C84654
:10044000D8F8188008F00108CDF8008000BF00BF80
:100450004FEAB9384FEA920958F829504FEA8278A2
:100460004FEA18794FF00F0808FA09F825EA08054D
:10047000DFF88881434502D14FF0000816E0DFF82D
:100480008081434502D14FF001080FE0DFF874810D
:10049000434502D14FF0020808E0DFF86C81434584
:1004A00002D14FF0030801E04FF004084FEA8279CF
:1004B0004FEA197908FA09F848EA0505DFF84C818E
:1004C0004FEA920948F82950D1F8048008F48018BE
:1004D000B8F5801F0AD1DFF83881D8F8008048EAE3
:1004E0000008DFF82C91C9F8008009E0DFF82081CE
:1004F000D8F8008028EA0008DFF81491C9F80080D5
:10050000D1F8048008F40018B8F5001F10D1DFF806
:10051000008108F10408D8F8008048EA0008DFF8F4
:10052000F09000E05AE009F10409C9F800800DE0FC
:10053000DFF8DC8008F10408D8F8008028EA000819
:10054000DFF8CC9009F10409C9F80080D1F80480E3
:1005500008F40038B8F5003F0ED1DFF8B480A8F1F8
:100560000408D8F8008048EA0008DFF8A490A9F150
:100570000409C9F800800DE0DFF89480A8F10408B0
:10058000D8F8008028EA0008DFF88490A9F104096F
:10059000C9F80080D1F8048008F48038B8F5803FAD
:1005A0000ED1DFF86C80A8F10808D8F8008048EA7E
:1005B0000008DFF85C90A9F10809C9F800800DE097
:1005C000DFF84C80A8F10808D8F8008028EA000875
:1005D000DFF83C90A9F10809C9F80080521CD1F855
:1005E000008028FA02F8B8F1000F7FF489AEBDE868
:1005F000F8870000000011100010024000080140C0
:10060000000C0140001001400014014008000140AE
:100610000804014010B5C26821EA020302EA01049D
:1006200043EA0443036110BD0AB1016101E00B0418
:100630000361704701480068704700000000002017
:1006400070B504460CB9012070BD94F83D0028B97E
:10065000002084F83C00204600F046FB242084F86B
:100660003D002068006820F00100216808602068D3
:10067000006840F40040216808602068006820F4A9
:1006800000402168086000F0F7FC05465C4960689E
:10069000884206D85B48854201D2012007E000204D
:1006A00005E05948854201D2012000E000200128E0
:1006B00000D1C9E75548B5FBF0F62068406820F046
:1006C0003F003043216848604D496068884201D846
:1006D000701C07E04FF4967070434FF47A71B0FBD2
:1006E000F1F0401C2168096A21F03F0108432168AC
:1006F000086243496068884214D8681E61684900EE
:10070000B0FBF1F0401CC0F30B00042801D2042020
:100710003DE0681E61684900B0FBF1F0401CC0F389
:100720000B0034E0A06838B9681E616801EB410134
:10073000B0FBF1F0401C0AE0681E616801EBC102E9
:1007400002EB0111B0FBF1F0401C40F48040C0F31B
:100750000B0008B901201AE0A06848B9681E61685A
:1007600001EB4101B0FBF1F0401CC0F30B000CE0C9
:10077000681E616801EBC10202EB0111B0FBF1F0F0
:10078000401CC0F30B0040F4804040F4004021685E
:10079000C9694CF6FF72914308432168C861D4E9E6
:1007A000070108432168096821F0C0010843216856
:1007B0000860D4E9031008432168896848F2FF32D1
:1007C0009143084321688860D4E905010843216802
:1007D000C96821F0FF0108432168C86020680068EB
:1007E00040F001002168086000202064202084F887
:1007F0003D000020206384F83E0000BF24E7000095
:10080000A086010080841E0000093D0040420F00C8
:100810002DE9FE4F04460F4690469946DDE90CABA4
:100820000E9E00200290FFF705FF054694F83D005C
:10083000202872D119230122CE492046009501F0CB
:10084000A4FD10B10220BDE8FE8F00BF94F83C006B
:10085000012801D10220F6E7012084F83C0000BF06
:100860002068006800F0010028B92068006840F0A6
:100870000100216808602068006820F40060216899
:100880000860222084F83D00402084F83E000020CB
:100890002064C4F824A0A4F82AB0608D2085B6484E
:1008A000E0624B46424639462046CDE9006501F0FC
:1008B00019FC08B10120C6E7208D88B900BF0020CF
:1008C000019020684069019020688069019000BF14
:1008D00000BF2068006840F40070216808604BE0A9
:1008E000208D01281AD12068006820F480602168DA
:1008F000086072B600BF0020019020684069019036
:1009000020688069019000BF00BF2068006840F443
:1009100000702168086062B62EE029E1208D02286F
:1009200019D12068006840F400602168086072B640
:1009300000BF002001902068406901902068806914
:10094000019000BF00BF2068006820F4806021682B
:10095000086062B610E02068006840F4806021689A
:10096000086000BF00200190206840690190206865
:100970008069019000BF00BFEBE0208D03287DD887
:10098000208D012815D12A463146204601F0D9FD97
:1009900008B1012057E720680069616A0870606A41
:1009A000401C6062208D401E2085608D401E608549
:1009B000CFE0208D02282CD1334600226F492046FB
:1009C000009501F0E2FC08B101203CE772B6206816
:1009D000006840F400702168086020680069616A5E
:1009E0000870606A401C6062208D401E2085608D0A
:1009F000401E608562B620680069616A0870606A9E
:100A0000401C6062208D401E2085608D401E6085E8
:100A10009FE03346002259492046009501F0B5FC7D
:100A200008B101200FE72068006820F48060216889
:100A3000086072B620680069616A0870606A401CCC
:100A40006062208D401E2085608D401E60854C4870
:100A500000681921B0FBF1F04FF47A71B0FBF1F0AE
:100A6000C0EBC00000EB8000029000BF0298401E67
:100A700002900298A8B90020206300E039E020200D
:100A800084F83D00002084F83E00206C40F02000F7
:100A9000206462B600BF002084F83C0000BF012043
:100AA000D1E620684069C0F380000028DED02068CD
:100AB000006840F400702168086020680069616A7D
:100AC0000870606A401C6062208D401E2085608D29
:100AD000401E608562B620680069616A0870606ABD
:100AE000401C6062208D401E2085608D401E608508
:100AF0002FE02A463146204601F023FD08B10120AF
:100B0000A1E620680069616A0870606A401C606242
:100B1000208D401E2085608D401E608520684069C4
:100B2000C0F38000A8B1208D032805D1206800689B
:100B300020F480602168086020680069616A08709C
:100B4000606A401C6062208D401E2085608D401EC2
:100B50006085208D00287FF410AF202084F83D00B0
:100B6000002084F83E0000BF84F83C0000BF6AE625
:100B7000022068E6020010000000FFFF04000100F0
:100B80000C0000202DE9FC5F04460F469046994674
:100B9000DDE90CAB0E9EFFF74DFD054694F83D00D8
:100BA00020287DD1192301224D492046009501F0CE
:100BB000ECFB10B10220BDE8FC9F00BF94F83C00A4
:100BC000012801D10220F6E7012084F83C0000BF93
:100BD0002068006800F0010028B92068006840F033
:100BE0000100216808602068006820F40060216826
:100BF0000860212084F83D00402084F83E00002059
:100C00002064C4F824A0A4F82AB0608D208535485B
:100C1000E0624B46424639462046CDE9006501F088
:100C200011FB08B10120C6E731E02A4631462046D3
:100C300001F0CCFC50B1206C042805D1206800687C
:100C400040F40070216808600120B4E7606A007811
:100C500021680861606A401C6062208D401E20850A
:100C6000608D401E608520684069C0F3800070B1CF
:100C7000208D60B1606A007821680861606A401C5C
:100C80006062208D401E2085608D401E6085208D15
:100C90000028CAD12A463146204601F043FB00E035
:100CA0001CE050B1206C042805D12068006840F495
:100CB00000702168086001207DE72068006840F42A
:100CC000007021680860202084F83D00002084F82E
:100CD0003E0000BF84F83C0000BF6CE702206AE7DA
:100CE000020010000000FFFF10B586B0044600208F
:100CF000029003900490059015492068884225D100
:100D000000BF1448806940F0080012498861084615
:100D1000806900F00800019000BF00BFC020029071
:100D2000122003900320059002A90B48FFF7E2FA76
:100D300000BF0848C06940F400100649C861084671
:100D4000C06900F40010019000BF00BF06B010BDE4
:100D50000054004000100240000C014003480068AD
:100D600003490978084401490860704700000020E1
:100D70000800002010B50848006840F0100006493F
:100D80000860032000F098F80F2000F007F800F04A
:100D90002BF8002010BD00000020024070B5044672
:100DA0000E4800784FF47A71B1FBF0F00C490968F5
:100DB000B1FBF0F5284600F0AFFD08B1012070BD91
:100DC000102C07D200222146501E00F037F80548AB
:100DD000046001E00120F2E70020F0E708000020B5
:100DE0000C0000200400002008B500BF11488069F5
:100DF00040F001000F4988610846806900F0010059
:100E0000009000BF00BF00BF0846C06940F080509E
:100E1000C8610846C06900F08050009000BF00BF64
:100E200000BF0549486820F0E06040F0007048606D
:100E300000BF08BD00100240000001402DE9F05F36
:100E400080460D461646002702F05EF907463946F1
:100E50002A46334601F00700C0F1070ABAF1040F31
:100E600002D94FF0040A01E0C0F1070AD14600F1AF
:100E7000040ABAF1070F02D24FF0000A01E0A0F114
:100E8000030AD4464FF0010A0AFA09FAAAF1010A44
:100E90000AEA020A0AFA0CFA4FF0010B0BFA0CFBF1
:100EA000ABF1010B0BEA030B4AEA0B042146404667
:100EB00002F032F9BDE8F09F00BF00F00702064BD8
:100EC00019684FF6FF031940044B0B4343EA022114
:100ED000014B196000BF70470CED00E00000FA05FF
:100EE00070B504460D460CB9012070BD5A48006823
:100EF00000F00700A8420ED25748006820F0070013
:100F00002843554908600846006800F00700A842D9
:100F100001D00120E9E7207800F0020002281DD16D
:100F2000207800F00400042805D14C48406840F4C3
:100F3000E0604A494860207800F00800082805D1A0
:100F40004648406840F4605044494860434840681F
:100F500020F0F000A168084340494860207800F084
:100F6000010078B36068012806D13C48006800F4AD
:100F7000003090B90120B8E76068022806D13748F0
:100F8000006800F0007040B90120AEE73348006807
:100F900000F0020008B90120A7E73048406820F0BF
:100FA0000300616808432D494860FFF743FB06468C
:100FB00009E0FFF73FFB801B41F28831884202D9EC
:100FC000032092E707E02548406800F00C006168C4
:100FD000B0EB810FEDD12048006800F00700A84277
:100FE0000ED91D48006820F0070028431A49086000
:100FF0000846006800F00700A84201D0012074E70D
:10100000207800F00400042807D11448406820F438
:10101000E060E168084311494860207800F008006A
:10102000082808D10D48406820F46050216940EA42
:10103000C1000A49486000F03FF808494968C1F317
:101040000311074A515CC840064908600648006819
:10105000FFF7A4FE002048E70020024000100240F5
:10106000265300080C0000200400002001480068FE
:10107000704700000C00002000B5FFF7F7FF04499F
:101080004968C1F30221034A515CC84000BD000019
:10109000001002403653000800B5FFF7E7FF04498F
:1010A0004968C1F3C221034A515CC84000BD000039
:1010B000001002403653000870B5002100220024C1
:1010C00000230020134D696801F00C05F5B1042DD3
:1010D00002D0082D19D101E00F4819E00F4DC1F3DE
:1010E0008346AB5D01F4803555B10A4D6D68C5F39B
:1010F00040450B4E725D084D5D43B5FBF2F402E0D6
:10110000084D03FB05F4204602E000BF024800BF83
:1011100000BF70BD0010024000127A001453000896
:101120002453000800093D00F8B504460CB901201D
:10113000F8BD207800F00100002878D0F848406819
:1011400000F00C0004280CD0F548406800F00C00BA
:10115000082811D1F248406800F48030B0F5803F93
:101160000AD1EF48006800F4003000285FD06068C2
:1011700000285CD10120DBE700BF6068B0F5803F4C
:1011800006D1E748006840F48030E549086028E06F
:10119000606858B9E248006820F48030E04908608F
:1011A0000846006820F4802008601AE06068B0F506
:1011B000A02F0BD1DA48006840F48020D84908609D
:1011C0000846006840F4803008600AE0D4480068AF
:1011D00020F48030D24908600846006820F480205E
:1011E000086000BF606888B1FFF724FA054606E092
:1011F000FFF720FA401B642801D9032098E7C8486C
:10120000006800F400300028F2D010E0FFF712FA76
:10121000054606E0FFF70EFA401B642801D90320BB
:1012200086E7BF48006800F400300028F2D120783B
:1012300000F00200022857D1B948406800F00C00C5
:1012400050B1B748406800F00C00082818D1B448E5
:10125000406800F4803098B9B148006800F002009E
:1012600020B12069012801D0012061E7AC48006865
:1012700020F0F800616940EAC100A949086033E044
:101280002069E8B10120A7490860FFF7D3F90546B6
:1012900006E0FFF7CFF9401B022801D9032047E7FA
:1012A0009F48006800F002000028F2D09C480068C7
:1012B00020F0F800616940EAC1009949086013E034
:1012C000002098490860FFF7B5F9054606E0FFF7EA
:1012D000B1F9401B022801D9032029E79048006892
:1012E00000F002000028F2D1207800F00800082861
:1012F0002DD1A069B8B101208B490860FFF79AF998
:10130000054606E0FFF796F9401B022801D90320A5
:101310000EE78348406A00F002000028F2D0012066
:1013200001F0BAFB13E000207F490860FFF782F963
:10133000054606E0FFF77EF9401B022801D903208D
:10134000F6E67748406A00F002000028F2D12078E3
:1013500000F00400042873D100277148C06900F030
:10136000805070B900BF6E48C06940F080506C4931
:10137000C8610846C06900F08050009000BF00BFFF
:1013800001276A48006800F48070B0B967480068B7
:1013900040F4807065490860FFF74CF9054606E0A7
:1013A000FFF748F9401B642801D90320C0E65F48D5
:1013B000006800F480700028F2D000BFE0680128C7
:1013C00006D15748006A40F001005549086227E0FD
:1013D000E06858B95248006A20F00100504908629C
:1013E0000846006A20F00400086219E0E068052859
:1013F0000BD14B48006A40F0040049490862084696
:10140000006A40F0010008620AE04548006A20F0E6
:101410000100434908620846006A20F0040008629F
:1014200000BFE068A0B1FFF705F9054609E0FFF746
:1014300001F9401B41F28831884202D9032077E646
:1014400022E03748006A00F002000028EFD012E0E6
:10145000FFF7F0F8054608E0FFF7ECF8401B41F213
:101460008831884201D9032062E62D48006A00F0E5
:1014700002000028F0D1012F05D12948C06920F0D1
:1014800080502749C86100BFE069C8B3244840685C
:1014900000F00C00082860D0E069022848D1002044
:1014A00020490866FFF7C6F8054606E0FFF7C2F8D0
:1014B000401B022801D903203AE61948006800F0D1
:1014C00000700028F2D1206AB0F5803F07D114489F
:1014D000406820F40030A168084311494860D4E90D
:1014E000080108430E49496821F4741108430C4966
:1014F000486001200B490866FFF79CF8054607E0A5
:101500003DE0FFF797F8401B022801D903200FE6C2
:101510000348006800F000700028F2D02FE00000BF
:10152000001002400000424280044242007000402D
:10153000002014490866FFF77DF8054606E0FFF72E
:1015400079F8401B022801D90320F1E50E48006814
:1015500000F000700028F2D111E0E069012800D10C
:10156000E6E50948466806F48031206A814204D1E4
:1015700006F47011606A814201D00120D8E5002094
:10158000D6E50000000042420010024010B50446BB
:101590000CB9012010BD606A38B96068B0F5827F6F
:1015A00000D105E00021E16102E0002121616161DB
:1015B0000021A16294F8510028B9002084F850005D
:1015C000204600F043F8022084F8510020680068AB
:1015D00020F0400021680860A08800F48270218912
:1015E00001F404410843A18901F400610843217C0E
:1015F00001F002010843217D01F001010843218B24
:1016000001F400710843217F01F0380108432021D3
:10161000095D01F080010843218D01F40051084368
:10162000216808600421A06901EA1040216848602F
:101630002068C06920F400602168C86100206065EE
:10164000012084F851000020A4E7000010B586B006
:1016500004460020029003900490059019492068E8
:1016600088422DD100BF1848806940F48050164947
:1016700088610846806900F48050019000BF00BF77
:1016800000BF0846806940F0040088610846806910
:1016900000F00400019000BF00BFA02002900220D3
:1016A00003900320059002A90848FEF723FE40207E
:1016B000029000200390049002A90448FEF71AFE4D
:1016C00006B010BD0030014000100240000801408B
:1016D0002DE9FE4F04460F4690461D460C9E012004
:1016E0000190FEF7A7FF814694F851B06068029020
:1016F000AA46BBF1010F0BD00298B0F5827F04D14E
:10170000A06810B9BBF1040F02D00220BDE8FE8F23
:101710001FB1B8F1000F00D00DB90120F6E700BFEE
:1017200094F85000012801D10220EFE7012084F84D
:10173000500000BF94F85100042802D0052084F81E
:10174000510000206065C4F83880E587A5872763CD
:10175000E586A586206460642068006800F040008B
:10176000402805D02068006840F0400021680860EB
:10177000E068B0F5006F52D1606810B1BAF1010FA6
:1017800009D1206B00882168C860206B801C206311
:10179000E08E401EE0863BE02068806800F002009A
:1017A000022810D1E08E70B1019801280BD1206B76
:1017B00000882168C860206B801C2063E08E401E7A
:1017C000E086002001902068806800F0010068B188
:1017D000E08F58B12068C068A16B0880A06B801CA6
:1017E000A063E08F401EE08701200190FEF722FFFA
:1017F000A0EB0900B0420BD3701C48B1012084F863
:10180000510000BF002084F8500000BF03207DE796
:10181000E08E0028C0D1E08F0028BDD152E0606882
:1018200010B1BAF1010F09D1206B0078216808735B
:10183000206B401C2063E08E401EE0863CE0206868
:10184000806800F00200022810D1E08E70B101988B
:1018500001280BD1206B007821680873206B401C95
:101860002063E08E401EE0860020019020688068A2
:1018700000F0010068B1E08F58B12068C068A16B2A
:101880000870A06B401CA063E08F401EE087012021
:101890000190FEF7CFFEA0EB0900B04201D3701C0F
:1018A00000B94EB9012084F8510000BF002084F82F
:1018B000500000BF032029E7E08E0028BFD1E08F51
:1018C0000028BCD14A463146204601F0F9F840B123
:1018D0002020606500BF002084F8500000BF012078
:1018E00014E7A06850B900BF002000902068C068CD
:1018F000009020688068009000BF00BF012084F83D
:10190000510000BF002084F8500000BF606D08B196
:101910000120FBE60020F9E670B504462546681E66
:10192000B0F1807F01D301200FE0681E4FF0E0216D
:1019300048610F214FF0FF3001F0EEFB00204FF027
:10194000E021886107200861002070BD10B50346C2
:10195000002200BF93F83C00012801D1022010BDF5
:10196000012083F83C0000BF22F0FF00CC6840EA71
:10197000040222F440708C6840EA040222F4806081
:101980004C6840EA040222F400600C6840EA040259
:1019900022F480500C6940EA040222F400504C69A1
:1019A00040EA040222F48040CC6940EA040218684C
:1019B000426400BF002083F83C0000BF00BFCEE7B8
:1019C00030B502460B4600BF92F83C00012801D119
:1019D000022030BD012082F83C0000BF022082F8C6
:1019E0003D00106844681068816824F0700418682D
:1019F000044310684460104D1068A8420BD0106872
:101A0000B0F1804F07D00D4D1068A84203D00C4DA7
:101A10001068A84205D121F0800158680143106880
:101A20008160012082F83D0000BF002082F83C0068
:101A300000BF00BFCDE70000002C014000040040C3
:101A40000008004010B504460CB9012010BD94F800
:101A50003D0028B9002084F83C00204600F026F81C
:101A6000022084F83D00211D206801F007F90120C3
:101A700084F8460000BF84F83E0001213F20015554
:101A8000402001554120015500BF00BF012084F8CE
:101A9000420043200155442001554520015500BF17
:101AA000012084F83D000020D0E7000008B5244A5A
:101AB000016891420DD100BF2249896941F400615A
:101AC000204A91611146896901F40061009100BFCB
:101AD00035E00168B1F1804F0DD100BF1949C969E6
:101AE00041F00101174AD1611146C96901F00101B4
:101AF000009100BF23E0144A016891420DD100BF5C
:101B00001049C96941F002010E4AD1611146C96903
:101B100001F00201009100BF11E00C4A01689142FE
:101B20000DD100BF0749C96941F00401054AD161DF
:101B30001146C96901F00401009100BF00BF08BD52
:101B4000002C01400010024000040040000800404A
:101B50002DE9F04104460D46002700BF94F83C00F3
:101B6000012802D10220BDE8F081012084F83C0068
:101B700000BF022084F83D002068866826F07706C2
:101B800026F47F46206886602868502833D00CDC15
:101B9000202850D004DC00284BD0102851D149E037
:101BA000302849D040284CD139E060282DD0702809
:101BB00007D0B0F5805F03D0B0F5005F41D10DE0F4
:101BC00041E0D5E902136A68206801F099F82068BD
:101BD000866846F077062068866034E0D5E902130F
:101BE0006A68206801F08CF82068806840F48040C2
:101BF0002168886027E0EA686968206801F050F988
:101C00005021206801F087F81DE0EA6869682068C3
:101C100001F059F96021206801F07DF813E0EA68CD
:101C20006968206801F03CF94021206801F073F8F0
:101C300009E000BF00BF00BF2968206801F06BF811
:101C400001E0012700BF00BF012084F83D0000BF74
:101C5000002084F83C0000BF384684E710B586B009
:101C60000446002002900390049005903C492068AF
:101C7000884217D100BF3B48806940F004003949D1
:101C800088610846806900F00400019000BF00BF31
:101C90000815029002200390059002A93248FEF731
:101CA00029FB5BE02068B0F1804F16D100BF2D48C2
:101CB000806940F004002B4988610846806900F083
:101CC0000400019000BF00BF022002900390059025
:101CD00002A92548FEF70EFB40E02449206888420F
:101CE00021D100BF1F48806940F008001D4988616C
:101CF0000846806900F00800019000BF00BF102076
:101D0000029002200390059002A91948FEF7F2FA0A
:101D100000BF1849486820F4406040F0E06040F49B
:101D2000006048601AE014492068884216D100BF5C
:101D30000C48806940F008000A49886108468069BB
:101D400000F00800019000BF00BF4815029002207B
:101D50000390059002A90648FEF7CCFA06B010BD24
:101D6000002C014000100240000801400004004027
:101D7000000C014000000140000800402DE9F04146
:101D800004460D461646002700BF94F83C00012883
:101D900002D10220BDE8F081012084F83C0000BFA0
:101DA00036B1042E1BD0082E31D00C2E5ED145E06A
:101DB0002946206800F0B8FF2068806940F00800DC
:101DC000216888612068806920F0040021688861AA
:101DD00020688069296908432168886148E02946AC
:101DE000206800F0D1FF2068806940F4006021681D
:101DF00088612068806920F480602168886120689B
:101E00008069296940EA01202168886130E029461B
:101E1000206800F0EDFF2068C06940F008002168EC
:101E2000C8612068C06920F004002168C86120688A
:101E3000C069296908432168C86119E029462068FA
:101E400001F00AF82068C06940F400602168C861A8
:101E50002068C06920F480602168C8612068C0697A
:101E6000296940EA01202168C86101E0012700BF1B
:101E700000BF00BF002084F83C0000BF384689E75F
:101E800010B504460CB9012010BD94F83D0028B9E6
:101E9000002084F83C00204600F025F8022084F859
:101EA0003D00211D206800F0E9FE012084F8460075
:101EB00000BF84F83E0001213F200155402001551C
:101EC0004120015500BF00BF012084F8420043209B
:101ED0000155442001554520015500BF012084F8DB
:101EE0003D000020D0E7704710B504460CB9012032
:101EF00010BDA06900B100E000BF94F8410028B90E
:101F0000002084F84000204600F02AF8242084F8BD
:101F100041002068C06820F400502168C860204655
:101F200001F01CF82068006920F4904021680861E5
:101F30002068406920F02A00216848612068C06854
:101F400040F400502168C86000206064202084F8BC
:101F5000410084F842000020606300BFC8E7000031
:101F600010B586B0044600200290039004900590BE
:101F70001949206888422DD100BF1848C06940F433
:101F800000301649C8610846C06900F4003001906D
:101F900000BF00BF00BF0846806940F004008861B0
:101FA0000846806900F00400019000BF00BF0420D3
:101FB0000290022003900320059002A90848FEF732
:101FC00099F90820029000200390049002A9044887
:101FD000FEF790F906B010BD00440040001002402A
:101FE000000801402DE9F84F04460E461746994671
:101FF0004FF0000A94F84100202850D106B117B9DB
:102000000120BDE8F88F00206064212084F84100A1
:10201000FEF710FB8246A784E784A068B0F5805FD6
:1020200004D1206910B90025B04602E035464FF0D2
:1020300000081EE05346002280212046CDF8009083
:1020400001F00AF820B1202084F841000320D8E7ED
:1020500045B9B8F80000C0F308002168486008F1ED
:10206000020803E02878216848606D1CE08C401E5F
:10207000E084E08C0028DDD1534600224021204638
:10208000CDF8009000F0E8FF20B1202084F8410056
:102090000320B6E7202084F841000020B1E70220A9
:1020A000AFE700BFFEE7014608684069C0F3802043
:1020B000B0B16FF480600A6850610020086320208E
:1020C00081F83D00002081F83E00086C40F00400DB
:1020D000086400BF002081F83C0000BF0120704769
:1020E0000020FCE72DE9F84304460F4615469946C3
:1020F000DDE908862068006840F480602168086097
:102100002068006840F4807021680860434600221F
:102110004FF001112046009600F037F960B12068B9
:10212000006800F48070B0F5807F02D14FF4007039
:1021300020640320BDE8F88307F0FE0021680861F1
:10214000334642463E49204600F07EF908B1012060
:10215000F0E700BF002000902068406900902068F0
:102160008069009000BF00BF32464146204600F023
:102170002DFA50B1206C042805D12068006840F485
:102180000070216808600120D4E7B9F1010F03D184
:10219000E8B22168086117E0C5F3072021680861EB
:1021A00032464146204600F011FA50B1206C042816
:1021B00005D12068006840F40070216808600120A3
:1021C000B8E7E8B22168086132464146204600F08F
:1021D000FDF950B1206C042805D12068006840F456
:1021E0000070216808600120A4E72068006840F4BE
:1021F000807021680860434600224FF0011120469C
:10220000009600F0C2F858B12068006800F48070B1
:10221000B0F5807F02D14FF400702064032089E77D
:10222000F8B240F001002168086133464246044993
:10223000204600F009F908B101207BE7002079E78A
:10224000020001002DE9F8430446884615469946E8
:10225000DDE908672068006840F480702168086044
:10226000334600224FF001112046009700F08DF810
:1022700060B12068006800F48070B0F5807F02D102
:102280004FF4007020640320BDE8F88308F0FE00DE
:10229000216808613B4632462149204600F0D4F8C7
:1022A00008B10120F0E700BF0020009020684069DD
:1022B000009020688069009000BF00BF3A46314618
:1022C000204600F083F950B1206C042805D1206825
:1022D000006840F40070216808600120D4E7B9F17B
:1022E000010F03D1E8B22168086117E0C5F30720A8
:1022F000216808613A463146204600F067F950B13E
:10230000206C042805D12068006840F40070216822
:1023100008600120B8E7E8B2216808610020B3E74F
:102320000200010070B504460D46164625E0204621
:10233000FFF7B9FE08B1012070BD681CE8B1FEF7D7
:1023400079F9801BA84200D8BDB920684069C0F364
:10235000800090B900202063202084F83D000020F8
:1023600084F83E00206C40F02000206400BF002074
:1023700084F83C0000BF0120DEE720684069C0F31C
:1023800080000028D3D00020D6E72DE9F041044694
:102390000D4617461E46DDF8188038E0701CA8B3BD
:1023A000FEF748F9A0EB0800B04200D876BBC5F3B1
:1023B000074001280AD120684069A9B20840A9B2A3
:1023C000884201D101200BE0002009E020688069EB
:1023D000A9B20840A9B2884201D1012000E0002042
:1023E000B84214D100202063202084F83D00002052
:1023F00084F83E00206C40F02000206400BF0020E4
:1024000084F83C0000BF0120BDE8F081FFE7C5F380
:10241000074001280AD120684069A9B20840A9B242
:10242000884201D101200BE0002009E0206880698A
:10243000A9B20840A9B2884201D1012000E00020E1
:10244000B842ABD00020DFE72DE9F04104460D464D
:1024500016461F4658E020684069C0F38020E8B166
:102460002068006840F40070216808606FF48060A4
:102470002168486100202063202084F83D0000206E
:1024800084F83E00206C40F00400206400BF00206F
:1024900084F83C0000BF0120BDE8F081701C90B3BF
:1024A000FEF7C8F8C01BB04200D866BBC5F30740B2
:1024B00001280AD120684069A9B20840A9B288421F
:1024C00001D101200BE0002009E020688069A9B259
:1024D0000840A9B2884201D1012000E0002090B953
:1024E00000202063202084F83D00002084F83E0076
:1024F000206C40F02000206400BF002084F83C00E5
:1025000000BF0120C8E7FFE7C5F3074001280AD153
:1025100020684069A9B20840A9B2884201D10120CF
:102520000BE0002009E020688069A9B20840A9B248
:10253000884201D1012000E0002000288BD000203B
:10254000AAE770B504460D46164637E02068406994
:10255000C0F30010A0B16FF01000216848610020A6
:102560002063202084F83D00002084F83E00206C89
:10257000206400BF002084F83C0000BF012070BD33
:10258000FEF758F8801BA84200D8BDB92068406902
:10259000C0F3801090B900202063202084F83D0013
:1025A000002084F83E00206C40F02000206400BF32
:1025B000002084F83C0000BF0120E0E7206840696B
:1025C000C0F380100028C1D00020D8E770B50446C1
:1025D0000D46164625E02046FFF765FD08B10120AF
:1025E00070BD681CE8B1FEF725F8801BA84200D832
:1025F000BDB920684069C0F3C01090B900202063C5
:10260000202084F83D00002084F83E00206C40F03B
:102610002000206400BF002084F83C0000BF01209F
:10262000DEE720684069C0F3C0100028D3D0002046
:10263000D6E7000000B585B000200190029003901D
:10264000049000BF3048806940F010002E49886136
:102650000846806900F01000009000BF00BF00BF76
:102660000846806940F0200088610846806900F0D3
:102670002000009000BF00BF00BF0846806940F006
:10268000040088610846806900F00400009000BFE3
:1026900000BF00BF0846806940F008008861084616
:1026A000806900F00800009000BF00BF012241F6E1
:1026B00010011648FDF7B8FF01224CF2040114483E
:1026C000FDF7B2FF00224FF480711048FDF7ACFF18
:1026D00041F610100190012002900020039002208A
:1026E000049001A90948FDF705FE4CF20400019091
:1026F00001200290002003900220049001A90448C8
:10270000FDF7F8FD05B000BD0010024000080140D3
:10271000000C014010B50B480B4908600B4848609D
:10272000002109488160C1604FF4804101610021AE
:1027300041618161C1610162FDF782FF08B1FDF76E
:10274000C1FD10BD00540040F4000020801A0600B6
:1027500010B50E480E4908604FF4827048600021A1
:102760000B488160C160016141614FF4007181617A
:102770001021C16100210162416281620A21C162AE
:10278000FEF704FF08B1FDF79DFD10BD00300140CC
:102790004801002000B595B00020119012901390D0
:1027A00014900F9010901C2108A8FDF720FD202107
:1027B0006846FDF71CFD2B482B4908600320486044
:1027C00000212948816040F2E731C16000210161A8
:1027D00041618161FFF736F908B1FDF773FD4FF4F0
:1027E0008050119011A92048FFF7B2F908B1FDF708
:1027F00069FD1D48FFF744FB08B1FDF763FD0020AC
:102800000F9010900FA91848FFF7DAF808B1FDF7FC
:1028100059FD60200890C820099000200A900B9074
:102820000C900D900E90082208A90F48FFF7A6FA09
:1028300008B1FDF747FD0020009001900290039041
:1028400004904FF400500590002007906946064818
:10285000FFF77CF808B1FDF735FD0348FFF7FEF9F7
:1028600015B000BD002C0140A001002000B58DB0C6
:10287000002009900A900B900C90079008901C2162
:102880006846FDF7B4FC4FF0804020490860032003
:10289000486000211D48816040F2E731C16000219D
:1028A00001618161FFF7CEF808B1FDF70BFD4FF430
:1028B0008050099009A91548FFF74AF908B1FDF7BA
:1028C00001FD1248FFF7DCFA08B1FDF7FBFC002020
:1028D0000790089007A90D48FFF772F808B1FDF7B7
:1028E000F1FC60200090C82001900020029004902C
:1028F000042269460548FFF741FA08B1FDF7E2FCFA
:102900000248FFF7ABF90DB000BD0000E801002060
:1029100000B58DB0002009900A900B900C900790A4
:1029200008901C216846FDF762FC20482049086099
:102930000320486000211E48816040F2E731C160F9
:10294000002101618161FFF77DF808B1FDF7BAFC54
:102950004FF48050099009A91548FFF7F9F808B11C
:10296000FDF7B0FC1248FFF78BFA08B1FDF7AAFC9F
:1029700000200790089007A90D48FFF721F808B13B
:10298000FDF7A0FC60200090C8200190002002907C
:102990000490002269460648FFF7F0F908B1FDF7F8
:1029A00091FC0348FFF75AF90DB000BD0004004048
:1029B0003002002000B58DB0002009900A900B90E5
:1029C0000C90079008901C216846FDF710FC2048E9
:1029D000204908600320486000211E48816040F2C1
:1029E000E731C160002101618161FFF72BF808B177
:1029F000FDF768FC4FF48050099009A91548FFF7CE
:102A0000A7F808B1FDF75EFC1248FFF739FA08B1E4
:102A1000FDF758FC00200790089007A90D48FEF725
:102A2000CFFF08B1FDF74EFC60200090C820019058
:102A30000020029004900C2269460648FFF79EF998
:102A400008B1FDF73FFC0348FFF708F90DB000BDE2
:102A5000000800407802002010B50B480B490860C0
:102A60004FF4E1304860002108488160C160016195
:102A70000C21416100218161C161FFF735FA08B184
:102A8000FDF720FC10BD000000440040C002002003
:102A900000BFFEE700BFFEE708B508490968C9089E
:102AA0004FF47A72B1FBF2F14143009100BF00BFD5
:102AB00000994A1E00920029F9D108BD0C0000209F
:102AC000F8B504460E46154633460122022120463B
:102AD000009500F029F828B1606D40F02000606595
:102AE0000320F8BD3346002280212046009500F0E7
:102AF0001BF828B1606D40F0200060650320F0E70E
:102B00000020EEE701B582B0002001904FF47A700A
:102B1000012301AA02A900900248FEF7D9FD9DF801
:102B200004000EBD480100202DE9F84F04460D4673
:102B300090461E46DDF82890FDF77CFDA0EB0900CD
:102B4000371AFDF777FD82462C480068C0F3CB307A
:102B50007843009045E0701C002842D0FDF76AFDE4
:102B6000A0EB0A00B84200D2A7BB2068406820F062
:102B7000E000216848606068B0F5827F0DD1A068F0
:102B8000B0F5004F03D0A068B0F5806F05D1206884
:102B9000006820F0400021680860A06AB0F5005F7E
:102BA0000DD100BF2068006820F400502168086043
:102BB0002068006840F400502168086000BF0120D0
:102BC00084F8510000BF002084F8500000BF0320AB
:102BD000BDE8F88FFFE7009800B900270098401E75
:102BE0000090206880682840A84201D1012000E0C0
:102BF00000204045AFD10020EAE700000C00002093
:102C000010B502F0FBF9012801D002F0C9F8FEF777
:102C1000A5F810BD00B58FB0282105A8FDF7E7FA8B
:102C200014216846FDF7E3FA0120059000040690A0
:102C3000002007900120099002200C90C1030D9103
:102C40004FF4E0110E9105A8FEF76EFA08B1FDF7FA
:102C500039FB0F20009002200190002002904FF4D9
:102C6000806003900020049002216846FEF738F946
:102C700008B1FDF727FB0FB000BD704710B5026823
:102C80001C4B984208D0B0F1804F05D01A4B9842A7
:102C900002D01A4B984203D122F070024B681A43BB
:102CA000144B984208D0B0F1804F05D0124B984297
:102CB00002D0124B984203D122F44072CB681A43DF
:102CC00022F080034C6943EA040202608B68C3620D
:102CD0000B688362074B984201D10B6903630123A0
:102CE0004361036903F001031BB1036923F001038E
:102CF000036110BD002C01400004004000080040AA
:102D000030B50C46816821F47F4142EA0325254312
:102D10002943816030BD0A46816821F0700142F08C
:102D2000070319438160704730B5026A056A25F0D0
:102D3000010505624368846924F0700424F00304EB
:102D40000D682C4322F002028D682A430D4DA842E3
:102D500006D100BF22F00802CD682A4322F0040207
:102D6000084DA84207D123F4807323F400734D6902
:102D70002B438D692B43436084614D684563026238
:102D800030BD0000002C014030B5026A056A25F014
:102D9000100505624368846924F4E04424F4407417
:102DA0000D6844EA052422F020028D6842EA0512EB
:102DB0000E4DA84207D100BF22F08002CD6842EA42
:102DC000051222F04002094DA84209D123F4806384
:102DD00023F400634D6943EA85038D6943EA850363
:102DE000436084614D688563026230BD002C014000
:102DF00030B5026A056A25F4807505624368C469C6
:102E000024F0700424F003040D682C4322F40072B3
:102E10008D6842EA05220F4DA84207D100BF22F477
:102E20000062CD6842EA052222F48062094DA84280
:102E300009D123F4805323F400534D6943EA051369
:102E40008D6943EA05134360C4614D68C56302623E
:102E500030BD0000002C014030B5036A056A25F43E
:102E6000805505624468C26922F4E04222F440724F
:102E70000D6842EA052223F400538D6843EA0533C6
:102E8000064DA84204D124F480444D6944EA8514D7
:102E90004460C2614D680564036230BD002C01408E
:102EA00030B50B461446026A056A25F00105056235
:102EB000816921F0F00141EA041122F00A021A436B
:102EC0008161026230BD30B50B461446026A056A64
:102ED00025F010050562816921F4704141EA043151
:102EE00022F0A00242EA03128161026230BD00BFFB
:102EF00000BF02680C3252E8002F22F49071026881
:102F00000C3242E80013002BF3D100BF00BF00BF1A
:102F10000268143252E8002F22F0010102681432D4
:102F200042E80013002BF3D100BF016B01290ED141
:102F300000BF00BF02680C3252E8002F22F01001DF
:102F400002680C3242E80013002BF3D100BF2021AD
:102F500080F84210002101637047000070B50446FC
:102F60002168096921F44051E26811432268116126
:102F70002269A1681143626941EA02052168C968B2
:102F800041F20C62914329432268D160216849696A
:102F900021F44071A2691143226851612D4A2168D0
:102FA000914202D1FEF778F801E0FEF765F800EBF8
:102FB000C00101EB001162689200B1FBF2F100EB7D
:102FC000C00202EB001263689B00B2FBF3F26423C1
:102FD000B2FBF3F202EBC20303EB0212A1EB82019C
:102FE000322202EB01116422B1FBF2F101F0F00197
:102FF00000EBC00202EB001263689B00B2FBF3F22D
:103000006423B2FBF3F201EB021200EBC00101EB0F
:10301000001163689B00B1FBF3F100EBC00303EB0D
:1030200000136668B600B3FBF6F36426B3FBF6F351
:1030300003EBC30606EB0313A1EB8301322303EB7F
:1030400001116423B1FBF3F101F00F011144226877
:10305000916070BD003801402DE9F84304460D46EB
:1030600017469846089E31E0701C70B3FDF7E2FAEF
:10307000A0EB0800B04200D816B90320BDE8F883E1
:103080002068C06800F00400F8B1802D1ED0402DEB
:103090001CD020680068C0F3C000B0B100BF0020A1
:1030A000009020680068009020684068009000BF91
:1030B00000BF2046FFF71BFF0820606400BF002010
:1030C00084F8400000BF0120D8E7FFE720680068CF
:1030D0002840A84201D1012000E00020B842C3D01E
:1030E0000020CBE700BFFEE70FB4054B10B503A9E6
:1030F000044A029800F034F810BC5DF814FB00009C
:103100001D3C0008F000002002480068C0F30220C7
:10311000704700000CED00E010B5002804DB0A0742
:10312000130E054A135406E00A07140E034A00F072
:103130000F031B1FD45410BD00E400E018ED00E0A5
:1031400002E008C8121F08C1002AFAD17047704770
:10315000002001E001C1121F002AFBD170470000CE
:103160002DE9FF4F8DB00F460546002606E02528C5
:103170000BD0DDE90F1290476D1C761C28780028D3
:10318000F5D111B03046BDE8F08F0024A246A1462B
:103190000122E94900E0044315F8013F203B02FA0F
:1031A00003F00842F7D128782A2810D06FF02F02B8
:1031B0002878A0F13001092914D80AEB8A0102EB22
:1031C000410144F0020400EB010A6D1CF0E701CF5D
:1031D0005FEA000A03D544F40054CAF1000A44F03F
:1031E00002046D1C28782E2817D115F8010F44F021
:1031F00004042A280ED06FF02F022878A0F13001A5
:1032000009290AD809EB890102EB410100EB010908
:103210006D1CF2E757F8049B6D1C28786C280FD0C2
:1032200006DC4C2817D068280DD06A2814D104E099
:10323000742810D07A280FD10DE044F400140AE06D
:1032400044F4801401E044F440146978814202D1CE
:1032500004F580146D1C6D1C28786E281ED00CDCC3
:10326000632830D004DC00288BD0582811D19FE08F
:10327000642867D069280CD164E073282DD004DC61
:103280006F2872D0702804D194E075286ED0782809
:103290006DD0DDE90F129047761C4BE1C4F302506C
:1032A000022806D0032809D0042801CF09D00660DF
:1032B00040E101CFF117C0E900613BE101CF068099
:1032C00038E1067036E117F8040B8DF80000002095
:1032D0008DF80100EB46012003E057F804BB4FF0E6
:1032E000FF3061074FF0000102D40DE008F1010149
:1032F000884649450FDA8045F8DB1BF8081000299D
:10330000F4D108E008F1010188468142FADB1BF89C
:1033100008100029F6D1DDE90F23AAEB0800814649
:10332000214600F031F9304400EB080604E0DDE905
:103330000F121BF8010B9047B8F10108F7D2214694
:103340004846F2E00A21C4F302524FF0000B089104
:10335000022A04D001CFC117032A09D00AE0FF1DB9
:1033600027F00707F7E8020108E02CE01EE01FE065
:1033700000B2C117042A01D140B2C117021E71F177
:10338000000206DA0023D0EB030063EB01012D22DB
:1033900002E0220504D52B228DF82420012203E02F
:1033A000E20701D02022F7E7904653E00A210BE024
:1033B000102109E010214FF0000B44F004044FF0FD
:1033C0000809089103E008214FF0000B0891C4F3AD
:1033D0000252022A04D001CF0021032A06D006E0BF
:1033E000FF1D27F00707F7E8020103E080B2042A77
:1033F00000D1C0B24FF0000822072BD52A78702ADE
:1034000007D0DDF820C08CF0100C5CEA0B0C05D066
:103410000EE040228DF82420012208E050EA01034A
:1034200006D030238DF824308DF8252002229046D6
:10343000089B83F0080353EA0B030BD150EA010207
:1034400001D1620706D530228DF824204FF0010803
:10345000A9F101092A78582A04D038A20B9208AAA7
:103460000A920BE03AA2F9E75B46089AFCF7D5FE10
:103470000B9B9B5C0A9A521E0A92137050EA01023F
:10348000F2D10A98ADEB000000F1200B600702D5E5
:1034900024F4803401E04FF00109D94502DDA9EBA5
:1034A0000B0000E0002000EB0B0141440890AAEB68
:1034B000010AE00306D4DDE90F232146504600F05F
:1034C00063F806444FF0000908E009A911F8090063
:1034D000DDE90F12904709F10109761CC145F4DBC3
:1034E000E0030CD5DDE90F232146504600F04CF8EF
:1034F000064404E0DDE90F1230209047761C08995D
:10350000481E08900029F5DC08E00A980A9900781E
:10351000491C0A91DDE90F129047761CBBF10001AE
:10352000ABF1010BF1DC21465046DDE90F2300F041
:1035300019F806446D1C21E60928010030313233A8
:1035400034353637383961626364656600000000DF
:1035500030313233343536373839414243444546C9
:10356000000000002DE9F041044600251E461746E4
:10357000880404D405E039462020B0476D1C641E41
:10358000F9D52846BDE8F0812DE9F0410446002533
:103590001E469046C80301D5302700E02027880446
:1035A00004D505E041463846B0476D1C641EF9D588
:1035B0002846BDE8F08100007CB5224800F0CEFB33
:1035C0002F2121A0FCF71EFE28B12F211EA0FCF701
:1035D00019FE401C00E01CA005465C21FCF712FE11
:1035E00088B12F2118A0FCF70DFE28B12F2116A0BD
:1035F000FCF708FE401C00E013A005465C21FCF728
:1036000001FE401C0BE02F210FA0FCF7FBFD28B1B1
:103610002F210DA0FCF7F6FD401C00E00AA0044697
:103620000848B0F904000749B1F90210CDE90010CB
:103630000448B0F900301422214608A0FFF754FDD9
:103640007CBD0000EC4700206170705C6170705FB1
:10365000666C696768742E63000000005B25733A2E
:1036600025645D203A25642C2025642C2025640ADD
:103670000000000010B500F0C1FB10BD28B900210A
:10368000084A1170084A11700BE007490978491C73
:10369000054A1170114609780A2902DB0121014A05
:1036A00011707047B0000020D800002010B51B48F2
:1036B000007830B101280BD0022817D0032827D179
:1036C00022E000F073F910B901201449087023E0DA
:1036D0001348007810B10220104908701148007892
:1036E000012802D103200D49087015E00C4800782C
:1036F00010B10120094908700A480078012802D158
:1037000003200649087007E000200449087003E020
:1037100000200249087000BF00BF10BDB1000020AA
:10372000D0470020B00000202DE9F04786B07A484D
:1037300000F056FD8046B8F1000F03D0012006B01E
:10374000BDE8F08774480078AA2807D1724840780D
:10375000552803D17048807800283ED02F216FA0D3
:10376000FCF750FD28B12F216CA0FCF74BFD401C4D
:1037700000E06AA082465C21FCF744FD88B12F215D
:1037800066A0FCF73FFD28B12F2164A0FCF73AFDAD
:10379000401C00E061A082465C21FCF733FD401C28
:1037A0000BE02F215DA0FCF72DFD28B12F215BA0A0
:1037B000FCF728FD401C00E058A081465648807860
:1037C00055494978CDE900105348037820224946ED
:1037D00057A0FFF789FC0120B1E70024002004E096
:1037E0004D49095C0C44411CC8B20D28F8DB00258A
:1037F000494E0D363568AC4238D02F2147A0FCF732
:1038000001FD28B12F2145A0FCF7FCFC401C00E085
:1038100042A082465C21FCF7F5FC88B12F213FA035
:10382000FCF7F0FC28B12F213CA0FCF7EBFC401C7E
:1038300000E03AA082465C21FCF7E4FC401C0BE06F
:103840002F2136A0FCF7DEFC28B12F2133A0FCF796
:10385000D9FC401C00E031A0814623463022494675
:103860003EA00095FFF740FC012068E701F0A2F9B7
:10387000294FFF1C454839680160796841603989E2
:10388000018101F0A9F92F2124A0FCF7BBFC28B18C
:103890002F2122A0FCF7B6FC401C00E01FA08246AE
:1038A0005C21FCF7AFFC88B12F211CA0FCF7AAFC1F
:1038B00028B12F2119A0FCF7A5FC401C00E017A09F
:1038C00082465C21FCF79EFC401C0BE02F2113A0DC
:1038D000FCF798FC28B12F2110A0FCF793FC401CAA
:1038E00000E00EA081462948407828490978274AF7
:1038F000D288264B9B88CDE90132CDE903102348BD
:1039000000890090214843883D22494620A0FFF7C6
:10391000EBFB002013E70000DA4700206170705CC9
:103920006170705F726563765F646174612E6300BD
:103930005B25733A25645D206672616D652068655C
:103940006164206572726F722C20253032782C20D1
:10395000253032782C20253032780A005B25733AE6
:1039600025645D20636865636B2073756D206572E7
:10397000726F722C206373756D3A2025642C20724F
:1039800073756D3A2025640A00000000D0470020BE
:103990005B25733A25645D203A25642C25642C252B
:1039A000642C25642C25642C25640A0010B531484C
:1039B0000078052856D2DFE800F0031025315100C9
:1039C0002D484088B0F5617F06DB01202949087049
:1039D00001F024FB2949086048E027484088B0F5F9
:1039E000617F0EDA01F01AFB24490968401AB0F52C
:1039F0007A7F03D302201F49087002E000201D498E
:103A0000087033E01C484088642806DC032019490C
:103A1000087001F003FB1A49086027E01648408847
:103A200064280BDD01F0FAFA15490968401AB0F56F
:103A30007A7F03D200200F4908700EE00E484088BC
:103A400064280ADC01F0EAFA0D490968401AB0F569
:103A50007A7F02D304200749087007E00020054957
:103A6000087010BD00200749087000BF00BF01208A
:103A7000F7E70000CC000020D0470020D000002055
:103A8000D4000020B10000201CB52F212AA0FCF793
:103A9000B9FB28B12F2128A0FCF7B4FB401C00E0A3
:103AA00025A005465C21FCF7ADFB88B12F2122A0A3
:103AB000FCF7A8FB28B12F211FA0FCF7A3FB401C9B
:103AC00000E01DA005465C21FCF79CFB401C0BE0C0
:103AD0002F2119A0FCF796FB28B12F2116A0FCF787
:103AE00091FB401C00E014A004467822214616A059
:103AF000FFF7FAFA01F092FA01901BE0FFF714FECB
:103B000004462046FFF7BAFD16484078012808D140
:103B1000002002230246014600901348006801F08D
:103B2000C7F9FFF7C3FD00BF062101A801F086F920
:103B300000BF00BFE2E700006170705C6170705F01
:103B40007461736B2E6300005B25733A25645D20FE
:103B5000636F6D6D756E69636174655F7461736BBE
:103B600000000000D0470020BC00002008B52F2135
:103B700021A0FCF747FB28B12F211FA0FCF742FB37
:103B8000401C00E01CA005465C21FCF73BFB88B113
:103B90002F2119A0FCF736FB28B12F2116A0FCF726
:103BA00031FB401C00E014A005465C21FCF72AFB19
:103BB000401C0BE02F2110A0FCF724FB28B12F2183
:103BC0000DA0FCF71FFB401C00E00BA00446672281
:103BD00021460DA0FFF788FA01F020FA0090FFF7C8
:103BE00049FD07E0FFF7E8FC00BF0621684601F049
:103BF00025F900BFF6E700006170705C6170705FCE
:103C00007461736B2E6300005B25733A25645D203D
:103C1000666C696768745F7461736B0013B50C46FA
:103C20004FF47A73012269460248FEF7DBF90098E7
:103C30001CBD0000C002002010B5002204210E4867
:103C4000FCF7F2FC642001F009F8012204210A4883
:103C5000FCF7EAFCC82001F001F800220421064824
:103C6000FCF7E2FC642000F0F9FF01220421024885
:103C7000FCF7DAFC10BD0000000C014010B500227A
:103C800004210648FCF7D0FC642000F0E7FF012285
:103C900004210248FCF7C8FC10BD0000000C0140E4
:103CA00010B50446A18801222068FCF7BDFC10BDB8
:103CB00010B50446A18800222068FCF7B5FC10BDB1
:103CC00010B50446A1882068FCF7A4FC10BD0000D4
:103CD0001CB5044600200190009001A93B2000F093
:103CE000C5F869463C2000F0C1F89DF800009DF839
:103CF000041040EA012016490988401A00B22080C9
:103D000001A93D2000F0B2F869463E2000F0AEF86F
:103D10009DF800009DF8041040EA01200D49098833
:103D2000401A00B2608001A93F2000F09FF8694668
:103D3000402000F09BF89DF800009DF8041040EA38
:103D4000012005490988401A00B2A0801CBD00006E
:103D5000E4000020E6000020E800002010B5044642
:103D60002046FFF7B5FFA01D00F002F810BD0000CF
:103D70001CB5044600200190009001A9432000F0EA
:103D800075F86946442000F071F89DF800009DF830
:103D9000041040EA012016490988401A00B2208028
:103DA00001A9452000F062F86946462000F05EF85F
:103DB0009DF800009DF8041040EA01200D49098893
:103DC000401A00B2608001A9472000F04FF8694610
:103DD000482000F04BF89DF800009DF8041040EAE0
:103DE000012005490988401A00B2A0801CBD0000CE
:103DF000EA000020EC000020EE00002008B5802141
:103E00006B2000F045F80020009003E069466B202D
:103E100000F02CF89DF800004028F7D101216B201C
:103E200000F036F818211B2000F032F800211C2089
:103E300000F02EF80021382000F02AF800216A2036
:103E400000F026F80021232000F022F8012119209B
:103E500000F01EF801211A2000F01AF800216C2051
:103E600000F016F800F028F808BD00003EB5044642
:103E70000D464FF47A7001210B462246CDE90051E0
:103E80000290D1210148FCF7C3FC3EBDF4000020A4
:103E900013B584B004464FF47A70012105AA0B468D
:103EA000CDE9002102902246D0210248FCF76AFEAB
:103EB00006B010BDF40000202DE9F04F87B00020BF
:103EC0000590069003900490009001900290824625
:103ED00005A8FFF7FDFE34E003A8FFF7F9FEBDF9E2
:103EE0000C00BDF91410401AB0F5967F01DA0120DC
:103EF00000E00020E0B1BDF90E00BDF91610401A37
:103F0000B0F5967F01DA012000E0002080B1BDF914
:103F10001000BDF91810401AB0F5967F01DA0120A3
:103F200000E0002020B10AF1010000F0FF0A01E0EA
:103F30004FF0000ADDE90301CDE90501062000F09C
:103F40008DFEBAF1640FC7DB002400250026002790
:103F5000A046A146A3461DE06846FFF7FFFEBDF957
:103F600000000444BDF902000544BDF90400A0F5B9
:103F700080400644BDF906000744BDF908008044AE
:103F8000BDF90A008144062000F068FE0BF1010033
:103F900000F0FF0BBBF1640FDEDB642094FBF0F05C
:103FA00000B211490880642095FBF0F000B20F497F
:103FB0000880642096FBF0F000B20D490880642070
:103FC00097FBF0F000B20B490880642098FBF0F0FA
:103FD00000B209490880642099FBF0F000B207495B
:103FE000088007B0BDE8F08FE4000020E600002064
:103FF000E8000020EA000020EC000020EE00002095
:1040000010B505220E49102000F07EF805220D495A
:10401000302000F0FFF805220949102000F074F864
:10402000002109E00648405C064A525C904201D0FB
:10403000012010BD481CC1B20529F3DB0020F8E7C0
:10404000DE000020D900002070B5C820FCF73EF942
:1040500002E00A20FCF73AF9FFF7D2FF0028F8D176
:1040600000F08CF82F211AA0FCF7CCF828B12F21F2
:1040700017A0FCF7C7F8401C00E015A005465C211E
:10408000FCF7C0F888B12F2111A0FCF7BBF828B1CC
:104090002F210FA0FCF7B6F8401C00E00CA005464D
:1040A0005C21FCF7AFF8401C0BE02F2108A0FCF7C7
:1040B000A9F828B12F2106A0FCF7A4F8401C00E0C5
:1040C00003A00446E622214607A0FFF70DF870BDC5
:1040D000696E746572666163655C696E745F73694D
:1040E000323472312E6300005B25733A25645D2003
:1040F00053493234523120496E69742053756363D9
:104100006573730A000000002DE9F04107460D4673
:104110001646002210210C48FCF786FA3846FEF7B6
:10412000F1FC8046002405E00020FEF7EBFC28555A
:10413000601CC4B2B442F7DB012210210248FCF734
:1041400073FA4046BDE8F0810008014070B50446AE
:10415000002210210848FCF767FA2046FEF7D2FC3F
:104160000020FEF7CFFC0546012210210248FCF793
:104170005BFA284670BD00000008014010B500221F
:104180004FF480711448FCF74FFA052213492A2096
:1041900000F040F80121212000F05EF801212220EA
:1041A00000F05AF82821252000F056F8112131207E
:1041B00000F052F80F21262000F04EF80F212020A9
:1041C00000F04AF8FF21272000F046F801221102F2
:1041D0000148FCF729FA10BD00080140D900002071
:1041E00070B504460720FFF7B1FF05462946272092
:1041F00000F032F805F0400050B111222146612054
:10420000FFF782FFFF21E22000F026F8002070BDBA
:104210000120FCE72DE9F04107460C461546002237
:1042200010210C48FCF700FA3846FEF76BFC80467C
:10423000002605E014F8010BFEF764FC701CC6B202
:10424000AE42F7DB012210210248FCF7EDF94046AF
:10425000BDE8F0810008014070B505460C4600221B
:1042600010210848FCF7E0F92846FEF74BFC06460B
:104270002046FEF747FC012210210248FCF7D4F942
:10428000304670BD0008014008B52F2147A0FBF75C
:10429000B9FF28B12F2145A0FBF7B4FF401C00E077
:1042A00042A006465C21FBF7ADFF88B12F213FA05D
:1042B000FBF7A8FF28B12F213CA0FBF7A3FF401C70
:1042C00000E03AA006465C21FBF79CFF401C0BE097
:1042D0002F2136A0FBF796FF28B12F2133A0FBF743
:1042E00091FF401C00E031A005469822294633A0EA
:1042F000FEF7FAFE00F092FE0090002455E0601CEC
:10430000C4B23348007830B93248FFF7D1FC3248A4
:10431000FFF7CEFC05E02F48FFF7C2FC2E48FFF761
:10432000BFFC2E48007830B1012811D002281DD0E2
:10433000032829D121E0052094FBF0F100FB114076
:1043400028B92748FFF7BCFC2648FFF7B9FC22E054
:10435000204604EBD0714910A4EB410129B9204853
:10436000FFF7AEFC1F48FFF7ABFC14E01C48FFF75B
:104370009FFC1C48FFF79CFC0DE01948FFF790FCE0
:104380001848FFF78DFC06E01548FFF789FC154833
:10439000FFF786FC00BF00BF0A2C00D100BF00BFA2
:1043A0006421684600F04AFD00BFA8E76170705CB8
:1043B0006170705F7461736B2E6300005B25733AEC
:1043C00025645D206C65645F7461736B00000000A0
:1043D000B000002090000020A0000020B1000020CC
:1043E00098000020A8000020FCF7C4FCFEF712FC97
:1043F000FEF720F9FEF730FBFEF7CCF9FEF736FAB0
:10440000FEF786FAFEF7D6FAFEF7A2F9FEF782F972
:10441000FFF71AFE00F0F4FA00BFFEE72F2122A0FA
:10442000FBF7F0FE28B12F211FA0FBF7EBFE401C8D
:1044300000E01DA005465C21FBF7E4FE88B12F21BA
:1044400019A0FBF7DFFE28B12F2117A0FBF7DAFE3A
:10445000401C00E014A005465C21FBF7D3FE401C85
:104460000BE02F2110A0FBF7CDFE28B12F210EA0CD
:10447000FBF7C8FE401C00E00BA004465422214676
:104480000DA0FEF731FE0DE042F210720121002076
:1044900000F00EFB044614B1FFF7CEFB01E0FFF77E
:1044A000EDFB00BFF0E700006170705C6170705F51
:1044B0007461736B2E6300005B25733A25645D2085
:1044C000706F7765725F7461736B00002DE9F04166
:1044D00005460E462648076826480068001D00F07D
:1044E0002BFB50B92348006890F82C10012088401D
:1044F00021490968814320480160681CD8B9D6B1B8
:104500001E4948681B49096888601A498268096819
:10451000CA6018490968091D82685160154909680F
:10452000091D8160154A134909684A6111460968E5
:10453000491C11601AE07C190E4800684460BC42B6
:1045400007D20C480168091D0D48006800F018FBEF
:104550000CE008480168091D0A48006800F010FBDB
:1045600009480068844201D207480460BDE8F08130
:10457000240000201000002028000020BC030020A0
:1045800018000020140000204000002010B5044650
:1045900000F010FB2F480068401C2E4908602E4890
:1045A000006840B92C4804600846006801280DD115
:1045B00000F016F90AE02948006838B92648006872
:1045C000C06AE16A884201D8234804602448006830
:1045D000401C2349086094F82C1001208840214990
:1045E000096808431F490860E16A01EB81011E4A1E
:1045F00002EB81014868A0608268E260211D826848
:1046000051608160E16A01EB8101174A02EB81028E
:104610006261E16A01EB8101134A52F82110491CE1
:10462000E26A02EB8202104B43F8221000F0D4FA47
:104630000A48006868B108480068C06AE16A8842B0
:1046400007D24FF0805009490860BFF34F8FBFF386
:104650006F8F10BD20000020100000202C000020D3
:104660003C000020280000200803002004ED00E0AA
:1046700010B516E000F09EFA0C48C068C468201D12
:1046800000F05AFA0A480068401E094908600948C3
:104690000068401E0749086000F09EFA204600F0BE
:1046A0000BF8044800680028E4D110BDA8030020DE
:1046B000200000201C00002010B50446206B00F0F4
:1046C0009BFA204600F098FA10BD000030B54FF478
:1046D0008843154800F007042CB1C01D20F00700E6
:1046E000114C041B1B1B0246104C226000240F4D72
:1046F0006C60D018083820F007000D4C20600024B2
:104700000B4D2D686C600A4D2D682C601146441AC3
:104710004C60074C24680C60064D4C682C60064DBC
:104720004C682C6030BD0000D003002050000020F9
:1047300058000020600000205C00002000BFFFF750
:1047400097FF064800680128F9D94FF080500449C6
:104750000860BFF34F8FBFF36F8FF0E708030020AF
:1047600004ED00E02DE9FF5F80460E469146DDE94D
:104770000E7A109CA9F10100216B01EB800B2BF04C
:10478000070B7EB1002507E0715D04F1340041554F
:10479000705D00B902E06D1C102DF5D300BF002143
:1047A00043200155052F00D30427E762201D00F0A8
:1047B000E4F904F1180000F0E0F92461C7F1050004
:1047C000A061646241465846039A00F007F92060F0
:1047D000BAF1000F01D0CAF80040BDE8FF9F000009
:1047E00010B5002407E004EB84010F4A02EB8100BE
:1047F00000F0B6F9641C052CF5D30C4800F0B0F9B4
:104800000B4800F0ADF90B4800F0AAF90A4800F097
:10481000A7F90A4800F0A4F90448094908600448C7
:104820000849086010BD0000080300206C03002048
:104830008003002094030020A8030020BC03002074
:10484000140000201800002010B50146164800E0B2
:10485000006803688B42FBD30246436813448B42D3
:1048600004D143684C682344436001460A464B68C0
:1048700013440468A34211D10C4C03682468A3427A
:1048800008D04B680468646823444B6003681B6865
:104890000B6005E0054B1B680B6001E003680B60D3
:1048A000884200D0016010BD500000205800002058
:1048B00009480068006808B9012000E0002020B124
:1048C0004FF0FF300549086005E003480068C06804
:1048D0000068024908607047140000204000002072
:1048E00000BFBF2080F31188BFF34F8FBFF36F8FDE
:1048F00000BF00BFFEE700002DE9F04705464FF07E
:10490000000900F0FBF93048006808B9FFF7DEFE47
:1049100075B105F00700C0F11008C8F1FF30A842DA
:1049200001D2012000E0002008B9454400E0002544
:10493000012000EBE570002841D0002D3FD0234836
:10494000006885423BD8224E3046046801E0264686
:1049500024686068A84202D220680028F7D11A486B
:10496000006884422BD0306800F10809206830606C
:104970006068401B102807D967196068401B786081
:1049800065603846FFF760FF104960680968081ADB
:104990000E490860084600680E490968884203D23B
:1049A0000A4800680B490860606840F00040606099
:1049B0000020206008480068401C0749086000F09B
:1049C000FBFB4846BDE8F087580000205C00002053
:1049D000500000206000002064000020001F4FF005
:1049E00080730360001F21F001030360001F034B6D
:1049F000036014380260203870470000E148000866
:104A00001CB51548042100238022CDE9001013A114
:104A1000154800F0DFF91548032100238022CDE975
:104A2000001013A1154800F0D5F915480221002304
:104A30008022CDE9001013A1174800F0CBF91748E8
:104A4000012100238022CDE9001015A1174800F0B4
:104A5000C1F900F01DF91CBDBC000020706F776526
:104A6000725F7461736B00001D440008C000002079
:104A7000666C696768745F7461736B006D3B0008F6
:104A8000C4000020636F6D6D756E69636174655F4E
:104A90007461736B00000000893A0008C8000020B0
:104AA0006C65645F7461736B0000000089420008EC
:104AB0002DE9F04104460F46164600F07BF81C48ED
:104AC0000068443050F8240080B90121184800687B
:104AD0004830015556B13046FFF7F8FC4FF0805092
:104AE00014490860BFF34F8FBFF36F8F00F074F865
:104AF00000F060F80E480068443050F824506DB162
:104B000037B100210A480068443040F8241005E01D
:104B1000681E07490968443141F82400002104480F
:104B200000684830015500F057F82846BDE8F0818C
:104B30001000002004ED00E001460A69D1E90130CF
:104B40009860D1E9010358605068884201D18868B3
:104B50005060002008611068401E106010687047A7
:104B600000F1080141604FF0FF31816000F1080160
:104B7000C16001610021016070470021016170473F
:104B800010B502460B685C1C0CB9106907E002F115
:104B9000080000E04068446824689C42FAD94468F0
:104BA0004C604C68A160886041600A611468641CB4
:104BB000146010BD00BFBF2080F31188BFF34F8F7A
:104BC000BFF36F8F00BF03480068401C01490860B5
:104BD000704700006C00002006480068401E054930
:104BE00008600846006820B9002080F3118800BFE3
:104BF00000BF70476C00002070B506463546E6B130
:104C0000083D2C466068C00FB8B12068A8B960683C
:104C100020F00040606000F071F8084960680968A1
:104C20000844064908602046FFF70EFE0448006865
:104C3000401C0349086000F0BFFA70BD5C00002012
:104C40006800002000204FF0E021086188610248E0
:104C500048610720086170473F19010070B504469C
:104C6000002544B100F04AF800212046FFF72EFC51
:104C700000F0A2FA05463DB94FF0805003490860A4
:104C8000BFF34F8FBFF36F8F70BD000004ED00E0E6
:104C90001CB5124800210B468022CDE9001010A15E
:104CA000114800F097F80446012C14D100BFBF2032
:104CB00080F31188BFF34F8FBFF36F8F00BF4FF0AA
:104CC000FF300A49086001200949086000200949AD
:104CD000086000F04BF8084800681CBD4400002044
:104CE00049444C45000000003D47000840000020BA
:104CF0002C0000202400002048000020024800680A
:104D0000401C0149086070474C00002012480068B0
:104D100018B10120114908601DE000200F4908600A
:104D20000F480068B0FA80F0C0F11F0101EB81026A
:104D30000C4B03EB820042685268426000F10802AB
:104D40004368934202D14268526842604268D26826
:104D5000054B1A6000BF70474C0000203400002053
:104D600028000020080300201000002010B50A4889
:104D7000006840F47F00084908600846006840F079
:104D80007F400860FFF75EFF002004490860FBF7E2
:104D9000CBF9002010BD000020ED00E06C000020E9
:104DA00010B500BFBF2080F31188BFF34F8FBFF352
:104DB0006F8F00BF00F038F918B14FF080500449F0
:104DC000086000BF002080F3118800BF10BD000004
:104DD00004ED00E02DE9FF4F85B080468946174677
:104DE000DDE912ABB800FFF787FD064676B14C202F
:104DF000FFF782FD04462CB14C212046FBF7F7F962
:104E0000266304E03046FFF7F7FE00E000247CB1A3
:104E10000020CDE900ABCDE902403A464946404684
:104E2000089BFFF79FFC2046FFF7B0FB012501E040
:104E30004FF0FF35284609B0BDE8F08F2DE9F04767
:104E4000044688464FF00009FFF758FF16480668E9
:104E5000206800EB08052068B04207D92068A84206
:104E60000BD9B54209D94FF0010906E02068A842E4
:104E700001D8B54201D94FF001092560B9F1000F01
:104E800003D0A81B0021FFF721FB00F095F907468E
:104E90003FB94FF0805005490860BFF34F8FBFF313
:104EA0006F8F4846BDE8F0872400002004ED00E045
:104EB0002DE9F05F81460D4616461F46DDF828A015
:104EC0004FF0010B4C46FFF775FEBAF1000F05D00D
:104ED00004F1440050F82500CAF8000004F148002D
:104EE00010F8058002214155052F29D2DFE807F08F
:104EF00027030D171C0004F1440050F8250030432F
:104F000004F1440141F825001BE004F1440050F88D
:104F10002500401C04F1440141F8250011E004F192
:104F2000440040F825600CE0B8F1020F04D004F111
:104F3000440040F8256001E04FF0000B01E000E084
:104F400000BF00BFB8F1010F4AD16069D4E9021275
:104F50008A60D4E902214A60211D42688A4201D157
:104F6000E1684160002262610168491E016094F8B5
:104F70002C10012088401D49096808431B4908601E
:104F8000E16A01EB81011A4A02EB81014868A060E5
:104F90008268E260211D826851608160E16A01EBF4
:104FA0008101134A02EB81026261E16A01EB810136
:104FB0000F4A52F82110491CE26A02EB82020C4BA4
:104FC00043F822100B49E06A0968C96A884207D988
:104FD0004FF0805008490860BFF34F8FBFF36F8FC9
:104FE000FFF7FAFD5846BDE8F09F000028000020BA
:104FF000080300201000002004ED00E005490968C6
:1050000009B9012005E00449096809B9022000E056
:10501000002070472C0000204C0000200149086847
:1050200070470000240000202DE9F0410027574878
:10503000006800287ED156480068451C5448056029
:105040008DB95448D0F80080534800685149086031
:105050005148C0F8008051480068401C4F49086022
:10506000FFF726FC00BF4E480068854276D300BF9C
:1050700048480068006808B9012000E0002020B11D
:105080004FF0FF304649086067E042480068C0685A
:10509000C4686668B54202D2414806605DE0606956
:1050A000D4E902128A60D4E902214A60211D4268D3
:1050B0008A4201D1E1684160002262610168491EB3
:1050C0000160A06A98B1A06AD4E907128A60D4E9A5
:1050D00007214A6004F1180142688A4201D1216A1D
:1050E00041600022A2620168491E016000BF94F87D
:1050F0002C10012088402B49096808432949086081
:10510000E16A01EB8101284A02EB81014868A06055
:105110008268E260211D826851608160E16A01EB72
:105120008101214A02EB81026261E16A01EB8101A6
:105130001D4A00E022E052F82110491CE26A02EB0D
:105140008202194B43F822101849E06A0968C96ABB
:1051500088428DD901278BE700E000BF1348006823
:10516000C06A00EB8000104951F82000012800D9E6
:1051700001270F48006800B1012704E00D480068CE
:10518000401C0C4908603846BDE8F0814C00002006
:105190002400002014000020180000203800002007
:1051A00040000020280000200803002010000020FC
:1051B000340000203000002070B500240026FFF7E6
:1051C000F9FC4B480068401E4949086008460068E1
:1051D00000287DD147480068002879D05BE0464828
:1051E000C068C468A06AD4E907128A60D4E90721BC
:1051F0004A6004F1180142688A4201D1216A416083
:105200000022A2620168491E01606069D4E90212AD
:105210008A60D4E902214A60211D42688A4201D194
:10522000E1684160002262610168491E016094F8F2
:105230002C10012088403149096808432F49086033
:10524000E16A01EB81012E4A02EB81014868A0600E
:105250008268E260211D826851608160E16A01EB31
:105260008101274A02EB81026261E16A01EB81015F
:10527000234A52F82110491CE26A02EB8202204BB9
:1052800043F822101F49E06A0968C96A884202D3BC
:1052900001201D4908601848006808B9012000E095
:1052A000002000289BD00CB1FFF702FB17480568CF
:1052B00065B100BFFFF7B8FE10B1012012490860C8
:1052C0006D1E002DF6D10020104908600E4800E048
:1052D00009E0006838B1012630070D490860BFF3C6
:1052E0004F8FBFF36F8FFFF777FC304670BD000024
:1052F0004C00002020000020940300202800002003
:10530000080300201000002034000020300000209E
:1053100004ED00E002030405060708090A0B0C0D62
:105320000E0F10100102000000000000000001023A
:10533000030406070809000000000102030400003E
:105340006053000800000020F40000004031000815
:1053500054540008F4000020044B000050310008B1
:1053600000000000100000000100000000127A00A0
:10537000000000000000000000000000000000002D
:10538000000000000000000000000000000000001D
:10539000000000000000000000000000000000000D
:1053A00000000000000000000400000000000000F9
:1053B00000000000000000000000000000000000ED
:1053C000000000000000000000000000AAAAAAAA35
:1053D0003002002000000000780200200C000000D5
:1053E000E801002004000000A001002008000000E7
:1053F0000008014000100000000C014000400000C7
:105400000008014000080000000C0140008000007E
:10541000010000000000000000000000000000008B
:10542000000000000000000000000000000000007C
:105430000000000000000000000A06030201000056
:10544000000000000000000000000000000000005C
:045450000000000058
:04000005080000ED02
:00000001FF
