:020000040800F2
:10000000E84D00209D010008453D00081B33000815
:10001000413D0008910B0008094400080000000061
:1000200000000000000000000000000005010008C2
:100030000D1400080000000049010008013F0008FD
:10004000B7010008B7010008B7010008B7010008B0
:10005000B7010008B7010008B7010008B7010008A0
:10006000B7010008B7010008B7010008B701000890
:10007000B7010008B7010008B7010008B701000880
:10008000B7010008B7010008B7010008B701000870
:10009000B7010008B7010008B7010008B701000860
:1000A000B7010008B7010008B7010008B701000850
:1000B000B7010008B7010008B7010008B701000840
:1000C000B7010008B7010008B7010008B701000830
:1000D000B7010008B7010008B7010008B701000820
:1000E000B7010008B7010008B7010008DFF810D019
:1000F00000F0B4FC00480047A16B0008AFF300809B
:10010000E84D0020224B19680868B0E8F00F80F332
:100110000988BFF36F8F4FF0000080F311884EF015
:100120000D0E70470000000006480068006880F36C
:10013000088862B661B6BFF34F8FBFF36F8F00DFE1
:1001400000BF00BF08ED00E0EFF30980BFF36F8F41
:100150000F4B1A6820E9F00F106008B54FF0BF0090
:1001600080F31188BFF34F8FBFF36F8F07F0D2F981
:100170004FF0000080F31188BDE808401968086856
:10018000B0E8F00F80F30988BFF36F8F704700BFAE
:1001900088000020EFF30580704700000648804784
:1001A00006480047FEE7FEE7FEE7FEE7FEE7FEE75C
:1001B000FEE7FEE7FEE7FEE77B3F0008ED000008F4
:1001C000202A04DB203A21FA02F00021704721FAAC
:1001D00002F3D040C2F12002914008431946704713
:1001E000D2B201E000F8012B491EFBD27047002279
:1001F000F6E710B513460A4604461946FFF7F0FF26
:10020000204610BD0022CBB20178994200D10246AF
:10021000401C0029F8D110467047F0B480EA010272
:10022000D40F4200B2EB410F02D2024608461146FB
:100230004A0042D0C30DDDB2C1F3C752AD1A202D22
:1002400035DAC1F3160141F4000204B15242C5F19E
:10025000200602FA06F12A411044B3EBD05F23D006
:10026000C4B1012DA0EBC35009DCF0BC4FF000423B
:1002700002EAC352DBB200F5000000F04CBB4000C4
:1002800000F1807000EBC350A0F1807040EAD170A3
:10029000490009E0490841EAC071A0EBC35000F5EC
:1002A0000000400800EBC350F0BC00F02BBB6142E3
:1002B000012202EB4101001BF6E7F0BC704781F020
:1002C0000041AAE780F00040A7E780EA010210B5EC
:1002D00002F00043400022D04A001FD0010E01EB83
:1002E0001261C0F35600C2F3560240F4000042F41B
:1002F0000002A0FB022000047F39140400D0401C3F
:1003000050EA124001D44000491EC2B20C0604EB70
:10031000D010401C4008802A02D003E0002010BD0D
:1003200020F00100002900DA0020184310BD30B48D
:1003300080EA010202F0004530F0004221F0004066
:1003400013D090B1C30DD40DC2F31601C0F3160043
:10035000E41A41F4000140F400027D34914201D3DB
:10036000641C00E04900002C02DA30BC0020704719
:100370004FF400000023914201D3891A034340083F
:100380004FEA4101F7D151B1914202D14FF0004102
:1003900005E002D24FF0010101E06FF0010103EB33
:1003A000C450284430BC00F0ADBA2DE9FE4F804661
:1003B00081EA0300C00F0C46009021F0004123F0B9
:1003C0000045B8EB0200A94105D2404621469046BF
:1003D0001C460B46024623F00040104347D0270D31
:1003E000C7F30A00C3F30A510290401A0190402853
:1003F0006BDAC3F3130040F4801B0098924620B1DF
:100400000023D2EB030A63EB0B0B01985946C0F1B2
:100410004002504600F055FA06460D4650465946F1
:10042000019A00F05DFA10EB08006141002487EAB0
:10043000115284EAE7731A4340D0009A62B3019ADA
:10044000012A4FEA075215DC001B61EB02014FF055
:10045000004202EA0752CDE90042001C41F580113A
:1004600032462B4600F094FA03B0BDE8F08F4046C8
:100470002146F9E7001B61EB0201001C41F58013E6
:1004800000185B412018A2F5001747EB030140EA72
:10049000D570B6196D4111E06D084FEA360645EA90
:1004A000C0754FEA0752001B61EB0201001C41F5C9
:1004B000801149084FEA30000019514132462B465D
:1004C00003B0BDE8F04F00F054BA0098012240009C
:1004D0000023D0EB020263EBE073009821464FEA61
:1004E000E074B8EB000061EB0401E9E783F000433E
:1004F0005BE781F0004158E72DE9FE4F81EA0304F4
:1005000004F0004421F0004100944FF0000B23F070
:10051000004350EA01045ED052EA03045BD0C3F307
:100520000A54C1F30A552C44A4F2F3340194A0FBFD
:100530000254C1F3130141F48011C3F3130343F4D4
:10054000801301FB024400FB034E840A970A44EA2D
:10055000815447EA8357A4FB076802958D0A05FB7F
:1005600007854FEA932C04FB0C542705029D4FEAA4
:10057000065847EA1637B5EB08056EEB070C870EF1
:10058000920E47EA811742EA8312A7FB0201B6EBFB
:100590000B0164EB00042B0D43EA0C335E1844EBB3
:1005A0001C50DA465146E7FB0201C5F313044FEA3B
:1005B0000B3343EA14534FEA0432019C43EA060327
:1005C000A4F10C040294009CCDE900B400F0E0F921
:1005D00003B0BDE8F08F00200146F9E72DE9F04DAA
:1005E00081EA030404F0004B21F0004514464FF06B
:1005F000000A23F0004150EA050220D054EA01022B
:100600001DD0C5F30A570246C5F31303C1F3130007
:10061000C1F30A5640F4801543F48013A7EB060893
:10062000101BD64608F2FD3873EB050002D308F123
:10063000010801E092185B41B8F1000F03DA0020D5
:100640000146BDE8F08D00204FF480110646844637
:100650000EE0171B73EB050705D3121B63EB0503B5
:1006600006434CEA010C49084FEA300092185B41FE
:1006700050EA0107EDD152EA030012D082EA0400E9
:1006800083EA0501084305D0101BAB4106D20122C5
:10069000002306E000224FF0004302E06FF0010269
:1006A00053101AEB06004CEB085110EB0A0041EB1B
:1006B0000B01BDE8F04D00F05CB9C10F80EAE070BD
:1006C0000844CA079623002100F025B9962300228A
:1006D000114600F020B90EB5C10F80EAE070084461
:1006E000CA07002140F233438DE80E000A460B464C
:1006F00000F04EF903B000BD0EB540F23341029157
:100700000021CDE900110A460B4600F041F903B083
:1007100000BD20F00040C10DC0F3160040F4000001
:100720007F2901DA00207047962903DCC1F1960188
:10073000C840704796398840704770B5C1F30A5277
:1007400001F000450024C1F3130140F2FF3341F4EE
:1007500080119A4201DA002070BD40F233439A4280
:10076000A2F2334203DC5242FFF72AFD00E0904040
:100770002C43F1D0404270BDC1F30A5210B5C1F311
:10078000130140F2FF3341F480119A4201DA002054
:1007900010BD40F233439A42A2F2334203DC52428C
:1007A000FFF70EFD10BD904010BD00F0004230F08C
:1007B00000400AD0C10D01F56071C0F3160042EA95
:1007C0000151C2084007114370470020014670479D
:1007D00030B5041E71F1000404DB4FF000444042C8
:1007E00064EB0101141E73F1000405DB1C464FF09D
:1007F0000043524263EB04038B4208BF824230BD88
:1008000001F0004330B421F0004150EA010206D06B
:100810000A0DA2F56072C1F31301002A02DC30BC9C
:1008200000207047440F44EAC104C100E01830BC06
:1008300000EBC25000F066B8002801DBC0F10040B8
:10084000002901DBC1F1004181427047002801DB32
:10085000C0F10040002901DBC1F10041884270472E
:100860002DE9F05F0546002092469B4688460646E5
:10087000814640241BE02846414647462246FFF772
:100880009FFC53465A46C01A914110D31146184650
:10089000224600F016F82D1A67EB01084F46224653
:1008A0000120002100F00DF817EB00094E41201E39
:1008B000A4F10104DFDC484631462A464346BDE840
:1008C000F09F202A04DB203A00FA02F10020704752
:1008D0009140C2F1200320FA03F31943904070477E
:1008E000202A06DBCB17203A41FA02F043EAE073F4
:1008F00006E041FA02F3D040C2F1200291400843E1
:10090000194670470029A8BF7047401C490008BF1E
:1009100020F00100704710B4B0FA80FC00FA0CF02F
:1009200050EA010404BF10BC704749B1CCF1200467
:1009300021FA04F411FA0CF118BF012121430843F4
:10094000A3EB0C01CB1D4FEA00614FEA102042BF20
:10095000002010BC704700EBC35010440029A4BF16
:1009600010BC7047401C490008BF20F0010010BCBB
:10097000704710B5141E73F1000408DA401C41F1F1
:10098000000192185B411A4301D120F0010010BD13
:100990002DE9F04D92469B4611B1B1FA81F202E089
:1009A000B0FA80F220329046FFF78BFF04460F46E4
:1009B00040EA0A0041EA0B0153465A46084313D065
:1009C000114653EA010019D0C8F140025046FFF722
:1009D000F7FB05460E46504659464246FFF771FF63
:1009E000084305D0012004E020463946BDE8F08DDB
:1009F0000020054346EAE0762C4337430A98630516
:100A0000E40AA0EB08000022FD0A44EA47540A3039
:100A100002D500200146E9E7010510196941DDE929
:100A2000084500196941BDE8F04DA2E770B521F015
:100A3000004303430CD0C1F30A550024D5EB040551
:100A400064EB0403D617AD1AB34102DB0020014664
:100A500070BD201841EB025170BD0000064C074DDF
:100A600006E0E06840F0010394E80700984710347E
:100A7000AC42F6D3FFF73EFB107C0008307C000848
:100A8000420005D0C0F3C7525242914201DC00201F
:100A9000704700EBC15070472DE9F04D00231A4616
:100AA0001B1A8A4103DB00200146BDE8F08DC1F32B
:100AB0000A52C1F3130141F480154FF0000BD10726
:100AC00002D100186D41521E0027044640F2FF116A
:100AD000384601EB620A3E468046024600204FF44B
:100AE0008011FFF76DFBC2197141BB1846EB010085
:100AF000B4EB030C75EB000C04D3E41A65EB0005B2
:100B000017460E46241908F101006D41804634282D
:100B1000E3DDF91946EB0600091BA84103D24FF0AB
:100B2000FF32134601E0002213461BEB070046EBA1
:100B30000A51BDE8F04DFFF71CBF70B58C1810F8D6
:100B4000015B15F0070301D110F8013B2A1106D112
:100B500010F8012B03E010F8016B01F8016B5B1E2C
:100B6000F9D12B0705D40023521E0DD401F8013B07
:100B7000FAE710F8013BCB1A921C03E013F8015B73
:100B800001F8015B521EF9D5A142D8D3002070BDF7
:100B900000BFFEE72DE9F04788B0824614461D46A7
:100BA000DAF81010DAF80000FFF737FBCAF8040093
:100BB000DAF81410DAF80400FFF72FFB0646314686
:100BC000DAF80400FFF7B3FBCAF80C00DAF8080003
:100BD000FFF7EBFD22462B46CDE90001FFF789FC2C
:100BE000CDE90201DAF80C00FFF7DFFD0646DDE98A
:100BF0000223FFF781FC80468946DAF80800FFF7F8
:100C0000D4FD42464B46CDE90401FFF7CEFBCDE9CA
:100C10000601FFF7F5FDCAF808004FF07E50DAF83C
:100C20000C10FFF74CFB0646DAF80410FFF74DFBFB
:100C3000CAF80000DAF80800FFF7B7FD08B0BDE811
:100C4000F08700002DE9FC5F83460C462046FFF745
:100C500042FD07464FF033320C4BFFF74DFC814607
:100C60008A465846FFF737FD07464FF03332084BA8
:100C7000FFF742FC4A465346CDE90001FFF795FBDA
:100C80000546FFF75AFD00B2BDE8FC9F3333EB3F4A
:100C90003333C33F07B5A0B04FF07C512298FFF724
:100CA00014FB0E90FE4880680690FD480068059091
:100CB0000699FFF70AFB0890F948C0680690F848C3
:100CC000406805900699FFF700FB07900899FFF729
:100CD000F6FA4FF080410990FFF7F7FA1D90F048BF
:100CE000C0680690EE48806805900699FFF7EDFA17
:100CF0000890EB4840680690E9480068059006991E
:100D0000FFF7E3FA07900899FFF787FA4FF0804161
:100D10000990FFF7DAFA1E90E14880680590E048F4
:100D2000806804900599FFF7D0FA0790DC48406886
:100D30000590DB48406804900599FFF7C6FA0690D5
:100D40000799FFF76AFA4FF080410890FFF7BDFA64
:100D50004FF07E510990FFF7B5FA1F902098B0F937
:100D600004000490FFF7A9FC06902098B0F9040055
:100D70000490FFF7A2FC05900699FFF7A6FA0890E9
:100D80002098B0F902000290FFF797FC0490209899
:100D9000B0F902000290FFF790FC03900499FFF76E
:100DA00094FA06902098B0F900000290FFF785FCB5
:100DB00004902098B0F900000290FFF77EFC0390A9
:100DC0000499FFF782FA05900699FFF726FA079033
:100DD0000899FFF722FA099002F0B6FF0F902098C9
:100DE000B0F900000890FFF768FC09900F99FFF731
:100DF0006CFA1A902098B0F902000890FFF75DFC99
:100E000009900F99FFF761FA1B902098B0F9040040
:100E10000890FFF752FC09900F99FFF756FA1C90C3
:100E20001E9807901C9806900799FFF74EFA0990B4
:100E30001F9807901B9806900799FFF746FA0890AD
:100E40000999FFF73CFA14901F9807901A9806909A
:100E50000799FFF73AFA09901D9807901C98069099
:100E60000799FFF732FA08900999FFF728FA1590C9
:100E70001D9807901B9806900799FFF726FA09908E
:100E80001E9807901A9806900799FFF71EFA089087
:100E90000999FFF714FA1690149808908148016890
:100EA0000898FFF712FA09907F48006801460890F9
:100EB0000998FFF7B2F97C490860159808907948BD
:100EC00001680898FFF701FA0990774840680146E1
:100ED00008900998FFF7A1F973494860169808909F
:100EE000704801680898FFF7F0F909906E4880682B
:100EF000014608900998FFF790F96B4988601498AB
:100F00000146069069480068FFF7DFF908902098CD
:100F1000B0F906000590FFF7D0FB06906448016821
:100F20000698FFF7D2F907900899FFF776F909902C
:100F30005D480068014608900998FFF76EF9179020
:100F400015980146069059480068FFF7BEF90890C9
:100F50002098B0F908000590FFF7AFFB06905448C1
:100F600001680698FFF7B1F907900899FFF755F95E
:100F700009904D484068014608900998FFF74DF9DF
:100F8000189016980146069048480068FFF79DF9AA
:100F900008902098B0F90A000590FFF78EFB0690A4
:100FA000434801680698FFF790F907900899FFF702
:100FB00034F909903C488068014608900998FFF789
:100FC0002CF91990199806903548C0680590069933
:100FD000FFF77BF9089018980490314880680390D7
:100FE0000499FFF772F906902D48406880F00040A0
:100FF00004901798014603900498FFF766F905904E
:101000000699FFF75CF907900899FFF758F90990DE
:101010000E99FFF75AF913901998069020488068A6
:1010200005900699FFF751F90890189804901C480C
:10103000C06803900499FFF748F906901798049048
:101040001748006803900499FFF73FF90590069947
:10105000FFF735F907900899FFF7DFF809900E9927
:10106000FFF733F91290199806900D4840680590E3
:101070000699FFF72AF90890189804900848006824
:1010800003900499FFF721F90690179804900448FB
:10109000C06803900499FFF718F90590069909E0D4
:1010A0007800002074000020E80400207000002078
:1010B00060000020FFF7B1F807900899FFF7FFF8EC
:1010C00009900E99FFF701F9119019980690CA48F6
:1010D000006805900699FFF7F8F8089018980490B2
:1010E000C548406803900499FFF7EFF80690C2489E
:1010F000806880F00040049017980146039004989F
:10110000FFF7E3F805900699FFF787F8079008992D
:10111000FFF783F809900E99FFF7D7F81090B648BB
:10112000006809901399FFF778F8B34908600846FA
:10113000406809901299FFF770F8AF494860084677
:10114000806809901199FFF768F8AB4988600846F4
:10115000C06809901099FFF760F8A749C860084671
:10116000C06806900846C06805900699FFF7ADF87C
:101170000890A148806804909F4880680390049973
:10118000FFF7A3F806909C48406802909A48406890
:1011900001900299FFF799F804909748006802902F
:1011A0009548006801900299FFF78FF80390049921
:1011B000FFF733F805900699FFF72FF80790089985
:1011C000FFF72BF8099002F0BFFD0F908A480068E6
:1011D00009900F99FFF779F8874908600846406839
:1011E00009900F99FFF771F88349486008468068B5
:1011F00009900F99FFF769F87F4988600846C06831
:1012000009900F99FFF761F87B49C860084640686C
:10121000014606904FF08040FFF757F80790764858
:10122000C068014606900798FFF74FF8099072488A
:101230000068014606904FF08040FFF746F807909F
:101240006D488068014606900798FFF73EF80890C1
:101250000999FFF734F80D90674800680146069039
:101260004FF08040FFF731F807906348406801462F
:1012700006900798FFF729F809905F4880680146B3
:1012800006904FF08040FFF720F807905A48C0685A
:10129000014606900798FFF718F808900999FEF79D
:1012A000BCFF0C9054488068014606904FF0804087
:1012B000FFF70BF8079050488068014606900798A2
:1012C000FFF703F809904C484068014605904FF03D
:1012D0008040FEF7FAFF06904748406801460590B7
:1012E0000698FEF7F2FF4FF07E510790FEF7EAFFF7
:1012F00008900999FEF7E3FF0B902098B0F90A00D7
:101300000890FFF7DAF909903C4801680998FEF760
:10131000DCFF0A904FF07C510A98FFF797FA09D347
:101320000A98FFF742FA0022354BCDE90801FFF792
:101330004FFA0DD222990A98FEF7C7FF099021981B
:101340008068014608900998FEF767FF2199886038
:101350002C480068FFF729FACDE906010D98FFF740
:1013600024FACDE9020104F04BFBCDE90401DDE9EB
:101370000623FFF7C1F8CDE90801FFF741FA2199EB
:101380004860DDE90B1004F073FC09901D4801680A
:101390000998FEF79AFF219908602098B0F9040097
:1013A0000590FFF78AF906900B99FEF78EFF0890DB
:1013B0002098B0F902000390FFF77FF904900C9990
:1013C000FEF783FF06902098B0F900000390FFF726
:1013D00074F904900D99FEF778FF05900699FEF7D1
:1013E0001CFF07900899FEF718FF0990FFF7DDF939
:1013F000054A03C223B000BD780000205C00002035
:101400000000E0BF5800002068000020704772B65E
:1014100000BFFEE770B5044600F0B0F90646254669
:10142000681C10B104480078054400BF00F0A6F91C
:10143000801BA842FAD370BD080000202DE9F847B0
:101440000346002294466EE14FF0010808FA02F4C8
:10145000D1F8008008EA0400A0427DD1DFF8DCA2C8
:10146000D1F80480A8EB0A09D0453AD014DCB8F1D1
:10147000030F50D009DCB8F1000F31D0B8F1010FE3
:101480001CD0B8F1020F49D120E0B8F1110F18D0EB
:10149000B8F1120F42D11EE0B9F5881F25D006DC45
:1014A000B9F5803F20D0B9F5801F37D11AE0B9F5E2
:1014B000001F18D0B9F5041F30D117E0D1F80CC0C7
:1014C0002DE0D1F80C8008F1040C28E0D1F80C8054
:1014D00008F1080C23E0D1F80C8008F10C0C1EE098
:1014E00000BF00BF00BF00BF00BF00BFD1F8088031
:1014F000B8F1000F02D14FF0040C0BE0D1F80880D6
:10150000B8F1010F03D14FF0080C1C6102E04FF05D
:10151000080C5C6103E04FF0000C00E000BF00BF6E
:10152000FF2801D8984601E003F104084646FF2849
:1015300002D84FEA820803E0A2F108084FEA8808BF
:101540004746D6F800804FF00F0909FA07F928EA54
:1015500009080CFA07F900E088E048EA0908C6F82B
:101560000080D1F8048008F08058B8F1805F7DD108
:1015700000BFDFF8CC81D8F8188048F00108DFF808
:10158000C091C9F81880C846D8F8188008F001083A
:10159000CDF8008000BF00BF4FEAB9384FEA92098A
:1015A00058F829504FEA82784FEA18794FF00F081F
:1015B00008FA09F825EA0805DFF88881434502D1D1
:1015C0004FF0000816E0DFF88081434502D14FF06C
:1015D00001080FE0DFF87481434502D14FF00208A3
:1015E00008E0DFF86C81434502D14FF0030801E0C9
:1015F0004FF004084FEA82794FEA197908FA09F89E
:1016000048EA0505DFF84C814FEA920948F829506D
:10161000D1F8048008F48018B8F5801F0AD1DFF8EB
:101620003881D8F8008048EA0008DFF82C91C9F822
:10163000008009E0DFF82081D8F8008028EA00085F
:10164000DFF81491C9F80080D1F8048008F400187C
:10165000B8F5001F10D1DFF8008108F10408D8F8B0
:10166000008048EA0008DFF8F09000E05AE009F155
:101670000409C9F800800DE0DFF8DC8008F10408F7
:10168000D8F8008028EA0008DFF8CC9009F10409B6
:10169000C9F80080D1F8048008F40038B8F5003F9C
:1016A0000ED1DFF8B480A8F10408D8F8008048EA29
:1016B0000008DFF8A490A9F10409C9F800800DE042
:1016C000DFF89480A8F10408D8F8008028EA000820
:1016D000DFF88490A9F10409C9F80080D1F80480EA
:1016E00008F48038B8F5803F0ED1DFF86C80A8F19F
:1016F0000808D8F8008048EA0008DFF85C90A9F1F3
:101700000809C9F800800DE0DFF84C80A8F108084E
:10171000D8F8008028EA0008DFF83C90A9F1080911
:10172000C9F80080521CD1F8008028FA02F8B8F1FC
:10173000000F7FF489AEBDE8F887000000001110AB
:101740000010024000080140000C01400010014060
:1017500000140140080001400804014010B5C268AF
:1017600021EA020302EA010443EA0443036110BDD3
:101770000AB1016101E00B04036170470148006890
:10178000704700000000002070B504460CB901202D
:1017900070BD94F83D0028B9002084F83C00204634
:1017A00000F046FB242084F83D002068006820F00B
:1017B0000100216808602068006840F4004021684A
:1017C00008602068006820F400402168086000F08C
:1017D00025FD05465C496068884206D85B4885421D
:1017E00001D2012007E0002005E05948854201D2DE
:1017F000012000E00020012800D1C9E75548B5FBD1
:10180000F0F62068406820F03F00304321684860CF
:101810004D496068884201D8701C07E04FF496700B
:1018200070434FF47A71B0FBF1F0401C2168096AF3
:1018300021F03F01084321680862434960688842FB
:1018400014D8681E61684900B0FBF1F0401CC0F379
:101850000B00042801D204203DE0681E61684900A5
:10186000B0FBF1F0401CC0F30B0034E0A06838B9C5
:10187000681E616801EB4101B0FBF1F0401C0AE019
:10188000681E616801EBC10202EB0111B0FBF1F0CF
:10189000401C40F48040C0F30B0008B901201AE05E
:1018A000A06848B9681E616801EB4101B0FBF1F026
:1018B000401CC0F30B000CE0681E616801EBC10224
:1018C00002EB0111B0FBF1F0401CC0F30B0040F43F
:1018D000804040F400402168C9694CF6FF72914392
:1018E00008432168C861D4E90701084321680968F1
:1018F00021F0C001084321680860D4E903100843BF
:101900002168896848F2FF32914308432168886062
:10191000D4E9050108432168C96821F0FF010843A3
:101920002168C8602068006840F0010021680860F4
:1019300000202064202084F83D000020206384F8EB
:101940003E0000BF24E70000A086010080841E0046
:1019500000093D0040420F002DE9FE4F04460F46AE
:1019600090469946DDE90CAB0E9E00200290FFF7F1
:1019700005FF054694F83D00202872D11923012265
:10198000CE492046009501F03CFE10B10220BDE892
:10199000FE8F00BF94F83C00012801D10220F6E739
:1019A000012084F83C0000BF2068006800F00100BE
:1019B00028B92068006840F00100216808602068AC
:1019C000006820F4006021680860222084F83D004F
:1019D000402084F83E0000202064C4F824A0A4F82D
:1019E0002AB0608D2085B648E0624B4642463946B3
:1019F0002046CDE9006501F0B1FC08B10120C6E741
:101A0000208D88B900BF00200190206840690190B6
:101A100020688069019000BF00BF2068006840F422
:101A20000070216808604BE0208D01281AD12068E1
:101A3000006820F480602168086072B600BF002052
:101A4000019020684069019020688069019000BF82
:101A500000BF2068006840F400702168086062B62A
:101A60002EE029E1208D022819D12068006840F479
:101A700000602168086072B600BF002001902068F5
:101A80004069019020688069019000BF00BF206814
:101A9000006820F480602168086062B610E0206869
:101AA000006840F480602168086000BF0020019059
:101AB00020684069019020688069019000BF00BFE4
:101AC000EBE0208D03287DD8208D012815D12A46F2
:101AD0003146204601F071FE08B1012057E7206829
:101AE0000069616A0870606A401C6062208D401E57
:101AF0002085608D401E6085CFE0208D02282CD18E
:101B0000334600226F492046009501F07AFD08B166
:101B100001203CE772B62068006840F4007021683C
:101B2000086020680069616A0870606A401C606231
:101B3000208D401E2085608D401E608562B6206825
:101B40000069616A0870606A401C6062208D401EF6
:101B50002085608D401E60859FE0334600225949F4
:101B60002046009501F04DFD08B101200FE72068E7
:101B7000006820F480602168086072B620680069FF
:101B8000616A0870606A401C6062208D401E20857A
:101B9000608D401E60854C4800681921B0FBF1F053
:101BA0004FF47A71B0FBF1F0C0EBC00000EB8000A5
:101BB000029000BF0298401E02900298A8B900202F
:101BC000206300E039E0202084F83D00002084F804
:101BD0003E00206C40F02000206462B600BF002070
:101BE00084F83C0000BF0120D1E620684069C0F3C2
:101BF00080000028DED02068006840F40070216872
:101C0000086020680069616A0870606A401C606250
:101C1000208D401E2085608D401E608562B6206844
:101C20000069616A0870606A401C6062208D401E15
:101C30002085608D401E60852FE02A463146204673
:101C400001F0BBFD08B10120A1E620680069616ACE
:101C50000870606A401C6062208D401E2085608D87
:101C6000401E608520684069C0F38000A8B1208DC7
:101C7000032805D12068006820F48060216808608E
:101C800020680069616A0870606A401C6062208D8B
:101C9000401E2085608D401E6085208D00287FF4C9
:101CA00010AF202084F83D00002084F83E0000BFE3
:101CB00084F83C0000BF6AE6022068E602001000DB
:101CC0000000FFFF040001000C0000202DE9FC5F74
:101CD00004460F4690469946DDE90CAB0E9EFFF791
:101CE0004DFD054694F83D0020287DD119230122A1
:101CF0004D492046009501F084FC10B10220BDE85A
:101D0000FC9F00BF94F83C00012801D10220F6E7B7
:101D1000012084F83C0000BF2068006800F001004A
:101D200028B92068006840F0010021680860206838
:101D3000006820F4006021680860212084F83D00DC
:101D4000402084F83E0000202064C4F824A0A4F8B9
:101D50002AB0608D20853548E0624B4642463946C0
:101D60002046CDE9006501F0A9FB08B10120C6E7D6
:101D700031E02A463146204601F064FD50B1206C26
:101D8000042805D12068006840F4007021680860CC
:101D90000120B4E7606A007821680861606A401C2D
:101DA0006062208D401E2085608D401E6085206809
:101DB0004069C0F3800070B1208D60B1606A007826
:101DC00021680861606A401C6062208D401E208589
:101DD000608D401E6085208D0028CAD12A4631467C
:101DE000204601F0DBFB00E01CE050B1206C042831
:101DF00005D12068006840F4007021680860012067
:101E00007DE72068006840F40070216808602020A9
:101E100084F83D00002084F83E0000BF84F83C00B8
:101E200000BF6CE702206AE7020010000000FFFF1D
:101E300010B586B0044600200290039004900590EF
:101E40002B492068884225D100BF2A48806940F08C
:101E50000800284988610846806900F00800019060
:101E600000BF00BFC0200290122003900320059005
:101E700002A92148FFF7E2FA00BF1E48C06940F4FA
:101E800000101C49C8610846C06900F400100190A8
:101E900000BF2AE019492068884226D100BF1548B2
:101EA000806940F00800134988610846806900F0A5
:101EB0000800019000BF00BF4FF440600290122064
:101EC00003900320059002A90B48FFF7B7FA00BF63
:101ED0000848C06940F480000649C8610846C069E6
:101EE00000F48000019000BF00BF06B010BD0000EC
:101EF0000054004000100240000C01400058004017
:101F0000034800680349097808440149086070479C
:101F1000000000200800002010B50848006840F0CC
:101F2000100006490860032000F098F80F2000F028
:101F300007F800F02BF8002010BD00000020024040
:101F400070B504460E4800784FF47A71B1FBF0F09A
:101F50000C490968B1FBF0F5284600F0AFFD08B167
:101F6000012070BD102C07D200222146501E00F027
:101F700037F80548046001E00120F2E70020F0E7AF
:101F8000080000200C0000200400002008B500BF5D
:101F90001148806940F001000F4988610846806956
:101FA00000F00100009000BF00BF00BF0846C069FC
:101FB00040F08050C8610846C06900F08050009031
:101FC00000BF00BF00BF0549486820F0E06040F056
:101FD0000070486000BF08BD0010024000000140D2
:101FE0002DE9F05F80460D461646002702F06AFD97
:101FF000074639462A46334601F00700C0F1070A72
:10200000BAF1040F02D94FF0040A01E0C0F1070A47
:10201000D14600F1040ABAF1070F02D24FF0000ACC
:1020200001E0A0F1030AD4464FF0010A0AFA09FAC6
:10203000AAF1010A0AEA020A0AFA0CFA4FF0010BA5
:102040000BFA0CFBABF1010B0BEA030B4AEA0B0496
:102050002146404602F03EFDBDE8F09F00BF00F083
:102060000702064B19684FF6FF031940044B0B4358
:1020700043EA0221014B196000BF70470CED00E0FC
:102080000000FA0570B504460D460CB9012070BD7C
:102090005A48006800F00700A8420ED2574800686E
:1020A00020F007002843554908600846006800F002
:1020B0000700A84201D00120E9E7207800F00200E3
:1020C00002281DD1207800F00400042805D14C48D6
:1020D000406840F4E0604A494860207800F0080019
:1020E000082805D14648406840F46050444948609B
:1020F0004348406820F0F000A16808434049486028
:10210000207800F0010078B36068012806D13C48CF
:10211000006800F4003090B90120B8E76068022838
:1021200006D13748006800F0007040B90120AEE7E2
:102130003348006800F0020008B90120A7E73048E2
:10214000406820F00300616808432D494860FFF7AC
:1021500015FB064609E0FFF711FB801B41F28831B1
:10216000884202D9032092E707E02548406800F042
:102170000C006168B0EB810FEDD12048006800F0E1
:102180000700A8420ED91D48006820F00700284328
:102190001A4908600846006800F00700A84201D00C
:1021A000012074E7207800F00400042807D11448C7
:1021B000406820F4E060E1680843114948602078F5
:1021C00000F00800082808D10D48406820F460504D
:1021D000216940EAC1000A49486000F03FF8084917
:1021E0004968C1F30311074A515CC84006490860B9
:1021F00006480068FFF7A4FE002048E700200240E0
:10220000001002402E7B00080C000020040000207B
:1022100001480068704700000C00002000B5FFF77F
:10222000F7FF04494968C1F30221034A515CC840E1
:1022300000BD0000001002403E7B000800B5FFF723
:10224000E7FF04494968C1F3C221034A515CC84011
:1022500000BD0000001002403E7B000870B5002168
:102260000022002400230020134D696801F00C05B2
:10227000F5B1042D02D0082D19D101E00F4819E065
:102280000F4DC1F38346AB5D01F4803555B10A4D66
:102290006D68C5F340450B4E725D084D5D43B5FB5F
:1022A000F2F402E0084D03FB05F4204602E000BF13
:1022B000024800BF00BF70BD0010024000127A004B
:1022C0001C7B00082C7B000800093D00F8B5044683
:1022D0000CB90120F8BD207800F00100002878D06A
:1022E000F848406800F00C0004280CD0F54840681D
:1022F00000F00C00082811D1F248406800F480304A
:10230000B0F5803F0AD1EF48006800F400300028A3
:102310005FD0606800285CD10120DBE700BF606807
:10232000B0F5803F06D1E748006840F48030E549C9
:10233000086028E0606858B9E248006820F48030FE
:10234000E04908600846006820F4802008601AE030
:102350006068B0F5A02F0BD1DA48006840F4802007
:10236000D84908600846006840F4803008600AE0F8
:10237000D448006820F48030D249086008460068DC
:1023800020F48020086000BF606888B1FFF7F6F98C
:10239000054606E0FFF7F2F9401B642801D9032047
:1023A00098E7C848006800F400300028F2D010E038
:1023B000FFF7E4F9054606E0FFF7E0F9401B642863
:1023C00001D9032086E7BF48006800F400300028E8
:1023D000F2D1207800F00200022857D1B9484068B5
:1023E00000F00C0050B1B748406800F00C0008281D
:1023F00018D1B448406800F4803098B9B1480068FA
:1024000000F0020020B12069012801D0012061E71D
:10241000AC48006820F0F800616940EAC100A949B1
:10242000086033E02069E8B10120A7490860FFF7A0
:10243000A5F9054606E0FFF7A1F9401B022801D9DE
:10244000032047E79F48006800F002000028F2D010
:102450009C48006820F0F800616940EAC100994991
:10246000086013E0002098490860FFF787F90546E7
:1024700006E0FFF783F9401B022801D9032029E772
:102480009048006800F002000028F2D1207800F0A7
:10249000080008282DD1A069B8B101208B49086037
:1024A000FFF76CF9054606E0FFF768F9401B0228C4
:1024B00001D903200EE78348406A00F0020000289B
:1024C000F2D0012001F068FC13E000207F49086091
:1024D000FFF754F9054606E0FFF750F9401B0228C4
:1024E00001D90320F6E67748406A00F00200002890
:1024F000F2D1207800F00400042873D1002771483D
:10250000C06900F0805070B900BF6E48C06940F0EB
:1025100080506C49C8610846C06900F08050009046
:1025200000BF00BF01276A48006800F48070B0B99E
:102530006748006840F4807065490860FFF71EF93D
:10254000054606E0FFF71AF9401B642801D903206D
:10255000C0E65F48006800F480700028F2D000BF39
:10256000E068012806D15748006A40F0010055494B
:10257000086227E0E06858B95248006A20F001007C
:10258000504908620846006A20F00400086219E019
:10259000E06805280BD14B48006A40F00400494927
:1025A00008620846006A40F0010008620AE04548F7
:1025B000006A20F00100434908620846006A20F0E2
:1025C0000400086200BFE068A0B1FFF7D7F8054635
:1025D00009E0FFF7D3F8401B41F28831884202D965
:1025E000032077E622E03748006A00F00200002866
:1025F000EFD012E0FFF7C2F8054608E0FFF7BEF89B
:10260000401B41F28831884201D9032062E62D48FF
:10261000006A00F002000028F0D1012F05D12948FE
:10262000C06920F080502749C86100BFE069C8B385
:102630002448406800F00C00082860D0E0690228B7
:1026400048D1002020490866FFF798F8054606E0C3
:10265000FFF794F8401B022801D903203AE61948F5
:10266000006800F000700028F2D1206AB0F5803FC9
:1026700007D11448406820F40030A168084311498C
:102680004860D4E9080108430E49496821F47411EF
:1026900008430C49486001200B490866FFF76EF8B3
:1026A000054607E03DE0FFF769F8401B022801D925
:1026B00003200FE60348006800F000700028F2D005
:1026C0002FE000000010024000004242800442421D
:1026D00000700040002014490866FFF74FF80546D7
:1026E00006E0FFF74BF8401B022801D90320F1E573
:1026F0000E48006800F000700028F2D111E0E06997
:10270000012800D1E6E50948466806F48031206AD0
:10271000814204D106F47011606A814201D0012027
:10272000D8E50020D6E5000000004242001002403B
:1027300010B504460CB9012010BD606A38B9606854
:10274000B0F5827F00D105E00021E16102E00021C7
:10275000216161610021A16294F8510028B9002033
:1027600084F85000204600F043F8022084F851001D
:102770002068006820F0400021680860A08800F40C
:102780008270218901F404410843A18901F40061A8
:102790000843217C01F002010843217D01F0010181
:1027A0000843218B01F400710843217F01F03801B7
:1027B00008432021095D01F080010843218D01F4C7
:1027C00000510843216808600421A06901EA104013
:1027D000216848602068C06920F400602168C861F1
:1027E00000206065012084F851000020A4E700006B
:1027F00010B586B004460020029003900490059026
:102800001949206888422DD100BF1848806940F4DA
:102810008050164988610846806900F48050019014
:1028200000BF00BF00BF0846806940F00400886117
:102830000846806900F00400019000BF00BFA0209E
:102840000290022003900320059002A90848FEF799
:10285000F5FD4020029000200390049002A9044856
:10286000FEF7ECFD06B010BD003001400010024044
:10287000000801402DE9FE4F04460F4690461D46D4
:102880000C9E01200190FEF779FF814694F851B02B
:1028900060680290AA46BBF1010F0BD00298B0F518
:1028A000827F04D1A06810B9BBF1040F02D00220CE
:1028B000BDE8FE8F1FB1B8F1000F00D00DB90120A7
:1028C000F6E700BF94F85000012801D10220EFE79D
:1028D000012084F8500000BF94F85100042802D071
:1028E000052084F8510000206065C4F83880E58731
:1028F000A5872763E586A586206460642068006854
:1029000000F04000402805D02068006840F04000FA
:1029100021680860E068B0F5006F52D1606810B1BE
:10292000BAF1010F09D1206B00882168C860206BC3
:10293000801C2063E08E401EE0863BE020688068BB
:1029400000F00200022810D1E08E70B10198012839
:102950000BD1206B00882168C860206B801C20632D
:10296000E08E401EE086002001902068806800F024
:10297000010068B1E08F58B12068C068A16B088081
:10298000A06B801CA063E08F401EE08701200190B7
:10299000FEF7F4FEA0EB0900B0420BD3701C48B167
:1029A000012084F8510000BF002084F8500000BFCF
:1029B00003207DE7E08E0028C0D1E08F0028BDD144
:1029C00052E0606810B1BAF1010F09D1206B0078B4
:1029D00021680873206B401C2063E08E401EE08657
:1029E0003CE02068806800F00200022810D1E08EF0
:1029F00070B1019801280BD1206B00782168087311
:102A0000206B401C2063E08E401EE0860020019079
:102A10002068806800F0010068B1E08F58B120683C
:102A2000C068A16B0870A06B401CA063E08F401EC3
:102A3000E08701200190FEF7A1FEA0EB0900B04263
:102A400001D3701C00B94EB9012084F8510000BFB9
:102A5000002084F8500000BF032029E7E08E002802
:102A6000BFD1E08F0028BCD14A463146204601F054
:102A7000A7F940B12020606500BF002084F8500015
:102A800000BF012014E7A06850B900BF00200090EB
:102A90002068C068009020688068009000BF00BF78
:102AA000012084F8510000BF002084F8500000BFCE
:102AB000606D08B10120FBE60020F9E670B5044620
:102AC0002546681EB0F1807F01D301200FE0681E0B
:102AD0004FF0E02148610F214FF0FF3001F0FAFF85
:102AE00000204FF0E021886107200861002070BDC0
:102AF00010B50346002200BF93F83C00012801D125
:102B0000022010BD012083F83C0000BF22F0FF002E
:102B1000CC6840EA040222F440708C6840EA040267
:102B200022F480604C6840EA040222F400600C68E1
:102B300040EA040222F480500C6940EA040222F4C4
:102B400000504C6940EA040222F48040CC6940EA1B
:102B500004021868426400BF002083F83C0000BFF4
:102B600000BFCEE730B502460B4600BF92F83C00EE
:102B7000012801D1022030BD012082F83C0000BFB5
:102B8000022082F83D00106844681068816824F0D3
:102B900070041868044310684460104D1068A8421F
:102BA0000BD01068B0F1804F07D00D4D1068A842CF
:102BB00003D00C4D1068A84205D121F0800158685F
:102BC000014310688160012082F83D0000BF0020B1
:102BD00082F83C0000BF00BFCDE70000002C0140A0
:102BE000000400400008004010B504460CB9012064
:102BF00010BD94F83D0028B9002084F83C00204620
:102C000000F026F8022084F83D00211D206801F024
:102C1000B5F9012084F8460000BF84F83E00012188
:102C20003F200155402001554120015500BF00BF04
:102C3000012084F8420043200155442001554520DD
:102C4000015500BF012084F83D000020D0E70000BE
:102C500008B5244A016891420DD100BF2249896913
:102C600041F40061204A91611146896901F40061D3
:102C7000009100BF35E00168B1F1804F0DD100BF78
:102C80001949C96941F00101174AD1611146C96961
:102C900001F00101009100BF23E0144A0168914254
:102CA0000DD100BF1049C96941F002010E4AD1613E
:102CB0001146C96901F00201009100BF11E00C4A00
:102CC000016891420DD100BF0749C96941F0040173
:102CD000054AD1611146C96901F00401009100BFA4
:102CE00000BF08BD002C014000100240000400405D
:102CF000000800402DE9F04104460D46002700BFC2
:102D000094F83C00012802D10220BDE8F0810120A6
:102D100084F83C0000BF022084F83D0020688668EB
:102D200026F0770626F47F462068866028685028BB
:102D300033D00CDC202850D004DC00284BD01028E5
:102D400051D149E0302849D040284CD139E06028A1
:102D50002DD0702807D0B0F5805F03D0B0F5005FAC
:102D600041D10DE041E0D5E902136A68206801F025
:102D700058F92068866846F077062068866034E057
:102D8000D5E902136A68206801F04BF92068806871
:102D900040F480402168886027E0EA68696820681C
:102DA00001F010FA5021206801F046F91DE0EA68B0
:102DB0006968206801F019FA6021206801F03CF987
:102DC00013E0EA686968206801F0FCF94021206896
:102DD00001F032F909E000BF00BF00BF2968206898
:102DE00001F02AF901E0012700BF00BF012084F8AB
:102DF0003D0000BF002084F83C0000BF384684E757
:102E000010B586B00446002002900390049005900F
:102E10003C492068884217D100BF3B48806940F098
:102E20000400394988610846806900F00400019077
:102E300000BF00BF0815029002200390059002A970
:102E40003248FEF7FBFA5BE02068B0F1804F16D104
:102E500000BF2D48806940F004002B498861084676
:102E6000806900F00400019000BF00BF02200290C2
:102E70000390059002A92548FEF7E0FA40E02449B6
:102E80002068884221D100BF1F48806940F00800B7
:102E90001D4988610846806900F00800019000BF64
:102EA00000BF1020029002200390059002A919484B
:102EB000FEF7C4FA00BF1849486820F4406040F0AB
:102EC000E06040F4006048601AE0144920688842DD
:102ED00016D100BF0C48806940F008000A4988619B
:102EE0000846806900F00800019000BF00BF481547
:102EF000029002200390059002A90648FEF79EFA70
:102F000006B010BD002C0140001002400008014036
:102F100000040040000C0140000001400008004097
:102F20002DE9F04104460D461646002700BF94F8EF
:102F30003C00012802D10220BDE8F081012084F884
:102F40003C0000BF36B1042E1BD0082E31D00C2E11
:102F50005ED145E02946206801F078F82068806954
:102F600040F00800216888612068806920F0040032
:102F7000216888612068806929690843216888611F
:102F800048E02946206801F091F82068806940F403
:102F90000060216888612068806920F48060216871
:102FA000886120688069296940EA01202168886178
:102FB00030E02946206801F0ADF82068C06940F093
:102FC00008002168C8612068C06920F004002168F9
:102FD000C8612068C069296908432168C86119E08F
:102FE0002946206801F0CAF82068C06940F40060F2
:102FF0002168C8612068C06920F480602168C861C8
:103000002068C069296940EA01202168C86101E09F
:10301000012700BF00BF00BF002084F83C0000BFB4
:10302000384689E710B504460CB9012010BD94F864
:103030003D0028B9002084F83C00204600F025F827
:10304000022084F83D00211D206800F097FF012038
:1030500084F8460000BF84F83E0001213F2001555E
:10306000402001554120015500BF00BF012084F8D8
:10307000420043200155442001554520015500BF21
:10308000012084F83D000020D0E7704770B5044669
:103090000D4615B994F83E000BE0042D02D13F20F7
:1030A000005D06E0082D02D14020005D01E04120D6
:1030B000005D012801D0012070BD1DB9022084F8F7
:1030C0003E000EE0042D03D102213F20015508E00F
:1030D000082D03D102214020015502E002214120A8
:1030E000015501222946206800F08AFF194920680D
:1030F000884201D1012000E0002028B12068406C06
:1031000040F40040216848641249206888420BD08E
:103110002068B0F1804F07D00F492068884203D063
:103120000E49206888420CD12068806800F00706AC
:10313000062E0CD02068006840F00100216808606D
:1031400005E02068006840F0010021680860002068
:10315000B2E70000002C01400004004000080040DD
:1031600010B504460CB9012010BDA06900B100E003
:1031700000BF94F8410028B9002084F840002046A0
:1031800000F02AF8242084F841002068C06820F468
:1031900000502168C860204601F072F8206800697C
:1031A00020F49040216808612068406920F02A00DE
:1031B000216848612068C06840F400502168C860F8
:1031C00000206064202084F8410084F84200002040
:1031D000606300BFC8E7000010B586B00446002059
:1031E00002900390049005901949206888422DD1DF
:1031F00000BF1848C06940F400301649C86108464D
:10320000C06900F40030019000BF00BF00BF084655
:10321000806940F0040088610846806900F004007D
:10322000019000BF00BF0420029002200390032001
:10323000059002A90848FEF701F908200290002035
:103240000390049002A90448FEF7F8F806B010BDF8
:103250000044004000100240000801402DE9F84FF2
:1032600004460E46174699464FF0000A94F841006E
:10327000202850D106B117B90120BDE8F88F0020F1
:103280006064212084F84100FEF778FA8246A78422
:10329000E784A068B0F5805F04D1206910B90025EB
:1032A000B04602E035464FF000081EE053460022CB
:1032B00080212046CDF8009001F060F820B1202058
:1032C00084F841000320D8E745B9B8F80000C0F3FE
:1032D00008002168486008F1020803E028782168A6
:1032E00048606D1CE08C401EE084E08C0028DDD13D
:1032F0005346002240212046CDF8009001F03EF8D0
:1033000020B1202084F841000320B6E7202084F873
:1033100041000020B1E70220AFE700BFFEE7014611
:1033200008684069C0F38020B0B16FF480600A681B
:10333000506100200863202081F83D00002081F8C2
:103340003E00086C40F00400086400BF002081F8D3
:103350003C0000BF012070470020FCE72DE9F84346
:1033600004460F4615469946DDE908862068006840
:1033700040F48060216808602068006840F4807034
:1033800021680860434600224FF001112046009654
:1033900000F037F960B12068006800F48070B0F583
:1033A000807F02D14FF4007020640320BDE8F883D1
:1033B00007F0FE0021680861334642463E49204638
:1033C00000F07EF908B10120F0E700BF0020009076
:1033D00020684069009020688069009000BF00BFAD
:1033E00032464146204600F02DFA50B1206C0428A8
:1033F00005D12068006840F4007021680860012051
:10340000D4E7B9F1010F03D1E8B22168086117E0F0
:10341000C5F307202168086132464146204600F086
:1034200011FA50B1206C042805D12068006840F4DE
:103430000070216808600120B8E7E8B221680861DF
:1034400032464146204600F0FDF950B1206C042878
:1034500005D12068006840F40070216808600120F0
:10346000A4E72068006840F4807021680860434643
:1034700000224FF001112046009600F0C2F858B12A
:103480002068006800F48070B0F5807F02D14FF4AE
:1034900000702064032089E7F8B240F00100216841
:1034A0000861334642460449204600F009F908B154
:1034B00001207BE7002079E7020001002DE9F843B5
:1034C0000446884615469946DDE908672068006885
:1034D00040F4807021680860334600224FF00111EB
:1034E0002046009700F08DF860B12068006800F475
:1034F0008070B0F5807F02D14FF40070206403200B
:10350000BDE8F88308F0FE00216808613B463246BA
:103510002149204600F0D4F808B10120F0E700BFAF
:103520000020009020684069009020688069009029
:1035300000BF00BF3A463146204600F083F950B143
:10354000206C042805D12068006840F400702168D0
:1035500008600120D4E7B9F1010F03D1E8B2216876
:10356000086117E0C5F30720216808613A46314633
:10357000204600F067F950B1206C042805D120687E
:10358000006840F40070216808600120B8E7E8B2E4
:10359000216808610020B3E70200010070B504460D
:1035A0000D46164625E02046FFF7B9FE08B101207A
:1035B00070BD681CE8B1FEF7E1F8801BA84200D896
:1035C000BDB920684069C0F3800090B90020206335
:1035D000202084F83D00002084F83E00206C40F05C
:1035E0002000206400BF002084F83C0000BF0120C0
:1035F000DEE720684069C0F380000028D3D00020B7
:10360000D6E72DE9F04104460D4617461E46DDF883
:10361000188038E0701CA8B3FEF7B0F8A0EB0800E3
:10362000B04200D876BBC5F3074001280AD1206814
:103630004069A9B20840A9B2884201D101200BE03B
:10364000002009E020688069A9B20840A9B2884238
:1036500001D1012000E00020B84214D100202063F5
:10366000202084F83D00002084F83E00206C40F0CB
:103670002000206400BF002084F83C0000BF01202F
:10368000BDE8F081FFE7C5F3074001280AD12068B3
:103690004069A9B20840A9B2884201D101200BE0DB
:1036A000002009E020688069A9B20840A9B28842D8
:1036B00001D1012000E00020B842ABD00020DFE7BC
:1036C0002DE9F04104460D4616461F4658E0206895
:1036D0004069C0F38020E8B12068006840F40070C1
:1036E000216808606FF480602168486100202063D1
:1036F000202084F83D00002084F83E00206C40F03B
:103700000400206400BF002084F83C0000BF0120BA
:10371000BDE8F081701C90B3FEF730F8C01BB042DA
:1037200000D866BBC5F3074001280AD1206840696C
:10373000A9B20840A9B2884201D101200BE00020C3
:1037400009E020688069A9B20840A9B2884201D185
:10375000012000E0002090B900202063202084F8A0
:103760003D00002084F83E00206C40F020002064E2
:1037700000BF002084F83C0000BF0120C8E7FFE73D
:10378000C5F3074001280AD120684069A9B2084062
:10379000A9B2884201D101200BE0002009E0206895
:1037A0008069A9B20840A9B2884201D1012000E095
:1037B000002000288BD00020AAE770B504460D46F3
:1037C000164637E020684069C0F30010A0B16FF0E2
:1037D00010002168486100202063202084F83D000B
:1037E000002084F83E00206C206400BF002084F894
:1037F0003C0000BF012070BDFDF7C0FF801BA84248
:1038000000D8BDB920684069C0F3801090B900208D
:103810002063202084F83D00002084F83E00206CC6
:1038200040F02000206400BF002084F83C0000BF6E
:103830000120E0E720684069C0F380100028C1D073
:103840000020D8E770B504460D46164625E0204610
:10385000FFF765FD08B1012070BD681CE8B1FDF7F8
:103860008DFF801BA84200D8BDB920684069C0F315
:10387000C01090B900202063202084F83D00002073
:1038800084F83E00206C40F02000206400BF00203F
:1038900084F83C0000BF0120DEE720684069C0F3E7
:1038A000C0100028D3D00020D6E7000000B585B0B6
:1038B0000020019002900390049000BF304880697E
:1038C00040F010002E4988610846806900F0100021
:1038D000009000BF00BF00BF0846806940F0200094
:1038E00088610846806900F02000009000BF00BF9A
:1038F00000BF0846806940F004008861084680697E
:1039000000F00400009000BF00BF00BF08468069BF
:1039100040F0080088610846806900F008000090C7
:1039200000BF00BF012241F610011648FDF720FF3D
:1039300001224DF204011448FDF71AFF00224FF452
:1039400080711048FDF714FF41F61010019001201E
:103950000290002003900220049001A90948FDF77D
:103960006DFD4DF2040001900120029000200390B3
:103970000220049001A90448FDF760FD05B000BDD8
:103980000010024000080140000C014010B50B4837
:103990000B4908600B484860002109488160C160FC
:1039A0004FF480410161002141618161C161016287
:1039B000FDF7EAFE08B1FDF72AFD10BD00540040F6
:1039C00080020020801A060010B50B480B490860E1
:1039D0000B484860002109488160C1604FF4804174
:1039E0000161002141618161C1610162FDF7CCFE8D
:1039F00008B1FDF70CFD10BD00580040D4020020B6
:103A0000801A060010B50E480E4908604FF4827007
:103A1000486000210B488160C160016141614FF441
:103A2000007181611021C1610021016241628162E6
:103A30000A21C162FEF77CFE08B1FDF7E8FC10BD6B
:103A4000003001402803002000B595B000201190FF
:103A50001290139014900F9010901C2108A8FCF75E
:103A6000C6FB20216846FCF7C2FB2B482B490860A7
:103A70000320486000212948816040F2E731C1609D
:103A80000021016141618161FFF7AEF808B1FDF7E6
:103A9000BEFC4FF48050119011A92048FFF72AF97D
:103AA00008B1FDF7B4FC1D48FFF7BCFA08B1FDF7FB
:103AB000AEFC00200F9010900FA91848FFF752F8A5
:103AC00008B1FDF7A4FC60200890002009900A903E
:103AD0000B900C900D900E90082208A90F48FFF74C
:103AE0001FFA08B1FDF793FC0020009001900290AE
:103AF000039004904FF40050059000200790694611
:103B00000648FEF7F5FF08B1FDF781FC0348FFF713
:103B100077F915B000BD0000002C014080030020A3
:103B200000B58DB0002009900A900B900C90079082
:103B300008901C216846FCF75AFB4FF080401F4953
:103B400008600320486000211C48816040F2E73192
:103B5000C160002101618161FFF746F808B1FDF7FE
:103B600056FC4FF48050099009A91448FFF7C2F899
:103B700008B1FDF74CFC1148FFF754FA08B1FDF706
:103B800046FC00200790089007A90C48FEF7EAFFC2
:103B900008B1FDF73CFC60200090002001900290ED
:103BA0000490042269460548FFF7BAF908B1FDF709
:103BB0002EFC0248FFF724F90DB000BDC803002019
:103BC00000B58DB0002009900A900B900C900790E2
:103BD00008901C216846FCF70AFB20482049086031
:103BE0000320486000211E48816040F2E731C16037
:103BF000002101618161FEF7F7FF08B1FDF707FCC5
:103C00004FF48050099009A91548FFF773F808B1DF
:103C1000FDF7FDFB1248FFF705FA08B1FDF7F7FBCA
:103C200000200790089007A90D48FEF79BFF08B1F8
:103C3000FDF7EDFB602000900020019002900490C1
:103C4000002269460648FFF76BF908B1FDF7DFFB74
:103C50000348FFF7D5F80DB000BD00000004004098
:103C60001004002000B58DB0002009900A900B9040
:103C70000C90079008901C216846FCF7B8FA204881
:103C8000204908600320486000211E48816040F2FE
:103C9000E731C160002101618161FEF7A5FF08B134
:103CA000FDF7B5FB4FF48050099009A91548FFF7BF
:103CB00021F808B1FDF7ABFB1248FFF7B3F908B1E3
:103CC000FDF7A5FB00200790089007A90D48FEF717
:103CD00049FF08B1FDF79BFB602000900020019098
:103CE000029004900C2269460648FFF719F908B1C2
:103CF000FDF78DFB0348FFF783F80DB000BD000012
:103D0000000800405804002010B50B480B4908601B
:103D10004FF4E1304860002108488160C1600161D2
:103D20000C21416100218161C161FFF719FA08B1DD
:103D3000FDF76DFB10BD000000440040A004002012
:103D400000BFFEE700BFFEE72DE9F05F04464FF03D
:103D50007F594FF07C512046FCF7B7FA8246254642
:103D60002E460C48A0EB6606354629465046FCF721
:103D7000ACFA83462946FCF7A8FA80464946FCF788
:103D8000A1FA07462946FCF7A0FA05462846BDE8F1
:103D9000F09F0000DF59375F08B508490968C90876
:103DA0004FF47A72B1FBF2F14143009100BF00BFC2
:103DB00000994A1E00920029F9D108BD0C0000208C
:103DC000F8B504460E461546334601220221204628
:103DD000009500F029F828B1606D40F02000606582
:103DE0000320F8BD3346002280212046009500F0D4
:103DF0001BF828B1606D40F0200060650320F0E7FB
:103E00000020EEE701B582B0002001904FF47A70F7
:103E1000012301AA02A900900248FEF72BFD9DF89C
:103E200004000EBD280300202DE9F84F04460D467E
:103E300090461E46DDF82890FDF7A0FCA0EB090097
:103E4000371AFDF79BFC82462C480068C0F3CB3044
:103E50007843009045E0701C002842D0FDF78EFCAE
:103E6000A0EB0A00B84200D2A7BB2068406820F04F
:103E7000E000216848606068B0F5827F0DD1A068DD
:103E8000B0F5004F03D0A068B0F5806F05D1206871
:103E9000006820F0400021680860A06AB0F5005F6B
:103EA0000DD100BF2068006820F400502168086030
:103EB0002068006840F400502168086000BF0120BD
:103EC00084F8510000BF002084F8500000BF032098
:103ED000BDE8F88FFFE7009800B900270098401E62
:103EE0000090206880682840A84201D1012000E0AD
:103EF00000204045AFD10020EAE700000C00002080
:103F000010B503F07FFC012801D003F04DFBFDF755
:103F1000F7FF10BD00B58FB0282105A8FCF767F9A1
:103F200014216846FCF763F901200590000406900F
:103F3000002007900120099002200C90C1030D91F0
:103F40004FF4E0110E9105A8FEF7C0F908B1FDF796
:103F50005EFA0F20009002200190002002904FF4A2
:103F6000806003900020049002216846FEF78AF8E2
:103F700008B1FDF74CFA0FB000BD704710B50268EC
:103F80001C4B984208D0B0F1804F05D01A4B984294
:103F900002D01A4B984203D122F070024B681A43A8
:103FA000144B984208D0B0F1804F05D0124B984284
:103FB00002D0124B984203D122F44072CB681A43CC
:103FC00022F080034C6943EA040202608B68C362FA
:103FD0000B688362074B984201D10B69036301238D
:103FE0004361036903F001031BB1036923F001037B
:103FF000036110BD002C0140000400400008004097
:1040000030B501F01F05012404FA05F3046A9C434E
:104010000462046A01F01F0502FA05F52C430462EC
:1040200030BD30B50C46816821F47F4142EA03255A
:1040300025432943816030BD0A46816821F0700123
:1040400042F00703194381607047000030B5026AEF
:10405000056A25F0010505624368846924F070044F
:1040600024F003040D682C4322F002028D682A43D9
:104070000D4DA84206D100BF22F00802CD682A43A8
:1040800022F00402084DA84207D123F4807323F4E0
:1040900000734D692B438D692B43436084614D68E8
:1040A0004563026230BD0000002C014030B5026A59
:1040B000056A25F0100505624368846924F4E0442C
:1040C00024F440740D6844EA052422F020028D682F
:1040D00042EA05120E4DA84207D100BF22F080022D
:1040E000CD6842EA051222F04002094DA84209D1EA
:1040F00023F4806323F400634D6943EA85038D69EB
:1041000043EA8503436084614D688563026230BD84
:10411000002C014030B5026A056A25F480750562FD
:104120004368C46924F0700424F003040D682C4330
:1041300022F400728D6842EA05220F4DA84207D191
:1041400000BF22F40062CD6842EA052222F48062B8
:10415000094DA84209D123F4805323F400534D693B
:1041600043EA05138D6943EA05134360C4614D6852
:10417000C563026230BD0000002C014030B5036A07
:10418000056A25F4805505624468C26922F4E0425C
:1041900022F440720D6842EA052223F400538D6830
:1041A00043EA0533064DA84204D124F480444D6906
:1041B00044EA85144460C2614D680564036230BD01
:1041C000002C014030B50B461446026A056A25F002
:1041D00001050562816921F0F00141EA041122F034
:1041E0000A021A438161026230BD30B50B461446A3
:1041F000026A056A25F010050562816921F47041A3
:1042000041EA043122F0A00242EA03128161026213
:1042100030BD00BF00BF02680C3252E8002F22F40C
:10422000907102680C3242E80013002BF3D100BFFA
:1042300000BF00BF0268143252E8002F22F00101D3
:104240000268143242E80013002BF3D100BF016B67
:1042500001290ED100BF00BF02680C3252E8002FC6
:1042600022F0100102680C3242E80013002BF3D157
:1042700000BF202180F84210002101637047000038
:1042800070B504462168096921F44051E268114380
:10429000226811612269A1681143626941EA02053D
:1042A0002168C96841F20C62914329432268D160B8
:1042B0002168496921F44071A26911432268516162
:1042C0002D4A2168914202D1FDF7B8FF01E0FDF7C8
:1042D000A5FF00EBC00101EB001162689200B1FB89
:1042E000F2F100EBC00202EB001263689B00B2FB2C
:1042F000F3F26423B2FBF3F202EBC20303EB02120C
:10430000A1EB8201322202EB01116422B1FBF2F136
:1043100001F0F00100EBC00202EB001263689B00A9
:10432000B2FBF3F26423B2FBF3F201EB021200EBF7
:10433000C00101EB001163689B00B1FBF3F100EBDE
:10434000C00303EB00136668B600B3FBF6F3642604
:10435000B3FBF6F303EBC30606EB0313A1EB8301F8
:10436000322303EB01116423B1FBF3F101F00F01E0
:1043700011442268916070BD003801402DE9F84376
:1043800004460D4617469846089E31E0701C70B3EF
:10439000FDF7F4F9A0EB0800B04200D816B90320ED
:1043A000BDE8F8832068C06800F00400F8B1802DF3
:1043B0001ED0402D1CD020680068C0F3C000B0B1F2
:1043C00000BF0020009020680068009020684068CE
:1043D000009000BF00BF2046FFF71BFF082060646D
:1043E00000BF002084F8400000BF0120D8E7FFE7AD
:1043F000206800682840A84201D1012000E0002088
:10440000B842C3D00020CBE700BFFEE7F8B50646B0
:104410000C460025002000906A46E521304600F059
:104420008DFA05439DF8000020702846F8BD7CB544
:1044300006460D4600246946304600F04AF804431B
:1044400001AA3121304600F079FA044364B99DF89D
:10445000040000F001009DF80010884202D1012004
:10446000287001E00020287020467CBD70B505460C
:10447000002401228621284600F094FA04432046B5
:1044800070BDF8B506460C4600256A4696213046B2
:1044900000F068FA0543BDF8000020802846F8BD0A
:1044A000F8B506460C4600256A464B21304600F01A
:1044B00045FA2843C5B29DF80000142801D1012017
:1044C00020809DF800000A2801D10220208068B2D7
:1044D000F8BDF8B506460C4600256A463021304640
:1044E00000F02CFA05439DF8000000F01000009049
:1044F0009DF80000001108B9012000E000202070A4
:104500002846F8BDF8B506460C4600256A465E21E9
:10451000304600F027FA0543BDF80000B0F5D77F1C
:104520002FD00EDC602829D006DC1D281ED01E28C6
:1045300020D0512836D11CE0AD2823D0D62831D147
:104540001BE040F2E132811A904222D008DCB0F543
:10455000E67F1BD0A0F2D920E0B1082822D114E0D8
:10456000AE291BD0B1F5D87F1CD116E00F202080DA
:104570001CE000BF1420208018E000BF2120208014
:1045800014E000BF3220208010E000BF64202080B3
:104590000CE000BFC820208008E000BF4FF4FA7094
:1045A000208003E001250020208000BF00BF2846B6
:1045B000F8BD0000F8B50646002400252D250AE0C8
:1045C000A5F12D0018490A5C2946304600F0EAF9A9
:1045D0000443681CC5B2872DF2DD304600F097F920
:1045E00004430020009004E069463046FFF71FFFB7
:1045F00004439DF800000028F6D03046FFF736FF50
:104600000443304600F08EF9044309220821304665
:1046100000F0C8F9044300220B21304600F0C2F933
:1046200004432046F8BD0000467B0008F8B5064666
:104630000D46002469463046FFF764FF04430CB181
:104640000120F8BD012D02D0022D4ED126E014220A
:104650004B21304600F0A6F904460722602130467F
:1046600000F0A0F9044605226321304600F09AF9D3
:10467000044638226921304600F094F9044640F29D
:1046800005727821304600F0C7F9044640F2066210
:104690007A21304600F0C0F9044628E00A224B2176
:1046A000304600F07FF904460F226021304600F0CA
:1046B00079F904460D226321304600F073F904466F
:1046C000B8226921304600F06DF9044640F60D72BB
:1046D0007821304600F0A0F9044640F60E627A21B7
:1046E000304600F099F9044601E0012400BF00BF04
:1046F0002CB9BDF80010304600F030F804432046D5
:104700009FE700002DE9F84F82460C464FF0000964
:104710006A46DE21504600F025F940EA0909BDF855
:104720000000C0F309000090BDF8001001FB04F088
:10473000FBF7E2FF07464FF03332074BFBF7DCFE97
:104740000546FCF719F883465A466C21504600F09E
:104750003FF94846BDE8F88F3333F13FF8B50646D8
:104760000C46002569463046FFF79AFE0543BDF822
:10477000000008B90120F8BDBDF80000012869D18A
:10478000322C30D006DC0F2C0CD0142C15D0212C60
:104790005DD11DE0642C33D0C82C3ED0B4F5FA7F37
:1047A00055D147E01D225E21304600F035F9272221
:1047B0006121304600F030F94BE051225E21304655
:1047C00000F02AF96E226121304600F025F940E020
:1047D000D6225E21304600F01FF96E22612130465C
:1047E00000F01AF935E04FF4D7725E21304600F040
:1047F00013F94FF4F4726121304600F00DF928E00E
:1048000040F2E1225E21304600F006F94FF4627278
:104810006121304600F000F91BE040F2E1325E21F8
:10482000304600F0F9F840F296426121304600F03F
:10483000F3F80EE040F291525E21304600F0ECF8C1
:1048400040F2C1526121304600F0E6F801E0012556
:1048500000BF5AE0642C2ED006DC142C0AD0212C88
:1048600013D0322C4ED11BE0C82C31D0B4F5FA7FD6
:1048700048D13AE01E225E21304600F0CDF82222D7
:104880006121304600F0C8F83EE060225E213046EB
:1048900000F0C2F86E226121304600F0BDF833E02E
:1048A000AD225E21304600F0B7F8C62261213046C5
:1048B00000F0B2F828E04FF4E6725E21304600F0D6
:1048C000ABF84FF4F5726121304600F0A5F81BE01B
:1048D00040F2D9225E21304600F09EF84FF43E723D
:1048E0006121304600F098F80EE040F28F425E21E0
:1048F000304600F091F840F2A4426121304600F0C9
:104900008BF801E0012500BF00BF284633E770B5F2
:104910000546002440228721284600F043F804433E
:10492000204670BD70B50546002400228721284628
:1049300000F038F80443204670BD0000FEB5044680
:104940000D4616464FF47A70012110232A46CDE910
:104950000061029021460248FCF7FEFF0020FEBDE8
:10496000D40200207FB504460D4616460020039071
:104970004FF47A70022103AA1023CDE9002102909E
:104980002A4621460648FCF7E7FF9DF80D009DF8F2
:104990000C1040EA01203080002004B070BD0000FF
:1049A000D402002037B584B004460D464FF47A7027
:1049B000012106AA1023CDE9002102902A462146B2
:1049C0000248FDF783F9002007B030BDD402002073
:1049D0007FB505460E46144600200390200E8DF844
:1049E0000C00200C8DF80D00200A8DF80E00E0B2AE
:1049F0008DF80F004FF47A70042103AA1023CDE93B
:104A000000210290324629460248FDF75FF9002056
:104A100004B070BDD40200207FB505460E46144692
:104A200000200390200A8DF80C00E0B28DF80D00F4
:104A30004FF47A70022103AA1023CDE900210290DD
:104A4000324629460248FDF741F9002004B070BD06
:104A5000D40200200FB4054B10B503A9044A0298F4
:104A600000F0CEF810BC5DF814FB0000896100086E
:104A700078020020490050EAC12018BF04204A0DE6
:104A800018BF40F0010040F2FF72B2EB515F08BF67
:104A900040F00200012808BF0520704741000802CD
:104AA00018BF04200A0E18BF40F001004FF07F42EB
:104AB00032EA010108BF40F00200012808BF0520CA
:104AC0007047000002480068C0F3022070470000F1
:104AD0000CED00E010B5002804DB0A07130E054AB0
:104AE000135406E00A07140E034A00F00F031B1FBD
:104AF000D45410BD00E400E018ED00E02DE9F041D1
:104B00004F1E00EBC7010446D1E9000115461E46C1
:104B100037F006020DD02A463346FBF7EDFC7F1E28
:104B200004EBC703D3E90023FBF73FFC37F0060291
:104B3000F1D1022F25D0042F13D0062F18BFBDE8C6
:104B4000F0812A463346FBF7D7FCD4E90A23FBF76A
:104B50002CFC2A463346FBF7CFFCD4E90823FBF7AD
:104B600024FC2A463346FBF7C7FCD4E90623FBF7AF
:104B70001CFC2A463346FBF7BFFCD4E90423FBF7B1
:104B800014FC2A463346FBF7B7FCD4E90223FBF7B3
:104B90000CFC2A463346FBF7AFFCD4E90023BDE802
:104BA000F041FBF702BC0122FBF740BF0022134695
:104BB00010461146FBF712BD024A00201107FBF711
:104BC00035BF000001FDFFFFFBF727BB6FF05E0163
:104BD0000807FBF755BF02E008C8121F08C1002AEA
:104BE000FAD170477047002001E001C1121F002A6E
:104BF000FBD1704701490860704700007C0200202B
:104C00002DE9FF4F8DB09B460F460446002606E077
:104C100025280BD05A460F999047641C761C2078A3
:104C20000028F5D111B03046BDE8F08F0025A84628
:104C30000122984900E0054314F8013F203B02FAA5
:104C400003F00842F7D120782E2817D114F8010F6D
:104C500045F004052A280ED06FF02F022078A0F12D
:104C6000300109290AD808EB880102EB410100EB69
:104C70000108641CF2E757F8048B641C20786C2848
:104C80000DD004DC4C2812D06A2811D104E074281D
:104C90000DD07A280CD10AE045F4001507E06178C0
:104CA00045F48015814202D1641C05F58015641C11
:104CB0002078692844D008DC0028B3D0582867D071
:104CC00063280FD0642808D13AE0702865D0732893
:104CD00012D075285AD078285AD05A460F99904742
:104CE000761CD5E017F8040B8DF8000000208DF835
:104CF0000100E946012003E057F8049B4FF0FF3024
:104D000069074FF0000501D40AE06D1C45450DDA36
:104D10008542FADB19F805100029F6D106E06D1C72
:104D20008542FCDB19F805100029F8D12E4404E077
:104D300019F8010B5A460F9990476D1EF8D2A7E05B
:104D40000A200021CDE90801C5F3025002280CD049
:104D500001CFC117021E71F100020CDA0023D0EB63
:104D6000030063EB01012D2208E0FF1D27F0070778
:104D7000F7E80201EEE72A0504D52B228DF828205A
:104D800001223CE0EA073AD02022F7E70A2000E0BF
:104D900010200021CDE9080107E01020002145F096
:104DA0000405CDE908014FF00808C5F302500228B8
:104DB00010D001CF00214FF0000A2A0720D5227819
:104DC000702A0DD0DDE908C38CF0100C5CEA030CEE
:104DD0000CD015E0FF1D27F00707F7E80201EAE70E
:104DE00040228DF828204FF0010A0CE050EA010320
:104DF00006D030238DF828308DF8292002229246E3
:104E00002278582A04D024A20DF120090B9209E03F
:104E100026A2F9E7DDE90823FBF722FD0B9B9B5C4B
:104E200009F8013D50EA0102F4D1ADEB0900203050
:104E30000890680701D44FF001080899884503DD00
:104E40000898A8EB000000E000208046002506E05E
:104E50000AA85A46405D0F9990476D1C761C55452F
:104E6000F6DB04E030205A460F999047761CB8F1E3
:104E70000001A8F10108F5DC05E019F8010B5A461C
:104E80000F999047761C0899481E08900029F4DC79
:104E9000641CC4E60928010030313233343536371A
:104EA0003839616263646566000000003031323376
:104EB0003435363738394142434445460000000016
:104EC00010B508480088FBF701FC0749886101F02C
:104ED0000FFD0446FBF7FAFB0349C861084601F0E1
:104EE0002BF810BD240100203C02002000B589B041
:104EF000FE48007830B101280ED002287BD003286C
:104F00007AD1C5E10020FA49C880FA49C880FA4937
:104F1000C880FA49C88004E2F948006AF949049057
:104F2000FBF78AFC01D2F7480AE0F548006AF64927
:104F30000490FBF78BFC01D2F34801E0F048006AD3
:104F40000690F24840880290FBF7C0FB0390F048BF
:104F5000006A014602900398FBF75FF90490ED4860
:104F6000006A014603900498FBF7A9F90590069999
:104F7000FBF753F90790FBF7CCFBDD49C880E0480D
:104F8000006AE0490490FBF757FC01D2DD480AE0D3
:104F9000DB48006ADC490490FBF758FC01D2DA4890
:104FA00001E0D748006A0690D84840880290FBF795
:104FB0008DFB0390D648006A014602900398FBF7E8
:104FC0007EF90490D348006A014603900498FBF7E9
:104FD00076F905900699FBF772F90790FBF799FBB4
:104FE000C449C880C648006AC6490490FBF724FC3F
:104FF00003D2C4480CE05EE092E1C148006AC249B5
:105000000490FBF723FC01D2BF4801E0BC48006AD2
:105010000690BE4840880290FBF758FB0390BC48BE
:10502000006A014602900398FBF7F7F80490B9482C
:10503000006A014603900498FBF7EFF80590069983
:10504000FBF73DF90790FBF764FBAB49C880AC4820
:10505000006AAC490490FBF7EFFB01D2A9480AE0D3
:10506000A748006AA8490490FBF7F0FB01D2A648C4
:1050700001E0A348006A0690A44840880290FBF72C
:1050800025FB0390A248006A014602900398FBF7B3
:1050900016F904909F48006A014603900498FBF7B4
:1050A000BCF805900699FBF7B8F80790FBF731FBC1
:1050B0009249C88035E19248006A92490390FBF713
:1050C000BBFB01D28F480AE08D48006A8E490390ED
:1050D000FBF7BCFB01D28C4801E08948006A0590CF
:1050E0008A4840880190FBF7F1FA02908848006AEC
:1050F000014601900298FBF790F803908548006AFA
:10510000014602900398FBF7DAF804900599FBF743
:1051100084F806908048006A014605900698FBF7DF
:105120007CF80790FBF7F5FA7149C8807448006A6B
:1051300074490390FBF780FB01D272480AE0704883
:10514000006A71490390FBF781FB01D26E4801E0D0
:105150006B48006A05906D4840880190FBF7B6FAED
:1051600002906B48006A014601900298FBF7A7F88D
:1051700003906848006A014602900398FBF79FF885
:1051800004900599FBF79BF806906348006A014676
:1051900005900698FBF741F80790FBF7BAFA5549D6
:1051A000C8805748006A57490390FBF745FB01D276
:1051B00054480AE05248006A53490390FBF746FB03
:1051C00001D2514801E04E48006A05904F4840889E
:1051D0000190FBF77BFA02904D48006A014601906E
:1051E0000298FBF71AF803904A48006A01460290B9
:1051F0000398FBF712F804900599FBF760F8069006
:105200004548006A014605900698FBF706F80790A6
:10521000FBF77FFA3849C8803948006A394903905A
:10522000FBF70AFB01D237480AE03548006A3649E5
:105230000390FBF70BFB01D2334801E03048006AD2
:105240000590324840880190FBF740FA02903048C0
:10525000006A014601900298FBF731F803902D484F
:10526000006A014602900398FAF7D7FF0490059967
:10527000FAF7D3FF06902848006A01460590069881
:10528000FAF7CBFF0790FBF744FA1C49C88048E0C7
:105290001748C088801E1649C8801648C088801EDE
:1052A0001449C8801448C088801E1349C880134818
:1052B000C088801E1149C8800D48C088002814DCB1
:1052C0000C48C088002810DC0B48C08800280CDC83
:1052D0000846C088002808DC002002230246014658
:1052E00000900E48006802F0E7F91AE0090100207A
:1052F0003C010020440100204C010020540100200A
:10530000180200200000C8C20000C8420A010020A4
:1053100088010020D00100203C0200201C01002058
:1053200000BF00BF0F2008906B48C0880F226B4958
:10533000079000F0EFFD6849C8806948C0880F22D7
:105340006649891C079000F0E5FD6549C8806548FD
:10535000C0880F226149091D079000F0DBFD6149FB
:10536000C8806148C0880F225C49891D079000F001
:10537000D1FD5D49C8805848C088002801DA002066
:1053800009E05548C088B0F5167F02DD4FF416706D
:1053900001E05148C0885049C8805148C088002861
:1053A00001DA002009E04E48C088B0F5167F02DD22
:1053B0004FF4167001E04A48C0884949C8804948FE
:1053C000C088002801DA002009E04648C088B0F50E
:1053D000167F02DD4FF4167001E04248C088414953
:1053E000C8804148C088002801DA002009E03E4812
:1053F000C088B0F5167F02DD4FF4167001E03A4820
:10540000C0883949C8802F2138A0FAF7FBFE28B19F
:105410002F2136A0FAF7F6FE401C00E033A05C21F5
:105420000690FAF7EFFE88B12F2130A0FAF7EAFED6
:1054300028B12F212DA0FAF7E5FE401C00E02BA09B
:105440005C210690FAF7DEFE401C0BE02F2127A01E
:10545000FAF7D8FE28B12F2124A0FAF7D3FE401C7A
:1054600000E022A007902048C0881E49C9881C4A35
:10547000D288CDE9002102901748C0880346C8228F
:1054800006901FA00799FFF7E5FA234840883228C5
:1054900013DC00211048C18000201149C880114947
:1054A000C8801149C88000210C480180418000203B
:1054B0000A49888000210948C180074800F0BDFEE4
:1054C000074800F0BAFE074800F0B7FE064800F0B3
:1054D000B4FE09B000BD00003C0100205C010020CA
:1054E000440100204C010020540100206170705CD8
:1054F0006170705F666C696768742E6300000000FD
:105500005B25733A25645D203A25642C25642C259F
:10551000642C25640A0000000A0100202DE9F041F6
:10552000304800F04FFF304AB2F900102D4AB2F96E
:105530000600FBF787FB2B49C8802B4AB2F9021003
:10554000284AB2F90800FBF77DFB26490881264A64
:10555000B2F90410234AB2F90A00FBF773FB2149A0
:1055600048812148D1F806200260498981801D497F
:10557000B1F90000FBF7AFF8064632460B461B4870
:10558000FBF708FB0446FBF7D8F800B21549088082
:10559000B1F90200FBF79FF8064632460B46134866
:1055A0001830FBF7F7FA0446FBF7C7F800B20D49CD
:1055B0004880B1F90400FBF78EF8064632460B46E8
:1055C0000A483030FBF7E6FA0446FBF7B6F800B2BB
:1055D00004498880064A07490248FBF75BFBBDE89F
:1055E000F0810000DA490020340100201000002082
:1055F000A69BC43BBC49002010B500F033FF01F06E
:105600007FF900F07FF810BD70B533498988A1F5A6
:10561000FA70FBF752F804463049FAF788FE304931
:10562000886130484068C8612F49B1F90800FBF72C
:1056300044F805462D49FAF748FE04464FF08E41DE
:10564000FAF775FE2A49C861254800F0B5FC2249E1
:10565000C988A1F5FA70FBF730F804461F49FAF73C
:1056600066FE244988611F480068C8611E49B1F977
:105670000600FBF722F805461C49FAF726FE044609
:105680004FF08E41FAF753FE1B49C861194800F0EC
:1056900093FC11490989A1F5FA70FBF70EF804464D
:1056A0000E49FAF744FE154988610E488068C861C2
:1056B0000D49B1F90A00FBF700F805460B49FAF766
:1056C00004FE04464FF08E41FAF731FE0C49C861E2
:1056D0000A4800F071FC70BD0A0100200000484239
:1056E00064010020BC490020DA4900200000FA448F
:1056F00088010020AC010020D0010020F40100202E
:105700001802002010B5064800F0B4FD054800F06E
:10571000B1FD054800F0AEFD044800F0ABFD10BD42
:105720003C010020440100204C01002054010020D5
:1057300028B90021084A1170084A11700BE0074986
:105740000978491C054A1170114609780A2902DBBB
:105750000121014A1170704708010020300100202A
:1057600010B52048007830B101280BD002281BD09A
:10577000032831D126E000F0D5F810B901201949ED
:1057800008702DE01848007830B1022015490870E3
:1057900001F0AEF81549088015480078012802D1BB
:1057A0000320104908701BE00F48007810B1012059
:1057B0000C4908700E480078012802D103200949DD
:1057C00008700DE04FF0FF320121002001F074FD60
:1057D00000200449087003E000200249087000BF5F
:1057E00000BF10BD090100200A0100202401002093
:1057F000080100202DE9F84F374801F03DF88046B8
:10580000B8F1000F02D00120BDE8F88F32480078CF
:10581000AA2806D130484078552802D12E488078F1
:1058200008B10120F0E70024002004E02A49095CC7
:105830000C44411CC8B20D28F8DB0025264E0D365D
:105840003568AC4238D02F2124A0FAF7DBFC28B110
:105850002F2122A0FAF7D6FC401C00E01FA08246B0
:105860005C21FAF7CFFC88B12F211CA0FAF7CAFC03
:1058700028B12F2119A0FAF7C5FC401C00E017A0A1
:1058800082465C21FAF7BEFC401C0BE02F2113A0DE
:10589000FAF7B8FC28B12F2110A0FAF7B3FC401C8E
:1058A00000E00EA0814623463222494610A0009512
:1058B000FFF7D0F80120A7E701F080FD064FFF1C9D
:1058C000174839680160796841603989018101F0C0
:1058D00087FD002098E70000C84900206170705CD7
:1058E0006170705F726563765F646174612E6300DE
:1058F0005B25733A25645D20636865636B2073756F
:105900006D206572726F722C206373756D3A20255D
:10591000642C207273756D3A2025640A0000000023
:105920000A01002010B531480078052856D2DFE87A
:1059300000F00310253151002D484088B0F5617FFB
:1059400006DB01202949087001F06CFF2949086035
:1059500048E027484088B0F5617F0EDA01F062FF29
:1059600024490968401AB0F57A7F03D302201F4901
:10597000087002E000201D49087033E01C48408890
:10598000642806DC03201949087001F04BFF1A490E
:10599000086027E01648408864280BDD01F042FFCC
:1059A00015490968401AB0F57A7F03D200200F49E3
:1059B00008700EE00E48408864280ADC01F032FFCF
:1059C0000D490968401AB0F57A7F02D304200749CF
:1059D000087007E000200549087010BD0020074945
:1059E000087000BF00BF0120F7E70000260100207B
:1059F0000A010020280100202C01002009010020BC
:105A00002DE9F04D8D4F21F0004A86B005460C4639
:105A1000BA452ADBAAEB070028430AD0884882450A
:105A200001DC1AD1CDB106B02846BDE8F04DFFF734
:105A3000BAB8844A844B2846FAF75EFD07460E46FC
:105A4000824A834B28462146FAF756FD06B03A466D
:105A50003346BDE8F04DFAF7A8BC0120FFF7CAF8BD
:105A600006B0BDE8F04DFFF7A1B87A48824542DAAA
:105A7000BAF1795F0BDA2846FEF7FCFF042808BF6D
:105A8000FFF79AF8284606B02146BDE8F08D2A4671
:105A90000B461046FAF730FD834602466E480E4626
:105AA0000B4606217844FFF729F85A463346FAF7A1
:105AB00023FD804669488A465A4633460421784485
:105AC000FFF71CF85A463346FAF716FD00223B460C
:105AD000FAF76BFC02460B4640465146FAF77EFD4C
